:020000040800F2
:1000000050070020890100089101000893010008B1
:100010009501000897010008990100080000000000
:100020000000000000000000000000009B0100082C
:100030009D010008000000009F010008A1010008C8
:10004000A3010008A3010008A3010008A301000800
:10005000A3010008A301000849020008610200088A
:100060007902000891020008A9020008A301000813
:10007000A3010008A3010008A3010008A3010008D0
:10008000A3010008A3010008A3010008A3010008C0
:10009000A3010008A3010008A3010008E50200086D
:1000A000A3010008A3010008A3010008A3010008A0
:1000B000890C0008BD0C0008D90C0008A301000839
:1000C000A3010008A3010008A3010008A301000880
:1000D000A3010008F50C0008110D00083D0D0008F3
:1000E000A3010008A3010008A301000800F002F822
:1000F00000F03AF80AA090E8000C82448344AAF188
:100100000107DA4501D100F02FF8AFF2090EBAE885
:100110000F0013F0010F18BFFB1A43F0010318473B
:10012000943F0000B43F0000103A24BF78C878C163
:10013000FAD8520724BF30C830C144BF04680C60ED
:10014000704700000023002400250026103A28BF35
:1001500078C1FBD8520728BF30C148BF0B60704739
:100160001FB51FBD10B510BD00F038F81146FFF7E0
:10017000F7FF01F011F900F056F803B4FFF7F2FFB2
:1001800003BC00F0E9FD000009488047094800472A
:10019000FEE7FEE7FEE7FEE7FEE7FEE7FEE7FEE737
:1001A000FEE7FEE704480549054A064B7047000094
:1001B000290C0008ED000008500100205007002025
:1001C000500300205003002070477047704770476D
:1001D0007047000000487047F00000207546FFF7A8
:1001E000F9FFAE4605006946534620F007008546F4
:1001F00018B020B5FFF7D6FFBDE820404FF000064D
:100200004FF000074FF000084FF0000B21F00701FE
:10021000AC46ACE8C009ACE8C009ACE8C009ACE841
:10022000C0098D46704710B50446AFF300802046E4
:10023000BDE81040FFF7A1BFC10000BF0A1EA1F139
:100240000101FBD1704700000448006800F0010084
:1002500010B10120014908607047000014040140FA
:100260000448006800F0020010B102200149086053
:1002700070470000140401400448006800F00400C6
:1002800010B10420014908607047000014040140C7
:100290000448006800F0080010B108200149086017
:1002A000704700001404014010B50C48006800F0CD
:1002B000100090B10521002000F040FF28B108484F
:1002C0000068401C0649086004E005480068401EBC
:1002D0000349086010200149086010BD1404014062
:1002E0000C00002010B51D48006800F0200010B17F
:1002F00020201A4908601948006800F0400090B1B9
:100300000521012000F01AFF28B115480068401EA1
:100310001349086004E012480068401C1049086056
:1003200040200E4908600D48006800F0800010B1C0
:1003300080200A4908600948006800F4807018B1FC
:100340004FF48070054908600448006800F40070AC
:1003500018B14FF400700149086010BD1404014049
:100360000800002010B502220A21012000F0F8FE4A
:1003700002220B21012000F0F3FE0948006820F45E
:100380007040074908600846006840F44050086023
:100390000120044908600449C1F8A80110BD00000B
:1003A000040C0140AC8121420080214200B50020B4
:1003B0000F4908600F48006820F470400D4908603C
:1003C0000846006840F44050086001200A49C1F81E
:1003D000AC010520FFF730FF01200549086005202A
:1003E000FFF72AFF00200449C1F8A80100BD000062
:1003F000A8812142040C01400080214270B50546CD
:1004000000241748006820F4704015490860084629
:10041000006840F400400860002616E00020114902
:1004200008600520FFF708FF01200F49C1F8A80167
:100430006006040E0B487C38006808B1601CC4B22A
:100440000520FFF7F9FE701CC6B2082EE6DB15B1D9
:1004500000F00CF801E0FFF7A9FF204670BD000096
:10046000040C0140A88121420080214200B50020F7
:100470000F4908600F48006820F470400D4908607B
:100480000846006840F44050086000200A49C1F85E
:10049000AC010520FFF7D0FE0120054908600520CA
:1004A000FFF7CAFE00200449C1F8A80100BD000002
:1004B000A8812142040C01400080214230B504464D
:1004C0001548006820F47040134908600846006829
:1004D00040F440500860002010490860002517E0F3
:1004E000E0090E49091D08606006040E0220FFF7AE
:1004F000A3FE01200A49C1F8A8010520FFF79CFED0
:100500000020064908600320FFF796FE681CC5B26C
:10051000082DE5DB30BD0000040C0140A88121421C
:100520000080214200B50F48006820F470400D495A
:1005300008600846006840F44050086001200A49FD
:1005400008600A49C1F8A8010520FFF775FE0020E0
:10055000054908600520FFF76FFE00200349C1F838
:10056000A80100BD040C0140AC8121420080214261
:1005700000B50F48006820F470400D490860084637
:10058000006840F44050086000200A4908600A49A9
:10059000C1F8AC010520FFF74FFE012005490860B6
:1005A0000549C1F8AC010520FFF746FE00BD00007B
:1005B000040C0140A88121420080214210B5002492
:1005C0001748006820F47040154908600846006824
:1005D00040F4004008600120124908600520FFF740
:1005E0002BFE0AE0601CC4B2322C03DDFFF7C0FF13
:1005F000012010BD0520FFF71FFE0A488038006863
:100600000028EFD101200749091F08600520FFF7E6
:1006100013FE00200449C1F8A80100BFE9E700006B
:10062000040C0140AC812142008021422DE9F047B9
:100630002E4800682E4908603F2000F0ADF8824641
:1006400002F093FC064600222A4B02F01FFB0446F0
:100650000022294B02F0D8FC804602F031FA2349EF
:100660000860234801682148006803F0B5F9064690
:1006700002F0B2FE21F00041044602F021FA1F49C7
:1006800008601F491D48006803F06AF906D21B483C
:1006900001681C4803F0A0F9184908601748006871
:1006A00002F09AFE0446184A184B02F071FC03D37C
:1006B0000E4800681649086011490C48006802F0AD
:1006C000B7FE0A4908600F490848006803F048F976
:1006D00005D80C490548006803F07EF901E003489D
:1006E00000680B490860BDE8F08700004400002066
:1006F0004C0000200000E0400080664050000020D8
:10070000000034430000B443FCA9F1D24D62803FA5
:100710004800002070B5642000F03CFB002426E077
:10072000641C3F2000F038F8064603F005F8054643
:10073000134903F049F81349086013491148006848
:1007400002F076FE0F49086010490E48006803F079
:1007500007F905D80D490B48006803F03DF901E0A1
:100760000848006807490860642000F013FB0A2C61
:10077000D6DB0548064908600649086070BD0000E0
:100780000000B43B40000020000034430000B443AC
:100790004C0000204400002070B50646FFF7C2FE62
:1007A000A020FFF78BFEFFF709FF00B11EE03046E7
:1007B000FFF784FEFFF702FF00B117E0FFF7B2FE7C
:1007C000A120FFF77BFEFFF7F9FE00B10EE001204C
:1007D000FFF714FE04460020FFF710FE0546FFF762
:1007E000E5FDFFF7C5FE44EA052070BDFFF7C0FE3A
:1007F0000248006802F068FF80B2F6E74800002077
:10080000014607238B431A02054B18684FF6FF0376
:1008100018401043034B1843014B18607047000009
:100820000CED00E00000FA0570B505460C4604200A
:10083000FFF7E6FF0E48005D00F0010646EA0510EE
:10084000C1B20B4801552046E21704EBD2625211A7
:10085000A4EB421301229A402146E31704EBD36331
:100860005B119B0003F1E023C3F8002170BD000081
:1008700000E400E070B500240EE00021204600F006
:10088000D1F8002504E0002000F04AF9681CC5B248
:10089000802DF8DB601CC4B2082CEEDB70BD10B5F7
:1008A00002220821012000F05BFC02220921012024
:1008B00000F056FC01220821104600F023FD012221
:1008C0000921104600F01EFD10BD70B5054600243C
:1008D00013E08020204100EA05020921012000F0F8
:1008E00011FD01220821104600F00CFD0022082114
:1008F000012000F007FD601CC4B2082CE9DB0122D6
:100900000821104600F0FEFC00220821012000F022
:10091000F9FC70BD10B501220921104600F0F2FC6F
:1009200001220821104600F0EDFC002209210120DF
:1009300000F0E8FC00220821012000F0E3FC10BDDB
:1009400010B500220921012000F0DCFC0122082161
:10095000104600F0D7FC01220921104600F0D2FC1D
:1009600010BD70B5002406E0002500E06D1CB5F553
:100970007A7FFBD3641CB4F57A7FF5D3FFF78FFF42
:10098000AE2000F0BDF8D52000F0BAF8802000F0CD
:10099000B7F8A82000F0B4F83F2000F0B1F8D32059
:1009A00000F0AEF8002000F0ABF8402000F0A8F80E
:1009B000A12000F0A5F8C82000F0A2F8DA2000F08D
:1009C0009FF8122000F09CF8812000F099F8CF20C9
:1009D00000F096F8D92000F093F8F12000F090F89C
:1009E000DB2000F08DF8302000F08AF8A42000F021
:1009F00087F8A62000F084F88D2000F081F81420FC
:100A000000F07EF8AF2000F07BF8FFF733FF70BDF9
:100A100010B50246012000E050430B1EA1F1010178
:100A2000FAD110BD70B505460C4645F0B00000F097
:100A300067F8102141EA141000F062F804F00F008A
:100A400000F05EF870BD00002DE9F04105460E464D
:100A50001746721ED206110E6A1E5206100EFFF7BE
:100A6000E1FF002409E0A7F12001134A02EB011184
:100A7000085D00F055F8601CC4B2082CF3DB721E50
:100A8000D206110E6A1E012303EB4202D0B2FFF719
:100A9000C9FF00240BE0A7F12001074A02EB011275
:100AA00004F10801505C00F03BF8601CC4B2082C53
:100AB000F1DBBDE8F0810000C23A00082DE9F04703
:100AC00080460E4617461D46002415E0281B411E91
:100AD0000A20FFF79DFFB7FBF0F00A21B0FBF1F20F
:100AE00001FB120000F130093019C1B24A464046FC
:100AF000FFF7AAFF601CC4B2AC42E7DBBDE8F08799
:100B000010B50446FFF706FF7820FFF7DEFE002051
:100B1000FFF7DBFE2046FFF7D8FEFFF711FF10BD01
:100B200010B50446FFF7F6FE7820FFF7CEFE402012
:100B3000FFF7CBFE2046FFF7C8FEFFF701FF10BD11
:100B400010B500F001F810BD0CB500200190009028
:100B50003348006840F480303149086000BF3048B5
:100B6000006800F4003000900198401C019000984B
:100B700018B90198B0F5A06FF1D12948006800F4C8
:100B8000003010B10120009001E00020009000989A
:100B9000012843D12348006840F010002149086033
:100BA0000846006820F0030008600846006840F02E
:100BB000020008601A4840681949486008464068C1
:100BC00048600846406840F48060486008464068D5
:100BD00020F47C1048600846406840F4E810486003
:100BE0000846006840F08070086000BF0C4800684C
:100BF00000F000700028F9D00948406820F0030098
:100C0000074948600846406840F00200486000BF5D
:100C10000348406800F00C000828F9D10CBD000022
:100C2000001002400020024010B51348006840F058
:100C300001001149086008464068104908400E4903
:100C40004860084600680E4908400B49086008469D
:100C5000006820F4802008600846406820F4FE0008
:100C600048604FF41F008860FFF76AFF4FF0006094
:100C70000449086010BD0000001002400000FFF8A9
:100C8000FFFFF6FE08ED00E010B54FF08040008A4F
:100C900000F0010070B102230748027801210846E4
:100CA000FFF70CFF4FF08040008A20F001004FF06A
:100CB0008041088210BD0000010000200548008826
:100CC00000F0010028B10348008820F0010001492C
:100CD00008807047100400400548008800F00100BB
:100CE00028B10348008820F00100014908807047BE
:100CF000100800400548008800F0200028B1034893
:100D0000008820F020000149088070470038014029
:100D100010B50848008800F0200050B1012001F013
:100D200067FE054908700348008820F0200001494B
:100D3000088010BD004400403C00002005480088A9
:100D400000F0200028B10348008820F0200001496D
:100D5000088070470048004000BF704710B501226E
:100D60000621002000F0CEFA01220721002000F029
:100D7000C9FA01220021104600F0C4FA01221146EE
:100D8000104600F0BFFA002001F02CF9002001F01D
:100D900045F910BD00B5034603E04FF47A7000F04A
:100DA00005F8181EA3F10103F7D100BD00EBC00147
:100DB000C9004FF0E02251610021916105211161CC
:100DC00000BF4FF0E021096901F480310029F8D01B
:100DD00004214FF0E0221161704710B50721012076
:100DE00000F0ACF9012801D1002010BD0120FCE782
:100DF00010B504220721012000F0B2F910BD70B532
:100E000004460025092C56D2DFE804F055050F19D9
:100E1000232D37414B000B21002000F08FF90128D2
:100E200001D1012500E0002545E00D21012000F061
:100E300085F9012801D1012500E000253BE00421CE
:100E4000012000F07BF9012801D1012500E00025F7
:100E500031E00F21012000F071F9012801D10125B5
:100E600000E0002527E00821002000F067F90128B4
:100E700001D1012500E000251DE00D21022000F038
:100E80005DF9012801D1012500E0002513E00F21C3
:100E9000002000F053F9012801D1012500E00025D0
:100EA00009E00F21022000F049F9012801D10125B4
:100EB00000E0002500BF00BF284670BD10B500222D
:100EC0000121132000F010F801220521104600F046
:100ED00047F9002201210C2000F006F8012205212B
:100EE000002000F03DF910BD2DE9F04704460E4604
:100EF0001746032194FBF1F0C11700EB91718910A3
:100F0000A0EB810189064FEA1168032194FBF1F0FF
:100F1000C11700EB9171C1F38705204600F06AF814
:100F20003148806940F001002F4988614FEAB130B3
:100F300050F825000F2101FA08F188432B4941F8A8
:100F40002500032094FBF0F100FB114088B1032041
:100F500094FBF0F100FB1140401E012101FA00F06A
:100F600000FA08F0214951F8251001431F4840F8C4
:100F70002510032094FBF0F1012088401C490968EA
:100F800008431B49086066B9032094FBF0F1012077
:100F90008840174908310968084315490831086035
:100FA0000BE0032094FBF0F10120884010490C3144
:100FB000096808430E490C310860032094FBF0F0E7
:100FC00004280ADC032094FBF0F0801D00F0FF09E8
:100FD00049463846FFF728FC03E017213846FFF75B
:100FE00023FCBDE8F087000000100240080001402B
:100FF0000004014010B50446182C12D2DFE804F0BA
:101000000C12181E242A30363C42484E545A606650
:101010006C72787E848A909601220021084600F046
:101020009FF889E001220021104600F099F883E042
:1010300001220021022000F093F87DE001221146F8
:10104000002000F08DF877E001221146104600F0F4
:1010500087F871E001221146022000F081F86BE070
:1010600001220221002000F07BF865E0012202212C
:10107000104600F075F85FE001220221084600F0FA
:101080006FF859E001220321002000F069F853E0D5
:1010900001220321104600F063F84DE001220321F4
:1010A000022000F05DF847E001220421002000F05A
:1010B00057F841E001220421104600F051F83BE0CE
:1010C00001220421022000F04BF835E00122052125
:1010D000002000F045F82FE001220521104600F025
:1010E0003FF829E001220521022000F039F823E031
:1010F00001220621002000F033F81DE00122062124
:10110000104600F02DF817E001220621022000F021
:1011100027F811E001220721002000F021F80BE060
:1011200001220721104600F01BF805E001220721EB
:10113000022000F015F800BF00BF10BD10B5024638
:10114000064850F82200806801248C4000EA04031D
:101150000BB1012010BD0020FCE7000014000020AE
:1011600070B5654CA469042585402C43624DAC6183
:1011700008295DDA614C54F8204024688E000F2560
:10118000B540AC435D4D55F820502C601AB1032A90
:1011900001D0022A0FD10124944044F003048D00B1
:1011A000AC40564D55F820502D682C43534D55F802
:1011B00020502C609FE0012A01D0042A2AD14F4CF4
:1011C00054F8204024688E000825B5402C434B4D30
:1011D00055F820502C60012A0ED1484C54F820407C
:1011E000E46801258D4024EA050301248C401C435A
:1011F000424D55F82050EC60042A7CD13F4C54F805
:101200002040E56801248C40A5433C4C54F8204024
:10121000E56070E0042494408D00AC40374D55F8F3
:1012200020502D682C43354D55F820502C6062E03D
:10123000324C54F820406468A1F10805AE000F2537
:10124000B540AC432D4D55F820506C601AB1032ABF
:1012500001D0022A11D10124944044F00304A1F1E9
:101260000805AD00AC40254D55F820506D682C4365
:10127000224D55F820506C603DE0012A01D0042A2F
:101280002AD11E4C54F820406468A1F10805AE0034
:101290000825B5402C43194D55F820506C60012AA3
:1012A0000CD1174C256801248C4025EA0403012445
:1012B0008C401C43114D55F82050EC60042A1AD183
:1012C0000E4C54F82040E46801258D40AC430B4D92
:1012D00055F82050EC600EE004249440A1F108057C
:1012E000AD00AC40054D55F820506D682C43034DC2
:1012F00055F820506C6070BD0010024014000020B2
:101300000C08014030B57AB10D4C54F82040E46827
:1013100001258D4024EA050301248C401C43084D1F
:1013200055F82050EC600AE0054C54F82040E46881
:1013300001258D40AC43024D55F82050EC6030BD86
:101340001400002010B501220B210020FFF708FF38
:1013500001220D211046FFF703FF01220421104650
:10136000FFF7FEFE01220F211046FFF7F9FE0122D2
:1013700008210020FFF7F4FE01220D210220FFF7D3
:10138000EFFE01220F210020FFF7EAFE01220F21CC
:101390000220FFF7E5FE10BD7FB500F05BFEFFF712
:1013A0008DFD00224FF4E131012001F02BFBF948C3
:1013B000F94BFA4A01210090F94801F01BF8F54871
:1013C000F54BF64A01210090F64801F013F84FF072
:1013D0007E5000234FF0804219460090F24801F001
:1013E00009F800220E210120FFF7BAFE00220E218B
:1013F0000120FFF787FF00220C210120FFF7B0FE3C
:1014000000220C210120FFF77DFFFFF7AAFAFFF76A
:1014100031FAFFF797FFFEF7A5FFFFF77BF9FFF71C
:10142000E7FC0020039002904220E0490870002071
:1014300001904FF47A70FFF7ADFC05E0C820FFF78C
:10144000A9FCDB4800780390FFF7C7FC0028F5D023
:101450004FF47A70FFF79EFC9DF80C006C2804D0C6
:10146000722803D0732879D10CE100BF0020CF4946
:101470000870002405E000F0A3FE0F20FFF78AFCAF
:10148000641C622CF7DBC948007820B9FFF766FCC2
:101490000220C649087044E0FFF7C8F89DF80C0028
:1014A0006C2802D072283BD11DE0C249C2480068B6
:1014B00002F092FA064601F08FFF21F00041044647
:1014C0000022BE4B01F064FD05D2FFF747FC03206C
:1014D000B649087006E04FF4877000F0C3FE0A209A
:1014E000FFF758FC1CE0B649B348006802F074FAF4
:1014F000064601F071FF21F0004104460022AF4B87
:1015000001F046FD05D2FFF729FC0320A74908702A
:1015100005E05A2000F0A6FE0A20FFF73BFC00BFC2
:1015200000BFA24800780228B6D0A048007803285F
:1015300013D1002405E000F043FE1420FFF72AFC3D
:10154000641C302CF7DB01220E211046FFF7DAFE77
:10155000FFF704FC04209549087005E0FEE3FFF75F
:10156000FDFB3220FFF716FCFFF737FC0128F6D011
:101570008E48007804280BD14FF44870FFF70AFC1E
:1015800005208A49087000220E210120FFF7BAFECB
:1015900025E09DF80C006C280ED0722819D100248B
:1015A00007E08849084600F0CFFE1420FFF7F2FB61
:1015B000641C2D2CF5DB0CE0002407E08149084673
:1015C00000F0C2FE1420FFF7E5FB641C2D2CF5DBB8
:1015D00000BF00BFFFF7C2FB0820744908707348C2
:1015E00000780528D5D028E0FFF720F800217248C0
:1015F000006802F0F1F9064601F0EEFE21F000412C
:1016000004460022704B01F0C3FC05D2FFF7A6FB95
:1016100009206649087010E09DF80C006C2802D083
:10162000722809D104E04FF4B47000F01BFE03E00F
:10163000002000F017FE00BF00BF5C4800780828BB
:10164000D2D00DE0002405E000F0BAFD0F20FFF736
:10165000A1FB641C462CF7DB0A205449087003E008
:10166000524800780928EDD000BF06E0FFF776FB6E
:1016700001220C211046FFF745FE4C4800780A284D
:10168000F4D06BE30B20494908700FE0002405E01B
:1016900000F096FD0F20FFF77DFB641CB92CF7DBF3
:1016A000FFF75CFB0C204149087003E03F480078DD
:1016B0000B28EBD000BF3D4800780C2819D100243E
:1016C00006E05020FFF766FB394800780390641C61
:1016D000102CF6DB9DF80C006C2803D09DF80C0054
:1016E000722803D10D203149087002E018202F49DB
:1016F0000870002405E000F063FD1420FFF74AFBAA
:10170000641C202CF7DB294800780D2804D1FFF752
:1017100025FB0F202549087064E0FEF787FF9DF840
:101720000C006C2802D072285BD11DE021492248B0
:10173000006802F051F9064601F04EFE21F000412A
:10174000044600221D4B01F023FC05D2FFF706FBE7
:1017500010201649087006E04FF4877000F082FDF3
:101760000A20FFF717FB3CE018491348006802F015
:1017700033F9064601F030FE21F000410446002214
:10178000134B01F005FC25D2FFF7E8FA10200749BA
:10179000087025E00000A04000004041000020410A
:1017A0005400002088000020BC0000200100002020
:1017B0003C00002000008743480000200000144047
:1017C0000000B442F8FDFFFF000008400000B242F4
:1017D00000000C40592000F045FD0A20FFF7DAFA1E
:1017E00000BF00BFFA4800780F2896D0F84800786C
:1017F000102813D1002405E000F0E2FC1420FFF7CC
:10180000C9FA641C322CF7DBFFF7A8FA01220E217B
:101810001046FFF777FD1120ED49087005E0FFF74E
:101820009DFA4FF47A70FFF7B5FAFFF7D6FA012860
:1018300003D1E74800781828F1DBE5480078112843
:1018400007D11220E249087000220E210120FFF783
:1018500059FD44E0FEF7EAFE9DF80C006C2802D02A
:1018600072283BD11CE0DB49DB48006802F0B4F889
:10187000064601F0B1FD21F0004104460022D74B9D
:1018800001F086FB05D2FFF769FA1320D0490870F2
:1018900005E0592000F0E6FC0A20FFF77BFA1DE086
:1018A000CF49CD48006802F097F8064601F094FD54
:1018B00021F0004104460022C84B01F069FB05D22B
:1018C000FFF74CFA1320C249087006E040F20D10F1
:1018D00000F0C8FC0A20FFF75DFA00BF00BFBC485B
:1018E00000781228B6D0BA480078132822D10024F4
:1018F0001AE000F065FC1420FFF74CFA0120FFF716
:101900007EFA80B90220FFF77AFA60B90320FFF768
:1019100076FA40B90420FFF772FA20B90520FFF7E4
:101920006EFA00B902E0641C232CE2DB00BF142035
:10193000A7490870A6480078142808D14FF4917080
:10194000FFF728FAFFF70AFA1520A14908702EE0E0
:10195000FEF76CFE0021A048006802F03DF8064644
:1019600001F03AFD21F00041044600229D4B01F0B8
:101970000FFB05D2FFF7F2F916209549087016E023
:101980009DF80C006C2802D072280FD106E00020D0
:1019900000F068FC0A20FFF7FDF907E04FF4B4708F
:1019A00000F060FC0A20FFF7F5F900BF00BF88488F
:1019B00000781528CCD00DE0002405E000F000FCF4
:1019C0001420FFF7E7F9641CC32CF7DB17208049CC
:1019D000087003E07E4800781628EDD000BF06E0CE
:1019E000FFF7BCF901220C211046FFF78BFC784869
:1019F00000781728F4D076480078182819D144F2D6
:101A0000682000F0EFFA44F2682000F007FBC820DD
:101A1000FFF7C0F9002405E000F0D2FB0F20FFF72C
:101A2000B9F9641C4D2CF7DBFFF798F919206849C8
:101A300008706748007819280DD1002406E050206E
:101A4000FFF7A8F9684800780390641C102CF6DBB7
:101A50001A205F4908705E4800781A280AD143F6B8
:101A6000982000F0BFFA43F6982000F0D7FAB4208F
:101A7000FFF790F9002405E000F0A2FB1420FFF727
:101A800089F9641C182CF7DB514800781A2804D116
:101A9000FFF764F91C204E49087044E0FEF7C6FDCC
:101AA0009DF80C006C2802D072283BD11DE04F49F4
:101AB0004948006801F090FF064601F08DFC21F0D6
:101AC000004104460022474B01F062FA05D2FFF7BD
:101AD00045F91D203E49087006E04FF4867000F07D
:101AE000C1FB0A20FFF756F91CE041493A4800685B
:101AF00001F072FF064601F06FFC21F00041044640
:101B00000022364B01F044FA05D2FFF727F91D20D9
:101B10002F49087005E05A2000F0A4FB0A20FFF7C7
:101B200039F900BF00BF2A4800781C28B6D015E05C
:101B300000240CE000F044FB0F20FFF72BF90223F8
:101B40002348027801210846FEF7B8FF641C522C96
:101B5000F0DBFFF703F91E201D4908701C480078D0
:101B60001D28E5D01A4800781E280DD1002406E073
:101B70005020FFF70FF91C4800780290641C102CCD
:101B8000F6DB1F2012490870114800781F280BD17E
:101B900043F6982000F026FA43F6982000F03EFA2B
:101BA0004FF4C870FFF7F6F835E09DF80C006C288C
:101BB00002D0722829D11DE0002405E000F000FBCE
:101BC0001420FFF7E7F8641C142CF7DB1DE000007D
:101BD000010000200000B242480000200000144034
:101BE00000808643000008403C000020000086433F
:101BF0000000B442002405E000F0E2FA1420FFF7F0
:101C0000C9F8641C142CF7DB00BF00BFFFF7A6F86F
:101C10002120EA490870E94800781F28C5D090E0E3
:101C2000FEF704FD9DF80C006C2802D0722843D109
:101C300043E09DF808006C2802D072283BD11DE0DB
:101C4000DF49E048006801F0C7FE064601F0C4FB2A
:101C500021F0004104460022DB4B01F099F905D246
:101C6000FFF77CF82220D549087006E04FF4B470E5
:101C700000F0F8FA0A20FFF78DF81CE0D349D148AC
:101C8000006801F0A9FE064601F0A6FB21F0004124
:101C900004460022CE4B01F07BF905D2FFF75EF837
:101CA0002220C649087005E0B42000F0DBFA0A20C3
:101CB000FFF770F800BF00BF42E09DF808006C28F5
:101CC00002D072283AD11CE0C049BE48006801F039
:101CD00083FE064601F080FB21F00041044600220D
:101CE000BB4B01F055F905D2FFF738F82220B34974
:101CF000087002E0B42000F0B5FA0A20FFF74AF8B5
:101D00001CE00021AF48006801F066FE064601F0C5
:101D100063FB21F0004104460022AD4B01F038F98D
:101D200005D2FFF71BF82220A449087002E000202A
:101D300000F098FA0A20FFF72DF800BF00BF00BF9F
:101D400000BF9E48007821283FF46AAF9B48007886
:101D5000222828D19DF80C006C2800E029E10CD045
:101D6000722815D1002405E000F02AFA1420FFF7AC
:101D700011F8641C2F2CF7DB0AE0002405E000F0CA
:101D80001FFA1420FFF706F8641C332CF7DB00BFA2
:101D900000BF01220E211046FFF7B4FAFEF7DEFF66
:101DA00023208649087005E0FEF7D8FF4FF47A70CB
:101DB000FEF7F0FFFFF711F80128F5D07F48007813
:101DC000232807D124207D49087000220E210120FC
:101DD000FFF798FA25E09DF80C006C280ED07228C9
:101DE00019D1002407E07B49084600F0ADFA142021
:101DF000FEF7D0FF641C2D2CF5DB0CE0002407E07F
:101E00007449084600F0A0FA1420FEF7C3FF641CD2
:101E1000342CF5DB00BF00BFFEF7A0FF2720674989
:101E20000870664800782428D5D044E0FEF7FEFB11
:101E30009DF80C006C2802D072283BD11CE066494A
:101E40006048006801F0C8FD064601F0C5FA21F0BF
:101E5000004104460022614B01F09AF805D2FEF7DA
:101E60007DFF28205549087024E05E2000F0FAF933
:101E70000A20FEF78FFF1DE059495248006801F023
:101E8000ABFD064601F0A8FA21F00041044600220D
:101E90004F4B01F07DF805D2FEF760FF282047493F
:101EA000087007E04FF4877000F0DCF90A20FEF7B5
:101EB00071FF00BF00BF414800782728B6D03F48D7
:101EC0000078282819D143F2C82000F08BF843F29B
:101ED000C82000F0A3F8B420FEF75CFF002405E062
:101EE00000F06EF90F20FEF755FF641C732CF7DB32
:101EF000FEF734FF2A20314908702CE0FEF796FBEC
:101F000000213048006801F067FD064601F064FAE0
:101F100021F00041044600222D4B01F039F805D292
:101F2000FEF71CFF2B202549087014E09DF80C00DB
:101F30006C2802D072280ED106E0002000F092F941
:101F40001920FEF727FF00BF4FF4B47000F08AF9A4
:101F50000420FEF71FFF194800782A28CED016E08B
:101F600042F2107000F03EF842F2107000F056F8A5
:101F7000002405E000F024F90F20FEF70BFF641C9D
:101F8000B4F59D7FF6DD2C200C49087003E00B486A
:101F900000782B28E4D000BF06E0FEF7DFFE012228
:101FA0000C211046FFF7AEF9044800782C28F4D035
:101FB00000BF00BF002004B070BD00000100002081
:101FC0000000B443480000200000084000003443F3
:101FD00000001040F8FDFFFF0000BC4200000C4074
:101FE0000000874310B50446A2B20021084600F065
:101FF0003FFB0948027806210020FFF783F90648D5
:10200000007808B9012000E00020024607210020E6
:10201000FFF778F910BD00000400002010B5044659
:10202000A2B20121002000F023FB09480278002120
:102030000120FFF767F90648007808B9012000E0A1
:102040000020024601210846FFF75CF910BD0000A0
:102050000500002010B54FF47A720021084600F008
:10206000F9F9002206211046FFF77AF8002207212D
:102070001046FFF775F84FF47A720121002000F046
:10208000E9F9002211460120FFF76AF80022012138
:102090000846FFF765F810BD70B505460C46002DE3
:1020A00008DB012011490870284601F02DFB10497A
:1020B000086007E000200D490870684201F024FB29
:1020C0000B490860002C08DB01200A4908702046F3
:1020D00001F01AFB0849086007E000200549087074
:1020E000604201F011FB0449086070BD040000204B
:1020F0005400002005000020880000202DE9F04158
:102100000446D4E9000101F067FCA060206B0128BF
:102110002DD1D4E9020101F05FFC0546616901F0AF
:1021200053FB2062A168A06901F04EFBA0624FF052
:102130008040E16801F048FB0746A16801F041FCDE
:102140000646216901F074F90546E16901F03CFB9E
:102150006062A16A206A01F06BF90646616A01F0CB
:1021600067F90546E16A01F063F9E06221E0206B5E
:10217000F8B9A168606901F027FB2062A168A06935
:1021800001F022FB0546A16A01F052F9A062D4E9F0
:10219000020101F021FC0546E16901F015FB6062D6
:1021A000A16A206A01F044F90546616A01F040F92C
:1021B000E062E1682161A168E160BDE8F0810000B2
:1021C00010B500F0DFFA2148007830B120480068EF
:1021D00001F09AFA1F49486006E01D480068404235
:1021E00001F092FA1B4948601B48007830B11B4847
:1021F000006801F089FA1A49486006E0174800684B
:10220000404201F081FA16494860002010490860F8
:10221000124908600F48FFF771FF1148FFF76EFF82
:102220000C4800F0EFF80E4800F0ECF80949C86AD5
:1022300001F02EFA0446FFF7D5FE0949C86A01F0FD
:1022400027FA0446FFF7EAFE10BD00000400002054
:102250000800002054000020050000200C00002091
:10226000880000202DE9F0410446204601F04CFA98
:102270002D4908602D48006848600846FFF73EFF7A
:102280002949C86A01F004FA07462748C06A80F065
:102290000046304601F0FCF905463946FFF7FCFEE2
:1022A0002348007830B12348006801F02DFA224914
:1022B000486006E01F480068404201F025FA1E49C8
:1022C00048601E48007830B11D48006801F01CFAD3
:1022D0001C49486006E01A480068404201F014FAC0
:1022E00018494860002013490860154908601248E1
:1022F000FFF704FF1348FFF701FF0F4800F096F8BF
:10230000104800F093F80C49C86A01F0C1F905467D
:10231000FFF768FE0B49C86A01F0BAF90546FFF7F6
:102320007DFEBDE8F0810000BC00002048000020D8
:1023300004000020080000205400002005000020B8
:102340000C0000208800002070B504460D46294688
:102350002046FFF7A1FE2148007830B120480068F0
:1023600001F0D2F91F49486006E01D48006840426C
:1023700001F0CAF91B4948601B48007830B11B487E
:10238000006801F0C1F91A49486006E01748006882
:10239000404201F0B9F91649486000201049086030
:1023A000124908600F48FFF7A9FE1148FFF7A6FE83
:1023B0000C4800F027F80E4800F024F80949C86AD4
:1023C00001F066F90646FFF70DFE0949C86A01F0FB
:1023D0005FF90646FFF722FE70BD000004000020F2
:1023E0000800002054000020050000200C00002000
:1023F0008800002010B5029C016342618361C461C2
:1024000010BD000010B504460749E06A01F0A8FAC3
:1024100001D80548E0620021E06A01F0A1F901D885
:102420000020E06210BD00000050434710B5044694
:102430000749E06A01F094FA01D80548E0620021FA
:10244000E06A01F08DF901D80020E06210BD0000C3
:102450000010A4462DE9F04104460D4616462846D4
:10246000E91705EB91718910A5EB8101491CCFB2E9
:102470005148C0690121A14008434F49C8614F48F4
:1024800090FBF6F0401E4E4951F8241088854720F5
:102490004B4951F824100885284600F093F8012F85
:1024A00006D0022F1ED0032F36D0042F69D14DE065
:1024B000434850F82400008B40F06000404951F838
:1024C000241008833E4850F82400008B40F0080098
:1024D0003B4951F8241008830020394951F8241051
:1024E00088864EE0364850F82400008B40F4C04007
:1024F000334951F824100883314850F82400008BE8
:1025000040F400602E4951F82410088300202C4923
:1025100051F82410088734E0294850F82400808BB3
:1025200040F06000264951F824108883244850F870
:102530002400808B40F00800214951F82410888342
:1025400000201F4951F8241088871AE01C4850F8D1
:102550002400808B40F4C040194951F8241088832E
:10256000174850F82400808B40F40060144951F85B
:10257000241088830020124951F82410A1F840004B
:1025800000BF00BF0E4850F82400008C791E8A005E
:102590000121914008430A4951F824100884084851
:1025A00050F82400008840F08100054951F82410BB
:1025B0000880BDE8F08100000010024040420F009A
:1025C0002000002010B504460C2C4FD2DFE804F0A8
:1025D000060C12181E242A30363C424803220021E1
:1025E0000846FEF7BDFD41E0032201210020FEF771
:1025F000B7FD3BE0032202210020FEF7B1FD35E0EC
:10260000032211460020FEF7ABFD2FE00322062136
:102610000020FEF7A5FD29E0032207210020FEF798
:102620009FFD23E0032200210120FEF799FD1DE01C
:10263000032201210846FEF793FD17E0032206213D
:102640000120FEF78DFD11E0032207210120FEF796
:1026500087FD0BE0032208210120FEF781FD05E044
:10266000032209210120FEF77BFD00BF00BF10BD42
:102670002DE9F84F04460D4617462846E91705EBA5
:1026800091718910A5EB8101491C01F0FF084CF202
:102690005030874200DB0746384850F82400868DCA
:1026A000B8F1010F09D0B8F1020F1DD0B8F1030F36
:1026B00031D0B8F1040F5DD144E0701C01F024F872
:1026C0008346384601F038F82D49009000F01EFF8F
:1026D0008246594601F078F8814600F0F5FF274917
:1026E00051F82410888645E0701C01F00DF8009028
:1026F000384601F021F88346214900F007FF824661
:10270000009901F061F8814600F0DEFF1B4951F8A5
:10271000241008872EE0701C00F0F6FF0090384669
:1027200001F00AF88346164900F0F0FE824600994F
:1027300001F04AF8814600F0C7FF104951F8241013
:10274000888717E0701C00F0DFFF0090384600F02B
:10275000F3FF83460A4900F0D9FE8246009901F052
:1027600033F8814600F0B0FF044951F82410A1F875
:10277000400000BF00BFBDE8F88F0000200000202F
:102780000050434710B50420FEF739FB48B9052037
:10279000FEF735FB28B940F20D210846FFF77CFC17
:1027A000D5E00420FEF72BFB50B90520FEF727FBF0
:1027B00030B140F20D2140F20320FFF76DFCC6E07E
:1027C0000420FEF71CFB50B10520FEF718FB30B9C2
:1027D00040F2032140F20D20FFF75EFCB7E003203A
:1027E000FEF70DFB50B10420FEF709FB30B94FF4A2
:1027F00002714FF4FE70FFF74FFCA8E00520FEF7D2
:10280000FEFA50B90620FEF7FAFA30B94FF4FA7121
:102810004FF40270FFF740FC99E00320FEF7EFFA57
:1028200050B90420FEF7EBFA30B14FF402714FF4C7
:10283000FA70FFF731FC8AE00520FEF7E0FA50B1AC
:102840000620FEF7DCFA30B94FF4FA714FF402704B
:10285000FFF722FC7BE00220FEF7D1FA50B90320FB
:10286000FEF7CDFA30B940F226214FF4DC70FFF7C5
:1028700013FC6CE00620FEF7C2FA50B90720FEF701
:10288000BEFA30B94FF4DC7140F22620FFF704FCA9
:102890005DE00220FEF7B3FA50B90320FEF7AFFA6D
:1028A00030B140F23A214FF4D770FFF7F5FB4EE01C
:1028B0000620FEF7A4FA50B10720FEF7A0FA30B9BF
:1028C0004FF4D77140F23A20FFF7E6FB3FE00120DA
:1028D000FEF795FA50B90220FEF791FA30B94FF49D
:1028E00011714FF4BE70FFF7D7FB30E00720FEF701
:1028F00086FA50B90820FEF782FA30B94FF4A57174
:102900004FF41670FFF7C8FB21E00120FEF777FABD
:1029100050B90220FEF773FA30B140F23A214FF479
:10292000AF70FFF7B9FB12E00720FEF768FA48B175
:102930000820FEF764FA28B95A2140F23A20FFF73E
:10294000ABFB04E040F20D210846FFF7A5FB10BDEC
:102950002DE9F04F89B081468A46B9F1000F01D1C7
:102960001F4C00E01F4C4FEA0A1094FBF0FB584646
:1029700000F0FBFACDE90401504600F0DFFA07460B
:102980000022194B00F040FB05460E46204600F0A1
:10299000BBFE074600F020FD2A463346CDE9000184
:1029A00000F074F9CDE90201DDE9042300F02AFC0E
:1029B000CDE9060100F084F808904FF083410898B3
:1029C00000F002FF0890089800F07EFE00EB0B106C
:1029D000064951F82910088109B0BDE8F08F0000C0
:1029E00000A24A0400512502000030402C000020C3
:1029F0000146034A52F821209288D0B27047000065
:102A00002C00002070B504460E46154634B9144813
:102A1000806940F480401249886108E01048C0692C
:102A200004F1100101228A4010430D49C86120467B
:102A300000F01AF831462046FFF78AFF094850F89F
:102A40002400808942F22C010843064951F82410E1
:102A5000888104F12500C1B22846FDF7E5FE70BD6E
:102A6000001002402C00002010B5044624B1012CB7
:102A70000DD0022C21D115E0032209210020FEF700
:102A80006FFB04220A210020FEF76AFB15E00322F7
:102A900002210020FEF764FB042203210020FEF740
:102AA0005FFB0AE003220A210120FEF759FB042202
:102AB0000B210120FEF754FB00BF00BF10BD00003A
:102AC00021F00042A2F16052B2F5801F01F00043F4
:102AD00028BFD2F17F6C0BD95FEA001C43EAC20227
:102AE00042EB507018BF704728BF20F001007047BC
:102AF000B2F5801FBCBF184670474FEA410C1CF569
:102B0000001F02D2084600F026BF70B500F026FB79
:102B100000000089FFF7F6BF4FF00040A0F58000ED
:102B20007047000010B591EA030F48BF83F00043DF
:102B300000F17083841A71EB030C05D2121943EB78
:102B40000C03001B61EB0C01DFF824E14FEA115488
:102B5000A4EB135C1EEA430F18BF9EEA445F73D0D8
:102B600023EA0E03DCF1200E21EA045143F4801322
:102B700032D322FA0CFE10EB0E0023FA0CFE41EBCE
:102B80000E01CCF1200E03FA0EFE10EB0E0051F1F7
:102B90000001B1F5801FCCF1200E32D201EB0451BF
:102BA00012FA0EF2BDE8104058BF7047401C38BF03
:102BB0005FEA420218BF7047002814BF20F00100EE
:102BC00041F100014FEA410313F5001F38BF704780
:102BD000A1F1C04100F010BB012A43EB0302ACF1AC
:102BE000200CDCF11F0E32BF4FF0000E23FA0CF365
:102BF00010EB030041EB0451B4EB115FD0D0A1EB1B
:102C0000045101F5801149085FEA300001EB0451DD
:102C10000ED350F1000038BF12FA0EFE08D1BDE805
:102C20001040C9E7401C38BF5FEA4202CAD1C3E77F
:102C3000BDE810404FEA410313F5001F38BF70474D
:102C4000A1F1C04100F0D8BA9EEA445F08D011EA71
:102C50005E0FBDE8104004BF01F000410020704746
:102C6000BDE8104070B500F079FA00BF64FBBE3ECD
:102C70000000E0FF491058BFC1F140415B1058BF50
:102C8000C3F140438B42EFF3008070472DE9C04110
:102C900030B4DFF8A0C23CEA111418BF3CEA1314A8
:102CA00000F0EC8081EA03051CEA111444EAD574B3
:102CB00018BF1CEA131500F0C780A4EB05044FF001
:102CC000004545EAC12145EAC32341EA505143EAA0
:102CD000525304F17F74994204F500344FEAC02046
:102CE0004FEAC22208BF904200F09C804FEA136571
:102CF0000FF24016765D4FEA134506FB05F7C7F164
:102D0000807706FB07F74FEAD737A7FB03687642C1
:102D1000C8F58038A7FB06CE38BFA8F1010807FB2D
:102D200008E64FF0000EA6FB028CE6FB03CEDCF1BA
:102D3000000CCEF1004E38BFAEF1010EA6FB0C58D0
:102D40004FF000074FF00005E6FB0E87A1FB08C619
:102D5000A0FB07CE16EB0E0645F10005E1FB07656B
:102D600015F1E04E7EBFA4F580345FEA46066D4162
:102D700016F1800745F100054FEA17274FEA06666E
:102D800047EA0567A6F1DE46B6F1805F4FEA1525F2
:102D90001FD9384624F0010C05EBC471BCF1FE6F5D
:102DA00001EB0C1102D8F0BCBDE8008124425CBFED
:102DB00001F5801E9EEAC47F02D4F0BCBDE800810C
:102DC000244238D4F0BCA1F1C041BDE8004100F07C
:102DD00013BA4FEAD22242EA43524FEAD323A7FB67
:102DE00002864FEAD02040EA415007FB03661EEA04
:102DF0000E0F4FEAD12105FB026658BFA6EB005625
:102E0000B6EB00564FEA520E4EEAC37E18EB0E0E9A
:102E100056EB530EBDD518EB02085E417F1C55F1F1
:102E20000005B6E74FF480154FF000074FF000069D
:102E30004FF00008ADE7F0BC4FF0000001F1C041D9
:102E400001F00041BDE8008111EA0C1F0CEA1315E6
:102E500000D00CE013EA0C1F00F025804FF00000BA
:102E6000F0BC81EA030101F00041BDE80081F0BC43
:102E7000BDE8004181EA030100F0BEB9F0BCBDE845
:102E8000004170B500F06AF9097EFC3E00F007B819
:102E900081EA03014FF0000001F00041704781EA30
:102EA000030100F0A9B9F0BCBDE800414FF00000FB
:102EB00021497047FFFDFBF9F7F5F4F2F0EEEDEB79
:102EC000E9E8E6E4E3E1E0DEDDDBDAD8D7D5D4D328
:102ED000D1D0CFCDCCCBCAC8C7C6C5C4C2C1C0BF74
:102EE000BEBDBCBBBAB9B8B7B6B5B4B3B2B1B0AF7A
:102EF000AEADACABAAA9A8A8A7A6A5A4A3A3A2A15E
:102F0000A09F9F9E9D9C9C9B9A9999989797969518
:102F100095949393929191908F8F8E8E8D8C8C8BB4
:102F20008B8A89898888878786858584848383823C
:102F3000828181800000FF070000F87F10F00042CE
:102F400048BF4042B0FA80F310FA03F10AD0C3F14F
:102F50001D0303F580634FEA415002EB035202EB7D
:102F6000D12170474FF000007047B0FA80F310FA9B
:102F700003F10AD0C3F11D0303F580634FEA41500A
:102F80004FEA035202EBD12170474FF00000704727
:102F900051EA030C17D41CF5801F58BFBCF5801FE5
:102FA00000F10680994218BF704708BF90427047F1
:102FB00007D711F5801F58BF13F5801F19D4994208
:102FC0007047894270471CF5801F08D5BCF5801FEB
:102FD000F7D58B4218BF704708BF824270474FF445
:102FE000001C1CEB410F38BF1CEB430F01D28B427E
:102FF000704770B500F0B2F8922449004FF00051CC
:103000004FF08053FFF736BEDFF848C170B51CEAB9
:10301000111E1EBF1CEA13159EEA0C0F95EA0C0F39
:1030200000F06F8081EA030423EA4C134EEAD47E59
:1030300021EA4C1141F4801143F48013AE44A1FB0A
:10304000024CA0FB0365AEF17F7E361955EB0C05F3
:10305000A1FB034C4CF10003A0FB021C16EB0C0679
:10306000654153F10003094218BF46F0010613F40D
:10307000007F0BD14FEA03314FEA0530340341EAB8
:10308000155140EA16506FF003020AE04FEAC321DF
:103090004FEAC520F40241EA555140EA56506FF01C
:1030A000020202EB2E4201EB025585EACE710AD0F4
:1030B0005FEA440C18BF24F0004450F1000041F1D5
:1030C000000120EAD47040F2FE7C624500D270BD5F
:1030D000A84214BF4FF080444FF04044002E08BF78
:1030E0000024BEF1806FA8BFA1F1C041BDE87040CF
:1030F00080F282804FF0000001F1C04101F00041F8
:1031000070479EEA0C0F0CEA131518BF95EA0C0FD6
:1031100006D04FF0000081EA030E0EF0004170BDB2
:1031200000F01CF88900013E00F007B800F009B873
:103130004FEA430C5FEA5C5C08D081EA030100F0CF
:103140005BB84FEA410C5FEA5C5CF6D14FF00000DF
:10315000014970470000FF070000F87F0EF1020EE2
:103160002EF0030E5EF8046B364205D4012A43EBC1
:10317000030515F5001F12D8012841EB010C1CF5C1
:10318000001F0CD80ED14FEAD17C15F5001F0CEBB7
:103190004C0C0CF1020C08BF4CEBD37C04E04FF05C
:1031A000080C01E04FEAD37C0CEB4C0526FA05F63F
:1031B00006F00706B6F1040C06D20EEB860CBDE84D
:1031C00070404CF0010C6047DFE80CF0090B020284
:1031D0004FF000414FF00000A1F5002170BD1946ED
:1031E0001046012851EB010418BFD4F5001484BF28
:1031F000002001F0004170BD0808A0F500114FEA61
:103200003101704710B591EA030F48BF83F00043C6
:103210003FF590AC841A71EB030C07D212198CF0B5
:10322000004C43EB0C03001B61EB0C01DFF8A4E145
:103230004FEA1154A4EB135C1EEA430F18BF9EEA39
:10324000445F00F0B08023EA6E03524221EA045149
:10325000C3EB6E0338BF5B1EDCF1200E25D322FAD0
:103260000CFE10EB0E0043FA0CFE41EB0E01CCF10C
:10327000200E03FA0EFE10EB0E0051F10001CCF10E
:10328000200E29D412FA0EF201EB0451BDE81040D1
:1032900058BF7047401C1CBFB2F1004F7047002858
:1032A0000CBF491C20F00100704712EB020E43EBEB
:1032B000030218BF4FF0010E4EEA4202ACF1200C9F
:1032C000DCF11E0E54D943FA0CFE10EB0E0051F146
:1032D000FF31CCF11E0ED5D50EF1010E12FA0EFE05
:1032E000404141EB010101EB445C5FEA5C5C10D9B9
:1032F00010EBDE7001EB045138BFBEF1004FBDE8AA
:10330000104018BF704700280CBF491C20F0010076
:10331000704730D24FEAD42C11F5001124F4006428
:103320001BD0B1FA81F20B3AA41AA41ED2F12003E9
:10333000914030FA03F31943904001EBCC71002C1B
:1033400001EB0451BDE81040A8BF704701F1C04136
:103350004FF0000001F000417047B0FA80F310FA1E
:1033600003F100D110BDE41A173C4805C90AE4E78F
:1033700001EB045110BD491001EB0451BDE81040B0
:103380004FEA300002E04FF0000170474A0008BFEA
:103390000042F8D0B2F5001F28BF704701F000418D
:1033A0004FF0000070479EEA445F07D011EA5E0FBD
:1033B000BDE8104004BF002100207047BDE8104068
:1033C00070B5FFF7CBFE00BF40DFF63E83F0004153
:1033D000104670470000E0FF43004FEAD30C4FEA6D
:1033E0003C0C43401FBF40070CF1605113F0FE4FEF
:1033F00070471CF0006F03D100200CF000417047B3
:103400000CF0004343EA507010B540EACC0000F0E5
:103410005CFA00BF000000924FEA0001FFF7ECBE2B
:103420004FF000414FF00000A1F50021704700006F
:1034300090EA010F48BF81F0004100F1D482421AA6
:103440003CBF801A89184FEAD0524FF07F4C1CEADB
:10345000410FA2EBD15318BF9CEA026F00F03B80F2
:103460004FF0004C4CEA00204CEA012121FA03FC09
:1034700010EB0C0C1ED202F1FF325FEA1C2040EB75
:10348000C25038BF70471CF07F0F4FEA400C18BF86
:10349000BCF17F4F38BF7047C3F12003994008BF8C
:1034A00020F00100BCF17F4F38BF7047A0F1C04051
:1034B00000F051BA4FEA3C00000A40EBC25028BF6E
:1034C0001CF0FF0F4FEA400CE6D018BFBCF17F4F55
:1034D00038BF7047EAE79CEA026F05D010EA5C0F3C
:1034E00008BF00F00040704710B500F0EEF900BFD3
:1034F00064FBBE3E401058BFC0F14040491058BF69
:10350000C1F140418142EFF3008070474FF47F0CDE
:103510001CEAD0121EBF1CEAD11392EA0C0F93EAE8
:103520000C0F00F0858090EA010F48BF42F48072D2
:1035300040F4000C41F400002CF07F4120F07F406B
:1035400000B58142A2EB03020FF2081CACEB504E17
:10355000C0F100009EF800E04FEA4E0E00FB0EFCAA
:1035600038BF49004FEA2C1C02F5FA020CFB0EF39F
:103570004FEACE1E4FEA112C4FEAC1210EEB635EDB
:1035800042EB22420EFB0CFC4FEA1C5300FB0311E2
:103590004FEA112C4FEA01310EFB0CFC4FEADC4CD8
:1035A00000FB0C11C14228BF09184CEB03335DF836
:1035B00004EB10EB410143EBC250B2F57C0F38BF76
:1035C000704729D512F0F00F1CBF00F1C04000F089
:1035D00000407047008182838485868788898B8C30
:1035E0008D8E8F919293959697999A9C9D9FA0A26C
:1035F000A3A5A7A8AAACAEB0B2B3B5B7B9BCBEC0BC
:10360000C2C5C7C9CCCED1D4D7D9DCDFE2E6E9EC5C
:10361000F0F3F7FAFE0000004FEA400C0CF1807C5A
:10362000BCF17E4F28BF7047B0F1C04000F093B9A5
:1036300090EA010F0CEAD11348BF42F48072624550
:1036400038BF634507D213F47F0F16D080EA01001C
:1036500000F00040704710B500F037F9097EFC3EDD
:1036600000F005B880EA010000F00040704780EAF1
:10367000010000F0004000F06EB912F47F0F04BFAB
:103680000248704780EA010000F065B90000C07F81
:1036900041000B0ED3F19E0208D950F400034FEA0B
:1036A000032323FA02F048BF4042704710B500F0F0
:1036B0000CF900BF49922480002070476FF000424F
:1036C00082EA200070470000C10DD1F19E0206DBA6
:1036D0004FEA002343F0004323FA02F07047004210
:1036E00007D54FEA4001B1F1FE4F02D24FF0000082
:1036F000704710B500F0E9F8499224800020704727
:103700006FEA20007047000010F0004148BF4042BF
:10371000B0FA80F310FA03F2C3F19D030BD051EA23
:10372000C35101EB1220530638BF704700F101006E
:1037300008BF20F001007047B0FA80F310FA03F2DE
:10374000C3F19D030AD0D90501EB1220530638BFFF
:10375000704700F1010008BF20F001007047000031
:1037600050EA010C00F113801CF5000F58BFBCF5A6
:10377000000F01D48842704707D710F5000F58BFDB
:1037800011F5000F15D488427047894270471CF527
:10379000000F04D5BCF5000FF7D5814270474FF0FC
:1037A000807C1CEB400F38BF1CEB410F01D28142E3
:1037B000704710B500F089F8922449004FF000508E
:1037C0004FF08051FFF796BE4FF47F0C1CEAD012E9
:1037D0001EBF1CEAD11392EA0C0F93EA0C0F00F003
:1037E000478090EA010F48BF42F480724FF0004CCE
:1037F0004CEA00204CEA012102EB0302A0FB01137A
:10380000A2F50002002918BF43F001035B0028BFA6
:103810004FEA330342EB22425FEA132C4CEBC250D7
:103820002EBFBCEB436FB2F57C0F70474FEA036CC1
:10383000BCF1004F08BF20F00100B2F57C0F38BF8B
:1038400070470BD582F0FF0212F5803FC8BF70476A
:1038500000F1C040D8BF00F00040704700F5000CF8
:103860005FEA4C0C48BF7047B0F1C04000F073B83D
:1038700090EA010F0CEAD11348BF42F4807262450E
:1038800038BF634504D280EA010000F00040704771
:1038900010B500F01AF800BF8900013E00F007B82B
:1038A00000F009B85FEA410C5FEA1C6C08D080EABE
:1038B000010000F050B85FEA400C5FEA1C6CF6D1E2
:1038C0004FF00040A0F5800070470EF1020E2EF080
:1038D000030E5EF8044B244204D44FEA4102B2F1D5
:1038E0007F4F11D84FEA4003B3F17F4F0CD80ED170
:1038F0004FEAD07CB2F17F4F0CEB4C0C0CF1020C78
:1039000008BF4CEBD17C04E04FF0080C01E04FEA1B
:10391000D17C0CEB4C0324FA03F404F00704B4F15B
:10392000040C06D20EEB840CBDE810404CF0010CE8
:103930006047DFE80CF0070802024FF00040A0F5F6
:10394000800010BD0846420018BFD2F1807288BFC7
:1039500000F0004010BDFF2141EAD050C005704783
:1039600051EA000C00F113801CF5000F58BFBCF5A4
:10397000000F01D48142704707D711F5000F58BFDF
:1039800010F5000F15D481427047894270471CF52D
:10399000000F04D5BCF5000FF7D5884270474FF0F3
:1039A000807C1CEB410F38BF1CEB400F01D28842DA
:1039B000704780EA010081EA000180EA0100FFF718
:1039C000F8BE80F0004090EA010F7FF538AD81F03D
:1039D000004100F008B8000090EA010F48BF81F0F4
:1039E00000413FF52CAD421A04D882F00042A0EB12
:1039F000020011444FEAD0524FF07F4C1CEA410FB5
:103A0000A2EBD15318BF9CEA026F4AD04FF0004C92
:103A10004CEA00204CEA012121FA03FCB0EB0C0C2B
:103A20000FD412F0FE0F36D05FEA4C001DD5001205
:103A300040EBC25038BF70471CF03F0F18BF7047B3
:103A40000BE0A2F101025FEA1C2040EBC25038BF3C
:103A500070471CF07F0F18BF7047C3F120039940D7
:103A600014BF401E20F00100704780084FEA122367
:103A700008BF7047B0FA80FCA2EB0C02CCF1280C16
:103A800060FA0CF093EA122F04BF00EBC2507047AB
:103A90004FEAC3707047130A5FEADC1008BF704733
:103AA000F6E79CEA026F04D010EA5C0F08BF002022
:103AB000704710B5FFF709FF40DFF63E81F0004088
:103AC000704700000000000000000000000000003F
:103AD0000000000000F8000000000000003330008B
:103AE000000000100C06100C060000000000000092
:103AF000000040C07840C0784000043F04043F0408
:103B00000400007088FC08300000001820FF211E0F
:103B10000000F008F000E018000000211C031E2146
:103B20001E0000F00888700000001E2123241927C1
:103B3000211010160E000000000000000000000020
:103B40000000000000E01804020000000007182038
:103B5000400000020418E0000000004020180700A8
:103B60000000404080F0804040000202010F01024E
:103B70000200000000F0000000000101011F01012F
:103B80000100000000000000000080B07000000094
:103B90000000000000000000000000010101010120
:103BA00001010000000000000000003030000000B3
:103BB000000000000000806018040060180601008A
:103BC000000000E010080810E000000F1020201096
:103BD0000F00001010F8000000000020203F2020FF
:103BE0000000007008080888700000302824222196
:103BF000300000300888884830000018202020114C
:103C00000E000000C02010F8000000070424243F2C
:103C1000240000F8088888080800001921202011D5
:103C20000E0000E0108888180000000F11202011FD
:103C30000E0000380808C83808000000003F0000E7
:103C400000000070880808887000001C22212122D2
:103C50001C0000E010080810E000000031222211D2
:103C60000F00000000C0C000000000000030300065
:103C700000000000008000000000000080600000E4
:103C8000000000008040201008000001020408101D
:103C9000200040404040404040000404040404042C
:103CA00004000008102040800000002010080402DA
:103CB0000100007048080808F000000000303601DC
:103CC0000000C030C828E810E0000718272423149B
:103CD0000B000000C038E0000000203C2302022757
:103CE000382008F8888888700000203F20202011A4
:103CF0000E00C030080808083800071820202010DF
:103D0000080008F808080810E000203F20202010D4
:103D10000F0008F88888E8081000203F20202320A2
:103D2000180008F88888E8081000203F20000300E9
:103D30000000C03008080838000007182020221EA4
:103D4000020008F808000008F808203F21010121BE
:103D50003F20000808F8080800000020203F20202D
:103D6000000000000808F8080800C08080807F007C
:103D7000000008F888C028180800203F20012638D5
:103D8000200008F8080000000000203F202020202C
:103D9000300008F8F800F8F80800203F003F003F26
:103DA000200008F830C00008F808203F200007185D
:103DB0003F00E01008080810E0000F10202020103D
:103DC0000F0008F808080808F000203F2101010151
:103DD0000000E01008080810E0000F1824243850F4
:103DE0004F0008F8888888887000203F2000030C66
:103DF000302000708808080838000038202121226F
:103E00001C00180808F8080818000000203F2000CF
:103E1000000008F808000008F808001F20202020F3
:103E20001F000878880000C83808000007380E0115
:103E30000000F80800F80008F800033C0700073C01
:103E40000300081868808068180820302C03032CB1
:103E500030200838C800C83808000000203F200083
:103E6000000010080808C838080020382621202043
:103E70001800000000FE020202000000007F404027
:103E80004000000C30C000000000000000010638B7
:103E9000C00000020202FE000000004040407F001F
:103EA0000000000004020202040000000000000004
:103EB0000000000000000000000080808080808002
:103EC00080800002020400000000000000000000EA
:103ED000000000008080808000000019242222223F
:103EE0003F2008F8008080000000003F11202011D2
:103EF0000E000000008080800000000E11202020B5
:103F00001100000000808088F800000E11202010B1
:103F10003F200000808080800000001F222222229B
:103F20001300008080F0888888180020203F20201F
:103F300000000000808080808000006B9494949347
:103F4000600008F8008080800000203F21000020F1
:103F50003F2000809898000000000020203F202093
:103F60000000000000809898000000C08080807FE2
:103F7000000008F8000080808000203F24022D30DF
:103F80002000000808F8000000000020203F20204A
:103F900000008080808080808000203F20003F20C3
:103FA000003F8080008080800000203F21000020B2
:103FB0003F200000808080800000001F2020202003
:103FC0001F00808000808000000080FFA120201161
:103FD0000E000000008080808000000E112020A0D4
:103FE000FF80808080008080800020203F21200092
:103FF000010000008080808080000033242424247D
:104000001900008080E0808000000000001F202058
:1040100000008080000000808000001F2020201011
:104020003F20808080000080808000010E300806E4
:10403000010080800080008080800F300C030C30F5
:104040000F0000808000808080000020312E0E3123
:104050002000808080000080808080818E70180623
:10406000010000808080808080000021302C22218F
:10407000300000000000807C020200000000003FD1
:10408000404000000000FF00000000000000FF00B2
:1040900000000002027C800000000040403F000061
:1040A00000000006010102020404000000000000FC
:1040B00000000000D4400008000000205400000070
:1040C000280100082841000854000020FC060000D8
:1040D0004401000800000000010100000000000091
:1040E000000000000000000000080140000C01403A
:1040F00000100140000000400004004000080040A3
:10410000003801400044004000480040000000002A
:10411000000000000000000000000000000000009F
:08412000000000000000000097
:04000005080000ED02
:00000001FF
