:020000040800F2
:10000000F007002089010008910100089301000811
:100010009501000897010008990100080000000000
:100020000000000000000000000000009B0100082C
:100030009D010008000000009F010008A1010008C8
:10004000A3010008A3010008A3010008A301000800
:10005000A3010008A3010008550200086D02000872
:1000600085020008C1020008D9020008A3010008A7
:10007000A3010008A3010008A3010008A3010008D0
:10008000A3010008A3010008A3010008A3010008C0
:10009000A3010008A3010008A3010008150300083C
:1000A000A3010008A3010008A3010008A3010008A0
:1000B000A10D0008C10D0008E50D0008A30100080E
:1000C000A3010008A3010008A3010008A301000880
:1000D000A3010008010E00081D0E0008390E0008DB
:1000E000A3010008A3010008A301000800F002F822
:1000F00000F03AF80AA090E8000C82448344AAF188
:100100000107DA4501D100F02FF8AFF2090EBAE885
:100110000F0013F0010F18BFFB1A43F0010318473B
:10012000802B0000A02B0000103A24BF78C878C1B3
:10013000FAD8520724BF30C830C144BF04680C60ED
:10014000704700000023002400250026103A28BF35
:1001500078C1FBD8520728BF30C148BF0B60704739
:100160001FB51FBD10B510BD00F046F81146FFF7D2
:10017000F7FF01F0C9F900F064F803B4FFF7F2FFEC
:1001800003BC00F0DDFE0000094880470948004735
:10019000FEE7FEE7FEE7FEE7FEE7FEE7FEE7FEE737
:1001A000FEE7FEE704480549054A064B7047000094
:1001B000410D0008ED000008F0010020F0070020CC
:1001C000F0030020F003002070477047704770472D
:1001D000704710B500F008F8006810BD10B504466F
:1001E00000F002F8046010BD004870479001002044
:1001F00000487047900100207546FFF7F9FFAE46B2
:1002000005006946534620F00700854618B020B522
:10021000FFF7C8FFBDE820404FF000064FF0000791
:100220004FF000084FF0000B21F00701AC46ACE89E
:10023000C009ACE8C009ACE8C009ACE8C0098D460B
:10024000704710B50446AFF300802046BDE810406B
:10025000FFF793BF0448006800F0010010B10120CF
:100260000149086070470000140401400448006818
:1002700000F0020010B10220014908607047000040
:100280001404014010B50C48006800F0040090B15F
:100290000321002001F034F828B108480068401E0E
:1002A0000649086004E005480068401C03490860EE
:1002B00004200149086010BD14040140040000201E
:1002C0000448006800F0080010B1082001490860E7
:1002D000704700001404014010B50C48006800F09D
:1002E000100090B10521002001F00AF828B108485B
:1002F0000068401C0649086004E005480068401E8C
:100300000349086010200149086010BD1404014031
:10031000080000202DE9FF5FB548006800F02000CC
:1003200010B12020B2490860B148006800F04000D8
:1003300010B14020AE490860AD48006800F0800070
:1003400000287CD000F00CFB00F088F9A948B0F937
:10035000000002F0FDF9019002F062F84FF0663201
:10036000A54BCDE9020101F0D3FC8046A34AA44B82
:1003700001F062FE06460F46A248006802F050F8FF
:10038000824632463B4601F007FC044601F0D2FBB0
:100390009C4908609C48B0F9000002F0D9F901902E
:1003A00002F03EF880464FF06632934B01F0B0FC0D
:1003B0000646924A924B01F03FFE82468B46934896
:1003C000006802F02DF852465B46CDE9020101F0CB
:1003D000E3FB044601F0AEFB8C4908608C48B0F9A1
:1003E000000002F0B5F9019002F01AF882464FF0D1
:1003F0006632814B01F08CFC8046804A804B01F0D4
:100400001BFECDE902018348006802F009F80646A8
:10041000DDE9022301F0C0FB044601F08BFB7D49BE
:1004200008607D48B0F9000002F092F983467B48ED
:10043000B0F9000002F08CF95946039000E0C3E0E7
:1004400002F088F8824601F0EBFF804600F07AFD6A
:100450000646734A734B01F0EFFD044601F06AFB58
:10046000714908606C48B0F9000002F071F98346E8
:100470006E48B0F9000002F06BF95946039002F0A3
:1004800069F8824601F0CCFF804600F05BFD81F008
:1004900000410646624A634B01F0CEFD044601F07E
:1004A00049FB634908606148B0F9000002F050F967
:1004B00083465A48B0F9000002F04AF959460390C1
:1004C00002F048F8824601F0ABFF064600F03AFD24
:1004D0000446534A534B01F0AFFD804601F02AFB1E
:1004E000544908605448B0F9000002F031F9039013
:1004F00001F096FF804689465048B0F9000002F0AE
:1005000027F9039001F08CFF064642464B4600F067
:1005100029FE0446424A434B01F08EFD824601F01B
:1005200009FB474908603348B0F9000002F010F9B0
:10053000814601F075FF07464FF066322E4B01F001
:10054000E7FB054601F0F6FA044622463648016804
:100550003C4800F064F93C4908602B48B0F90000C1
:1005600002F0F6F8814601F05BFF07464FF0663275
:10057000214B01F0CDFB054601F0DCFA0446224692
:100580002B480168314800F04AF931490860204899
:10059000B0F9000002F0DCF8814601F041FF0746A7
:1005A0004FF06632144B01F0B3FB054601F0C2FA7E
:1005B0000446224622480168264800F030F92649C0
:1005C000086080200A4908600948006800F48070CB
:1005D00018B14FF48070064908600548006800F4BF
:1005E000007018B14FF4007001490860BDE8FF9F2A
:1005F00014040140BE000020666630407B14AE4704
:10060000E17A743FC4000020C0000020C800002030
:10061000C2000020CC000020BC000020BA00002056
:10062000D9CEF753E3A54C40D0000020B8000020FD
:10063000D4000020D8000020EA000020E8000020BC
:10064000F000002040000020DC00002070000020AE
:10065000E000002010000020E400002070B503201E
:1006600000F02CF80446042000F028F8054645EA7E
:10067000042000B20E490880072000F01FF804464D
:10068000082000F01BF8054645EA042000B209499D
:100690000880052000F012F80446062000F00EF84D
:1006A000054645EA042000B20349088070BD0000F9
:1006B000E8000020EA000020EC00002070B50446AD
:1006C00000F06EF83C2000F04AF800F090F8204668
:1006D00000F045F800F08BF800F078F800F060F8D2
:1006E0003D2000F03CF800F082F800F018F80546D4
:1006F00000F004F800F06AF8284670BD10B5012239
:100700000B21104600F0E0FE01220A21104600F005
:10071000DBFE00220A21012000F0D6FE10BD70B5DC
:10072000002501220B21104600F0CEFE002412E02D
:1007300001220A21104600F0C7FE0B21012000F023
:10074000DFFD10B180202041054300220A21012055
:1007500000F0BAFE641C082CEADB284670BD70B5B8
:100760000546002419E080202041284028B10122BC
:100770000B21104600F0A8FE04E000220B2101200E
:1007800000F0A2FE01220A21104600F09DFE002288
:100790000A21012000F098FE641C082CE3DB70BDE8
:1007A00010B501220B21104600F08EFE01220A2115
:1007B000104600F089FE00220B21012000F084FE8B
:1007C00000220A21012000F07FFE10BD10B500229A
:1007D0000B21012000F078FE01220A21104600F0D2
:1007E00073FE01220B21104600F06EFE10BD10B505
:1007F000002401220B21104600F066FE01220A218E
:10080000104600F061FE0B21012000F079FD044646
:1008100000220A21012000F057FE204610BD2DE9DC
:10082000F05F04460D4616463046E16A02F0F8F8DD
:100830008046E16901F0ECFF0746A16A01F01CFE69
:10084000A062E06AE062D4E9060101F0E1FF8246BD
:10085000E16901F0DDFF8046D4E9040101F00CFEFE
:100860008346E16901F0D4FF8246E16802F0CDF8E9
:100870008146414601F000FE0746216801F0FCFD7B
:10088000E060D4E9060101F0C3FF0746216902F0E8
:10089000BCF82061D4E9060101F0BAFF074661699E
:1008A00002F0B3F860616168A06901F0E5FDA06144
:1008B000D4E9021001F0E0FD07463946E06801F096
:1008C00049FE2062D4E9021001F0D6FD0746394600
:1008D000606901F03FFE60622846A16A02F0A0F85C
:1008E0008046216A01F094FF0746A16A01F0C4FD29
:1008F000A0622846A16A02F093F88046616A01F07E
:1009000087FF0746E16A01F0B7FDE0624FF07E50D5
:10091000216A02F085F80746E16801F079FFE0609E
:100920004FF07E50216A02F07BF80746216901F002
:100930006FFF2061616AE06801F06AFF0746616944
:1009400002F063F86061616A206901F061FF0746A7
:10095000A16902F05AF8A061A06ABDE8F09F00000A
:1009600070B53B2000F058F804463C2000F054F8E5
:10097000054645EA042000B2214908803D2000F0E8
:100980004BF804463E2000F047F8054645EA0420AF
:1009900000B21C4908803F2000F03EF80446402089
:1009A00000F03AF8054645EA042000B216490880EE
:1009B000432000F031F80446442000F02DF80546AD
:1009C00045EA042000B211490880452000F024F8CF
:1009D0000446462000F020F8054645EA042000B20F
:1009E0000B490880472000F017F80446482000F023
:1009F00013F8054645EA042000B20649088070BD98
:100A0000B8000020BA000020BC000020BE0000207A
:100A1000C0000020C200002070B50446FFF7C0FEF1
:100A2000D020FFF79CFEFFF7E2FE2046FFF797FE7F
:100A3000FFF7DDFEFFF7CAFEFFF7B2FED120FFF79A
:100A40008EFEFFF7D4FEFFF76AFE0546FFF756FE5F
:100A5000FFF7BCFE284670BD70B500240EE00021F3
:100A6000204600F0C7F8002504E0002000F0E3F87D
:100A7000681CC5B2802DF8DB601CC4B2082CEEDB0C
:100A800070BD10B502220821012000F04BFC0222AB
:100A90000921012000F046FC01220821104600F047
:100AA00013FD01220921104600F00EFD10BD70B5A6
:100AB0000546002413E08020204100EA05020921B8
:100AC000012000F001FD01220821104600F0FCFC8D
:100AD00000220821012000F0F7FC601CC4B2082CA1
:100AE000E9DB01220821104600F0EEFC002208217B
:100AF000012000F0E9FC70BD10B50122092110466B
:100B000000F0E2FC01220821104600F0DDFC00228A
:100B10000921012000F0D8FC00220821012000F06A
:100B2000D3FC10BD10B500220921012000F0CCFC3F
:100B300001220821104600F0C7FC012209211046BD
:100B400000F0C2FC10BD70B5002406E0002500E0F6
:100B50006D1CB5F57A7FFBD3641CB4F57A7FF5D3B1
:100B6000FFF78FFFAE2000F056F8D52000F053F8C5
:100B7000802000F050F8A82000F04DF83F2000F051
:100B80004AF8D32000F047F8002000F044F8402055
:100B900000F041F8A12000F03EF8C82000F03BF83A
:100BA000DA2000F038F8122000F035F8812000F04B
:100BB00032F8CF2000F02FF8D92000F02CF8F120E7
:100BC00000F029F8DB2000F026F8302000F023F8B0
:100BD000A42000F020F8A62000F01DF88D2000F0E1
:100BE0001AF8142000F017F8AF2000F014F8FFF7FF
:100BF00033FF70BD70B505460C4645F0B00000F0FF
:100C00000AF8102141EA141000F005F804F00F0072
:100C100000F001F870BD10B50446FFF76DFF7820B5
:100C2000FFF745FF0020FFF742FF2046FFF73FFF99
:100C3000FFF778FF10BD10B50446FFF75DFF782081
:100C4000FFF735FF4020FFF732FF2046FFF72FFF69
:100C5000FFF768FF10BD10B500F002F810BD0000EE
:100C60000CB50020019000903348006840F48030BB
:100C70003149086000BF3048006800F4003000903F
:100C80000198401C0190009818B90198B0F5A06F28
:100C9000F1D12948006800F4003010B10120009023
:100CA00001E0002000900098012843D1234800680B
:100CB00040F01000214908600846006820F0030059
:100CC00008600846006840F0020008601A48406862
:100CD000194948600846406848600846406840F442
:100CE000806048600846406820F47C1048600846F0
:100CF000406840F4E81048600846006840F08070A2
:100D0000086000BF0C48006800F000700028F9D0AF
:100D10000948406820F003000749486008464068D9
:100D200040F00200486000BF0348406800F00C003B
:100D30000828F9D10CBD000000100240002002403C
:100D400010B51348006840F00100114908600846DA
:100D50004068104908400E494860084600680E493E
:100D600008400B4908600846006820F480200860AD
:100D70000846406820F4FE0048604FF41F00886079
:100D8000FFF769FF4FF000600449086010BD0000E4
:100D9000001002400000FFF8FFFFF6FE08ED00E043
:100DA0004FF08040008A00F0010038B14FF08040E1
:100DB000008A20F001004FF0804108827047000057
:100DC00010B50748008800F0010038B100F098FC29
:100DD0000348008820F001000149088010BD000090
:100DE000100400400548008800F0010028B10348C5
:100DF000008820F001000149088070471008004079
:100E00000548008800F0200028B10348008820F041
:100E100020000149088070470038014005480088DB
:100E200000F0200028B10348008820F0200001498C
:100E300008807047004400400548008800F020000A
:100E400028B10348008820F020000149088070473D
:100E500000480040490050EAC12018BF04204A0D54
:100E600018BF40F0010040F2FF72B2EB515F08BFC3
:100E700040F00200012808BF052070472DE9F0412D
:100E80004F1E00EBC7010446D1E9000115461E467E
:100E900037F006020DD02A46334601F0CDF87F1E0A
:100EA00004EBC703D3E9002300F076FE37F0060217
:100EB000F1D1022F25D0042F13D0062F18BFBDE883
:100EC000F0812A46334601F0B7F8D4E90A2300F04E
:100ED00063FE2A46334601F0AFF8D4E9082300F058
:100EE0005BFE2A46334601F0A7F8D4E9062300F05A
:100EF00053FE2A46334601F09FF8D4E9042300F05C
:100F00004BFE2A46334601F097F8D4E9022300F05D
:100F100043FE2A46334601F08FF8D4E90023BDE8AA
:100F2000F04100F039BE012201F021BE00F034BED4
:100F3000024A0020110701F01ABE000001FDFFFF68
:100F400000BF70472DE9F84F04460D4621F00040E0
:100F500000917349814211DC7249884201DC06D15B
:100F60002CB120462946BDE8F84FFFF7DCBF6E489C
:100F7000002DCCBF6D496E49BDE8F88F6D498142A7
:100F800011DD6D498142D8BF4FF0FF366DDD20463F
:100F90002946FFF75FFF042808BFFFF7C9FF204677
:100FA0002946BDE8F88F6549654F25F00045814227
:100FB00033DD6449814219DD002632464FF080431B
:100FC0002046294600F0E8FD80468A460122204658
:100FD000294601F0CCFD00223B4601F037F942469C
:100FE000534600F095FE04460D463EE001260022E1
:100FF000BA463B462046294600F0CEFD80460F46C5
:10100000002253462046294601F020F942463B463D
:1010100000F07EFE04460D4627E04B4981421BDD71
:10102000DFF828A10226002253462046294601F077
:1010300003F800223B4600F0AFFD80460F46002239
:1010400053462046294601F001F942463B4600F04E
:101050005FFE04460D4608E0032622462B4600208C
:101060003B4900F055FE04460D4622462B461046ED
:10107000194600F0E1FF8B46824602460B4600F01F
:10108000DBFF07460246334888460B460621784474
:10109000FFF7F4FE52465B4600F0CEFF82462E4834
:1010A0008B463A46434605217844FFF7E7FE3A4629
:1010B000434600F0C1FF02460B46002E50465946FB
:1010C0000CDA00F069FD22462B4600F0B5FF01B0B6
:1010D00022462B46BDE8F04F01F0ACB800F05CFDB5
:1010E00022462B4600F0A8FF1C4A7A4402EBC603B6
:1010F000D3E9002301F0AAF822462B4601F0A6F816
:10110000174A7A4402EBC603D3E9002301F092F8B0
:10111000009A002AB8BF81F00041BDE8F88F0000B6
:10112000000010440000F07F182D4454FB21F93FCB
:10113000FB21F9BF0000DC3F0000203E0000F33F30
:101140000000F03F0000E63F008003400000F83F51
:101150000000F0BFD61B0000941B0000321B0000F3
:10116000FA1A00002DE9F04D9446CCF1000423F06A
:1011700000464CEA0404594F46EAD4749A4688461D
:1011800021F00042BC4206D8454240EA050442EA4A
:10119000D474BC4204D9BDE8F04D6246FFF7C6BE28
:1011A000AAF14055A5F17F6555EA0C040BD0022445
:1011B00004EAAA744A4DDFF82CE144EAD87452EAF2
:1011C000000B04D00CE0BDE8F04DFFF7BBBE002CD7
:1011D00014BF012CBDE8F08D022C30D0032C32D08E
:1011E00056EA0C0B0AD0BE4220D1BA4209D126F0F1
:1011F000804622F080423346114617E000291ADB70
:1012000025E0DFF8E4B0FB44002C04BFDBE900017B
:10121000BDE8F08D012C02BFDBE9000181F0004147
:10122000BDE8F08D022C0AD0032C0CD0BA4212D1AA
:10123000B8F1000F0BDA2A482C49BDE8F08D28469A
:101240002B49BDE8F08D28467146BDE8F08D244855
:101250002849BDE8F08D921B12153C2AC4BF204FCF
:10126000244E10DCBAF1000FBEBF12F13C0F002774
:101270003E4608DB624600F04BFD21F00041FFF7DF
:1012800061FE07460E4694B1012C08BF86F0004669
:101290000DD0194A194B022C3846314615D000F0B2
:1012A000D5FF2A46BDE8F04D114B00F0CFBF00221C
:1012B00013463846314600F083FE04BF0220FEF795
:1012C0008DFF38463146BDE8F08D00F0BFFF2A465D
:1012D000BDE8F04D064B00F0ADBF00000000F07F10
:1012E000182D4454FB2109C08E1A0000FB21F9BFC0
:1012F000FB210940FB21F93F075C143326A6A13CE2
:1013000010B50246064850F82200806801248C403F
:1013100000EA04030BB1012010BD0020FCE700002F
:10132000A000002070B5654CA469042585402C43BD
:10133000624DAC6108295DDA614C54F820402468A4
:101340008E000F25B540AC435D4D55F820502C6004
:101350001AB1032A01D0022A0FD10124944044F08B
:1013600003048D00AC40564D55F820502D682C4399
:10137000534D55F820502C609FE0012A01D0042ADB
:101380002AD14F4C54F8204024688E000825B540DF
:101390002C434B4D55F820502C60012A0ED1484C5F
:1013A00054F82040E46801258D4024EA0503012417
:1013B0008C401C43424D55F82050EC60042A7CD1EF
:1013C0003F4C54F82040E56801248C40A5433C4C38
:1013D00054F82040E56070E0042494408D00AC4057
:1013E000374D55F820502D682C43354D55F8205079
:1013F0002C6062E0324C54F820406468A1F108058A
:10140000AE000F25B540AC432D4D55F820506C6013
:101410001AB1032A01D0022A11D10124944044F0C8
:101420000304A1F10805AD00AC40254D55F820504E
:101430006D682C43224D55F820506C603DE0012A28
:1014400001D0042A2AD11E4C54F820406468A1F12E
:101450000805AE000825B5402C43194D55F820501D
:101460006C60012A0CD1174C256801248C4025EAB8
:10147000040301248C401C43114D55F82050EC60AE
:10148000042A1AD10E4C54F82040E46801258D40FE
:10149000AC430B4D55F82050EC600EE00424944012
:1014A000A1F10805AD00AC40054D55F820506D6820
:1014B0002C43034D55F820506C6070BD0010024065
:1014C000A00000200C08014030B57AB10D4C54F852
:1014D0002040E46801258D4024EA050301248C4066
:1014E0001C43084D55F82050EC600AE0054C54F8B8
:1014F0002040E46801258D40AC43024D55F8205052
:10150000EC6030BDA0000020FFF71DFB00F042F8AA
:1015100044F6206000F006F84FF49B4000F01EF8FF
:1015200000BFFEE710B50446A2B20021084600F055
:1015300077FA0948027806210020FFF7C5FF064820
:10154000007808B9012000E00020024607210020B1
:10155000FFF7BAFF10BD00000000002010B50446E0
:10156000A2B20121002000F05BFA094802780021B4
:101570000120FFF7A9FF0648007808B9012000E024
:101580000020024601210846FFF79EFF10BD000023
:101590000100002010B54FF47A720021084600F0D7
:1015A00031F9002206211046FFF7BCFE0022072178
:1015B0001046FFF7B7FE4FF47A720121002000F0C9
:1015C00021F9002211460120FFF7ACFE0022012183
:1015D0000846FFF7A7FE10BD70B505460C46002D66
:1015E00008DB012011490870284601F0B1F81049C4
:1015F000086007E000200D490870684201F0A8F873
:101600000B490860002C08DB01200A4908702046BD
:1016100001F09EF80849086007E0002005490870BD
:10162000604201F095F80449086070BD0000002098
:10163000F400002001000020280100202DE9F041E5
:101640000446D4E9000101F0EBF9A060206B012809
:101650002DD1D4E9020101F0E3F90546616901F0F9
:10166000D7F82062A168A06901F0D2F8A0624FF01B
:101670008040E16801F0CCF80746A16801F0C5F9A7
:101680000646216900F0F8FE0546E16901F0C0F860
:101690006062A16A206A00F0EFFE0646616A00F00F
:1016A000EBFE0546E16A00F0E7FEE06221E0206B18
:1016B000F8B9A168606901F0ABF82062A168A0697F
:1016C00001F0A6F80546A16A00F0D6FEA062D4E9B2
:1016D000020101F0A5F90546E16901F099F860629F
:1016E000A16A206A00F0C8FE0546616A00F0C4FEE7
:1016F000E062E1682161A168E160BDE8F08100007D
:1017000070B52D482D4908602D480068486008468E
:10171000FFF794FF2949C86A00F0DEFF0646274814
:10172000C06A80F00045284600F0D6FF04463146E6
:10173000FFF752FF2348007830B12348006801F0DA
:1017400007F82249486006E01F480068404200F060
:10175000FFFF1E4948601E48007830B11D480068F0
:1017600000F0F6FF1C49486006E01A480068404255
:1017700000F0EEFF18494860002013490860154941
:1017800008601248FFF75AFF1348FFF757FF0F484A
:1017900000F024F8104800F021F80C49C86A00F065
:1017A0009BFF0446FFF7BEFE0B49C86A00F094FF9A
:1017B0000446FFF7D3FE70BD0000A0C15C0100200D
:1017C000E40000200000002004000020F4000020BD
:1017D00001000020080000202801002010B5044668
:1017E0000749E06A01F0E0F801D80548E06200210D
:1017F000E06A00F0D9FF01D80020E06210BD0000CF
:10180000005043472DE9F04104460D461646284650
:10181000E91705EB91718910A5EB8101491CCFB245
:101820005148C0690121A14008434F49C8614F4850
:1018300090FBF6F0401E4E4951F824108885472051
:101840004B4951F824100885284600F093F8012FE1
:1018500006D0022F1ED0032F36D0042F69D14DE0C1
:10186000434850F82400008B40F06000404951F894
:10187000241008833E4850F82400008B40F00800F4
:101880003B4951F8241008830020394951F82410AD
:1018900088864EE0364850F82400008B40F4C04063
:1018A000334951F824100883314850F82400008B44
:1018B00040F400602E4951F82410088300202C4980
:1018C00051F82410088734E0294850F82400808B10
:1018D00040F06000264951F824108883244850F8CD
:1018E0002400808B40F00800214951F8241088839F
:1018F00000201F4951F8241088871AE01C4850F82E
:101900002400808B40F4C040194951F8241088838A
:10191000174850F82400808B40F40060144951F8B7
:10192000241088830020124951F82410A1F84000A7
:1019300000BF00BF0E4850F82400008C791E8A00BA
:101940000121914008430A4951F8241008840848AD
:1019500050F82400008840F08100054951F8241017
:101960000880BDE8F08100000010024040420F00F6
:10197000AC00002010B504460C2C4FD2DFE804F078
:10198000060C12181E242A30363C4248032200213D
:101990000846FFF7C7FC41E0032201210020FFF7C2
:1019A000C1FC3BE0032202210020FFF7BBFC35E035
:1019B000032211460020FFF7B5FC2FE00322062189
:1019C0000020FFF7AFFC29E0032207210020FFF7EA
:1019D000A9FC23E0032200210120FFF7A3FC1DE066
:1019E000032201210846FFF79DFC17E00322062190
:1019F0000120FFF797FC11E0032207210120FFF7E8
:101A000091FC0BE0032208210120FFF78BFC05E08D
:101A1000032209210120FFF785FC00BF00BF10BD94
:101A20002DE9F84F04460D4617462846E91705EB01
:101A300091718910A5EB8101491C01F0FF084CF25E
:101A40005030874200DB0746384850F82400868D26
:101A5000B8F1010F09D0B8F1020F1DD0B8F1030F92
:101A600031D0B8F1040F5DD144E0701C00F070FE7D
:101A70008346384600F084FE2D49009000F06AFD50
:101A80008246594600F0C4FE814600F041FE2749D7
:101A900051F82410888645E0701C00F059FE009033
:101AA000384600F06DFE8346214900F053FD824622
:101AB000009900F0ADFE814600F02AFE1B4951F866
:101AC000241008872EE0701C00F042FE009038467B
:101AD00000F056FE8346164900F03CFD8246009910
:101AE00000F096FE814600F013FE104951F82410D4
:101AF000888717E0701C00F02BFE0090384600F03D
:101B00003FFE83460A4900F025FD8246009900F019
:101B10007FFE814600F0FCFD044951F82410A1F835
:101B2000400000BF00BFBDE8F88F0000AC000020FF
:101B30000050434721F00042A2F16052B2F5801FED
:101B400001F0004328BFD2F17F6C0BD95FEA001C83
:101B500043EAC20242EB507018BF704728BF20F022
:101B600001007047B2F5801FBCBF184670474FEAAE
:101B7000410C1CF5001F02D2084600F010BF70B5E2
:101B800000F004FB00000089FFF7F6BF4FF00040B3
:101B9000A0F580007047000010B591EA030F48BF20
:101BA00083F0004300F15A83841A71EB030C05D2D1
:101BB000121943EB0C03001B61EB0C01DFF824E16D
:101BC0004FEA1154A4EB135C1EEA430F18BF9EEAC0
:101BD000445F73D023EA0E03DCF1200E21EA0451A6
:101BE00043F4801332D322FA0CFE10EB0E0023FADA
:101BF0000CFE41EB0E01CCF1200E03FA0EFE10EBB1
:101C00000E0051F10001B1F5801FCCF1200E32D24F
:101C100001EB045112FA0EF2BDE8104058BF7047B4
:101C2000401C38BF5FEA420218BF7047002814BF4B
:101C300020F0010041F100014FEA410313F5001FBC
:101C400038BF7047A1F1C04100F0EEBA012A43EB62
:101C50000302ACF1200CDCF11F0E32BF4FF0000E7E
:101C600023FA0CF310EB030041EB0451B4EB115FCA
:101C7000D0D0A1EB045101F5801149085FEA300092
:101C800001EB04510ED350F1000038BF12FA0EFEE2
:101C900008D1BDE81040C9E7401C38BF5FEA4202E6
:101CA000CAD1C3E7BDE810404FEA410313F5001F56
:101CB00038BF7047A1F1C04100F0B6BA9EEA445F58
:101CC00008D011EA5E0FBDE8104004BF01F00041EA
:101CD00000207047BDE8104070B500F057FA00BF13
:101CE00064FBBE3E0000E0FF02494FF0000000F040
:101CF0000CBF00BF0000F87F491058BFC1F1404140
:101D00005B1058BFC3F140438B42EFF30080704734
:101D10002DE9C04130B4DFF8A0C23CEA111418BF6D
:101D20003CEA131400F0EC8081EA03051CEA11146C
:101D300044EAD57418BF1CEA131500F0C780A4EB61
:101D400005044FF0004545EAC12145EAC32341EAB5
:101D5000505143EA525304F17F74994204F5003420
:101D60004FEAC0204FEAC22208BF904200F09C8098
:101D70004FEA13650FF24016765D4FEA134506FBF6
:101D800005F7C7F1807706FB07F74FEAD737A7FBC0
:101D900003687642C8F58038A7FB06CE38BFA8F1A5
:101DA000010807FB08E64FF0000EA6FB028CE6FBDD
:101DB00003CEDCF1000CCEF1004E38BFAEF1010EC7
:101DC000A6FB0C584FF000074FF00005E6FB0E870E
:101DD000A1FB08C6A0FB07CE16EB0E0645F10005D9
:101DE000E1FB076515F1E04E7EBFA4F580345FEAA4
:101DF00046066D4116F1800745F100054FEA1727A9
:101E00004FEA066647EA0567A6F1DE46B6F1805F4F
:101E10004FEA15251FD9384624F0010C05EBC47193
:101E2000BCF1FE6F01EB0C1102D8F0BCBDE80081E3
:101E300024425CBF01F5801E9EEAC47F02D4F0BC40
:101E4000BDE80081244238D4F0BCA1F1C041BDE816
:101E5000004100F0E9B94FEAD22242EA43524FEA88
:101E6000D323A7FB02864FEAD02040EA415007FB6C
:101E700003661EEA0E0F4FEAD12105FB026658BF2A
:101E8000A6EB0056B6EB00564FEA520E4EEAC37E62
:101E900018EB0E0E56EB530EBDD518EB02085E4143
:101EA0007F1C55F10005B6E74FF480154FF0000791
:101EB0004FF000064FF00008ADE7F0BC4FF0000017
:101EC00001F1C04101F00041BDE8008111EA0C1FA1
:101ED0000CEA131500D00CE013EA0C1F00F025806B
:101EE0004FF00000F0BC81EA030101F00041BDE8C1
:101EF0000081F0BCBDE8004181EA030100F094B923
:101F0000F0BCBDE8004170B500F040F9097EFC3E30
:101F100000F007B881EA03014FF0000001F0004132
:101F2000704781EA030100F07FB9F0BCBDE80041D1
:101F30004FF0000021497047FFFDFBF9F7F5F4F27F
:101F4000F0EEEDEBE9E8E6E4E3E1E0DEDDDBDAD854
:101F5000D7D5D4D3D1D0CFCDCCCBCAC8C7C6C5C4B2
:101F6000C2C1C0BFBEBDBCBBBAB9B8B7B6B5B4B3C9
:101F7000B2B1B0AFAEADACABAAA9A8A8A7A6A5A4B4
:101F8000A3A3A2A1A09F9F9E9D9C9C9B9A99999878
:101F90009797969595949393929191908F8F8E8E1B
:101FA0008D8C8C8B8B8A89898888878786858584A8
:101FB00084838382828181800000FF070000F87F94
:101FC00051EA030C17D41CF5801F58BFBCF5801FC5
:101FD00000F10680994218BF704708BF90427047D1
:101FE00007D711F5801F58BF13F5801F19D49942E8
:101FF0007047894270471CF5801F08D5BCF5801FCB
:10200000F7D58B4218BF704708BF824270474FF424
:10201000001C1CEB410F38BF1CEB430F01D28B425D
:10202000704770B500F0B2F8922449004FF00051AB
:102030004FF08053FFF760BEDFF848C170B51CEA6F
:10204000111E1EBF1CEA13159EEA0C0F95EA0C0F19
:1020500000F06F8081EA030423EA4C134EEAD47E39
:1020600021EA4C1141F4801143F48013AE44A1FBEA
:10207000024CA0FB0365AEF17F7E361955EB0C05D3
:10208000A1FB034C4CF10003A0FB021C16EB0C0659
:10209000654153F10003094218BF46F0010613F4ED
:1020A000007F0BD14FEA03314FEA0530340341EA98
:1020B000155140EA16506FF003020AE04FEAC321BF
:1020C0004FEAC520F40241EA555140EA56506FF0FC
:1020D000020202EB2E4201EB025585EACE710AD0D4
:1020E0005FEA440C18BF24F0004450F1000041F1B5
:1020F000000120EAD47040F2FE7C624500D270BD3F
:10210000A84214BF4FF080444FF04044002E08BF57
:102110000024BEF1806FA8BFA1F1C041BDE87040AE
:1021200080F282804FF0000001F1C04101F00041D7
:1021300070479EEA0C0F0CEA131518BF95EA0C0FB6
:1021400006D04FF0000081EA030E0EF0004170BD92
:1021500000F01CF88900013E00F007B800F009B853
:102160004FEA430C5FEA5C5C08D081EA030100F0AF
:102170005BB84FEA410C5FEA5C5CF6D14FF00000BF
:10218000014970470000FF070000F87F0EF1020EC2
:102190002EF0030E5EF8046B364205D4012A43EBA1
:1021A000030515F5001F12D8012841EB010C1CF5A1
:1021B000001F0CD80ED14FEAD17C15F5001F0CEB97
:1021C0004C0C0CF1020C08BF4CEBD37C04E04FF03C
:1021D000080C01E04FEAD37C0CEB4C0526FA05F61F
:1021E00006F00706B6F1040C06D20EEB860CBDE82D
:1021F00070404CF0010C6047DFE80CF0090B020264
:102200004FF000414FF00000A1F5002170BD1946CC
:102210001046012851EB010418BFD4F5001484BF07
:10222000002001F0004170BD0808A0F500114FEA40
:102230003101704791EA030F10B581F000413FF57D
:10224000B3AC83F0004300F009B8000010B591EA88
:10225000030F48BF83F000433FF5A6AC841A71EB2F
:10226000030C07D212198CF0004C43EB0C03001B3B
:1022700061EB0C01DFF8A4E14FEA1154A4EB135C0D
:102280001EEA430F18BF9EEA445F00F0B08023EAC5
:102290006E03524221EA0451C3EB6E0338BF5B1E4A
:1022A000DCF1200E25D322FA0CFE10EB0E0043FACF
:1022B0000CFE41EB0E01CCF1200E03FA0EFE10EBEA
:1022C0000E0051F10001CCF1200E29D412FA0EF2C9
:1022D00001EB0451BDE8104058BF7047401C1CBFC3
:1022E000B2F1004F704700280CBF491C20F00100DC
:1022F000704712EB020E43EB030218BF4FF0010EC2
:102300004EEA4202ACF1200CDCF11E0E54D943FA25
:102310000CFE10EB0E0051F1FF31CCF11E0ED5D5A5
:102320000EF1010E12FA0EFE404141EB010101EBEC
:10233000445C5FEA5C5C10D910EBDE7001EB045189
:1023400038BFBEF1004FBDE8104018BF70470028ED
:102350000CBF491C20F00100704730D24FEAD42C4A
:1023600011F5001124F400641BD0B1FA81F20B3A8C
:10237000A41AA41ED2F12003914030FA03F31943AA
:10238000904001EBCC71002C01EB0451BDE81040F2
:10239000A8BF704701F1C0414FF0000001F00041BB
:1023A0007047B0FA80F310FA03F100D110BDE41ABF
:1023B000173C4805C90AE4E701EB045110BD491078
:1023C00001EB0451BDE810404FEA300002E04FF04D
:1023D000000170474A0008BF0042F8D0B2F5001F64
:1023E00028BF704701F000414FF0000070479EEA9F
:1023F000445F07D011EA5E0FBDE8104004BF002122
:1024000000207047BDE8104070B5FFF7BFFE00BF69
:1024100040DFF63E83F00041104670470000E0FFC9
:1024200043004FEAD30C4FEA3C0C43401FBF400728
:102430000CF1605113F0FE4F70471CF0006F03D198
:1024400000200CF0004170470CF0004343EA50704C
:1024500010B540EACC0000F05CFA00BF000000922A
:102460004FEA0001FFF7E0BE4FF000414FF00000DF
:10247000A1F500217047000090EA010F48BF81F0EC
:10248000004100F1D482421A3CBF801A89184FEAF9
:10249000D0524FF07F4C1CEA410FA2EBD15318BF32
:1024A0009CEA026F00F03B804FF0004C4CEA0020A9
:1024B0004CEA012121FA03FC10EB0C0C1ED202F1B4
:1024C000FF325FEA1C2040EBC25038BF70471CF05F
:1024D0007F0F4FEA400C18BFBCF17F4F38BF7047E9
:1024E000C3F12003994008BF20F00100BCF17F4FE9
:1024F00038BF7047A0F1C04000F051BA4FEA3C002D
:10250000000A40EBC25028BF1CF0FF0F4FEA400CFE
:10251000E6D018BFBCF17F4F38BF7047EAE79CEAAE
:10252000026F05D010EA5C0F08BF00F00040704752
:1025300010B500F0EEF900BF64FBBE3E401058BF7E
:10254000C0F14040491058BFC1F140418142EFF312
:10255000008070474FF47F0C1CEAD0121EBF1CEAAB
:10256000D11392EA0C0F93EA0C0F00F0858090EAE9
:10257000010F48BF42F4807240F4000C41F40000A7
:102580002CF07F4120F07F4000B58142A2EB030296
:102590000FF2081CACEB504EC0F100009EF800E0BA
:1025A0004FEA4E0E00FB0EFC38BF49004FEA2C1CD0
:1025B00002F5FA020CFB0EF34FEACE1E4FEA112C85
:1025C0004FEAC1210EEB635E42EB22420EFB0CFC94
:1025D0004FEA1C5300FB03114FEA112C4FEA013163
:1025E0000EFB0CFC4FEADC4C00FB0C11C14228BF77
:1025F00009184CEB03335DF804EB10EB410143EB9E
:10260000C250B2F57C0F38BF704729D512F0F00FD9
:102610001CBF00F1C04000F0004070470081828381
:102620008485868788898B8C8D8E8F9192939596E1
:1026300097999A9C9D9FA0A2A3A5A7A8AAACAEB06B
:10264000B2B3B5B7B9BCBEC0C2C5C7C9CCCED1D470
:10265000D7D9DCDFE2E6E9ECF0F3F7FAFE000000A0
:102660004FEA400C0CF1807CBCF17E4F28BF7047D4
:10267000B0F1C04000F093B990EA010F0CEAD11319
:1026800048BF42F48072624538BF634507D213F4F5
:102690007F0F16D080EA010000F00040704710B5AF
:1026A00000F037F9097EFC3E00F005B880EA010031
:1026B00000F00040704780EA010000F0004000F0A8
:1026C0006EB912F47F0F04BF0248704780EA010020
:1026D00000F065B90000C07F41000B0ED3F19E02EF
:1026E00008D950F400034FEA032323FA02F048BF4D
:1026F0004042704710B500F00CF900BF49922480A9
:10270000002070476FF0004282EA2000704700000E
:10271000C10DD1F19E0206DB4FEA002343F00043D6
:1027200023FA02F07047004207D54FEA4001B1F1A9
:10273000FE4F02D24FF00000704710B500F0E9F8EC
:1027400049922480002070476FEA20007047000003
:1027500010F0004148BF4042B0FA80F310FA03F293
:10276000C3F19D030BD051EAC35101EB1220530674
:1027700038BF704700F1010008BF20F0010070472A
:10278000B0FA80F310FA03F2C3F19D030AD0D90521
:1027900001EB1220530638BF704700F1010008BF5B
:1027A00020F001007047000050EA010C00F1138096
:1027B0001CF5000F58BFBCF5000F01D488427047CC
:1027C00007D710F5000F58BF11F5000F15D4884238
:1027D0007047894270471CF5000F04D5BCF5000F07
:1027E000F7D5814270474FF0807C1CEB400F38BF1B
:1027F0001CEB410F01D28142704710B500F089F8FF
:10280000922449004FF000504FF08051FFF796BEE0
:102810004FF47F0C1CEAD0121EBF1CEAD11392EABF
:102820000C0F93EA0C0F00F0478090EA010F48BFAD
:1028300042F480724FF0004C4CEA00204CEA012137
:1028400002EB0302A0FB0113A2F50002002918BF4E
:1028500043F001035B0028BF4FEA330342EB2242FF
:102860005FEA132C4CEBC2502EBFBCEB436FB2F5AA
:102870007C0F70474FEA036CBCF1004F08BF20F09B
:102880000100B2F57C0F38BF70470BD582F0FF0214
:1028900012F5803FC8BF704700F1C040D8BF00F0BC
:1028A0000040704700F5000C5FEA4C0C48BF7047D1
:1028B000B0F1C04000F073B890EA010F0CEAD113F8
:1028C00048BF42F48072624538BF634504D280EA53
:1028D000010000F00040704710B500F01AF800BF8A
:1028E0008900013E00F007B800F009B85FEA410C2A
:1028F0005FEA1C6C08D080EA010000F050B85FEA83
:10290000400C5FEA1C6CF6D14FF00040A0F580004F
:1029100070470EF1020E2EF0030E5EF8044B2442B7
:1029200004D44FEA4102B2F17F4F11D84FEA40037D
:10293000B3F17F4F0CD80ED14FEAD07CB2F17F4F6C
:102940000CEB4C0C0CF1020C08BF4CEBD17C04E0FE
:102950004FF0080C01E04FEAD17C0CEB4C0324FA59
:1029600003F404F00704B4F1040C06D20EEB840C5B
:10297000BDE810404CF0010C6047DFE80CF00708A0
:1029800002024FF00040A0F5800010BD0846420052
:1029900018BFD2F1807288BF00F0004010BDFF2147
:1029A00041EAD050C005704751EA000C00F1138095
:1029B0001CF5000F58BFBCF5000F01D481427047D1
:1029C00007D711F5000F58BF10F5000F15D481423D
:1029D0007047894270471CF5000F04D5BCF5000F05
:1029E000F7D5884270474FF0807C1CEB410F38BF11
:1029F0001CEB400F01D28842704780EA010081EA57
:102A0000000180EA0100FFF7F8BE80F0004090EA84
:102A1000010F7FF538AD81F0004100F008B80000EB
:102A200090EA010F48BF81F000413FF52CAD421AFA
:102A300004D882F00042A0EB020011444FEAD052C9
:102A40004FF07F4C1CEA410FA2EBD15318BF9CEA18
:102A5000026F4AD04FF0004C4CEA00204CEA0121B2
:102A600021FA03FCB0EB0C0C0FD412F0FE0F36D0A1
:102A70005FEA4C001DD5001240EBC25038BF7047D2
:102A80001CF03F0F18BF70470BE0A2F101025FEA94
:102A90001C2040EBC25038BF70471CF07F0F18BF9E
:102AA0007047C3F12003994014BF401E20F001007D
:102AB000704780084FEA122308BF7047B0FA80FCC5
:102AC000A2EB0C02CCF1280C60FA0CF093EA122F66
:102AD00004BF00EBC25070474FEAC3707047130A3F
:102AE0005FEADC1008BF7047F6E79CEA026F04D08B
:102AF00010EA5C0F08BF0020704710B5FFF709FF10
:102B000040DFF63E81F0004070470CF00F03092BC8
:102B100008BF082000F059800A2B0BD0082B18BFE3
:102B2000704708BF1CF0400F0AD04FF000004FF074
:102B3000000170471CF0400F18BF4FF00040704775
:102B40001CF0100F08D020F0704300F07F4242EAE2
:102B5000D3014FEA4370704700F0604021F07F429C
:102B600042EA000201F07F4040EA727070474FF085
:102B7000FF0C4CF4E06C1CEA11531CBF9CEA030CE4
:102B80009445C2BFDA4201EB02517047002B0DD0D1
:102B9000BCF1000F0FD0002A01F00041A4BF41F0AA
:102BA000E04141F07F614FF00000704701F00041CB
:102BB0004FF00000704750EA01334FF09B0C18BFF4
:102BC0004CF0806C7FF490A870471CF4801F11D0EB
:102BD0001CF4E02F03D06FEACC31490070474FF06E
:102BE0004050EFF3008222F0704242EA000282F38A
:102BF000008870474FF000007047000000000000A0
:102C00004FBB610567ACDD3F182D4454FB21E93F04
:102C10009BF681D20B73EF3F182D4454FB21F93FF3
:102C2000E2652F227F2B7A3C075C143326A6813C79
:102C3000BDCBF07A8807703C075C143326A6913C24
:102C4000C4EB98999999C9BF711623FEC671BCBF90
:102C50006D9A74AFF2B0B3BF9AFDDE522DDEADBFF8
:102C60002F6C6A2C44B4A2BF0D5555555555D53F10
:102C7000FF8300922449C23F6E204CC5CD45B73F2B
:102C8000513DD0A0660DB13FEB0D76244B7BA93FA3
:102C900011DA22E33AAD903F00000000000000008E
:102CA000C02C000800000020F400000028010008EB
:102CB000B42D0008F4000020FC06000044010008C8
:102CC0000101000000000000000000000000000002
:102CD0006F12833AA69B443B0000003F0000803FF8
:102CE00000000000000000000000803FCDCC4C3D03
:102CF00000000000000000000000000000000000D4
:102D00006F12833AA69B443B0000003F0000803FC7
:102D100000000000000000000000803FCDCC4C3DD2
:102D200000000000000000000000000000000000A3
:102D30006F12833AA69B443B0000003F0000803F97
:102D400000000000000000000000803FCDCC4C3DA2
:102D50000000000000000000000000000000000073
:102D600000080140000C014000100140000000403C
:102D700000040040000800400000000000000000C7
:102D80000000000000000000000000000000000043
:102D90000000000000000000000000000000000033
:102DA0000000000000000000000000000000000023
:042DB000000000001F
:04000005080000ED02
:00000001FF
