:020000040800F2
:1000000048070020A9010008B1010008B301000859
:10001000B5010008B7010008B901000800000000A0
:10002000000000000000000000000000BB0100080C
:10003000BD01000800000000BF010008C101000868
:10004000C3010008C3010008C3010008C301000880
:10005000C3010008C3010008A5120008BD12000872
:10006000D51200081113000829130008C301000865
:10007000C3010008C3010008C3010008C301000850
:10008000C3010008C3010008C3010008C301000840
:10009000C3010008C3010008C3010008651300087C
:1000A000C3010008C3010008C3010008C301000820
:1000B000111C0008851C0008091F0008C301000866
:1000C000C3010008C3010008C3010008C301000800
:1000D000C3010008DD1F0008F91F000815200008F3
:1000E000C3010008C3010008C301000800F002F8C2
:1000F00000F04AF80AA090E8000C82448344AAF178
:100100000107DA4501D100F03FF8AFF2090EBAE875
:100110000F0013F0010F18BFFB1A43F0010318473B
:100120004C5600006C560000103A24BF78C878C1C5
:10013000FAD8520724BF30C830C144BF04680C60ED
:10014000704700000023002400250026103A28BF35
:1001500078C1FBD8520728BF30C148BF0B60704739
:10016000662904F0FC86642900F080800020704736
:100170001FB500F041FB04000020002103F078FDD2
:10018000E0601FBD10B510BD00F056FC1146FFF732
:10019000EFFF02F0D7FA00F074FC03B4FFF7F2FFB0
:1001A00003BC01F0CFFF0000094880470948004721
:1001B000FEE7FEE7FEE7FEE7FEE7FEE7FEE7FEE717
:1001C000FEE7FEE704480549054A064B7047000074
:1001D000B11B0008ED00000848010020480700207E
:1001E0004803002048030020704700000FB4044972
:1001F00010B503AA029800F0EDFA10BC5DF814FBEC
:10020000480000202DE9F0410E46044600202062FF
:100210002046E168884730B3252805D0D4E901217C
:100220009047206A401CF2E7E16820460027884793
:10023000050018D0A5F14100192802D820354FF447
:1002400000673246294620462760FFF789FF40B104
:10025000012804D0F61D26F007060836D8E7361D1B
:10026000D6E72846DAE7206ABDE8F0812DE9F041BB
:100270000646002410687529314616A510D0AFF344
:100280000080002802DA404213A507E031688A079F
:1002900001D512A502E0490704D511A5012401E00A
:1002A000AFF3008000210A2206F1240709E0B0FB29
:1002B000F2FCB0FBF2F302FB1C003030785418461D
:1002C000491C0028F3D123462A463046BDE8F041B8
:1002D00000F017B8000000002D0000002B00000007
:1002E00020000000704770477047704710B500F05D
:1002F00087FA006810BD10B5044600F081FA04606A
:1003000010BD2DE9F0470D4699469246044600F18E
:1003100024080168880604D5E06921F010012160F5
:1003200000E00120A84201DD471B00E00027A16991
:100330007A1902EB0900081AA0612078C00602D4DD
:100340002046AFF30080002608E0D4E901211AF826
:1003500006009047206A401C761C20624E45F4DB64
:100360002078C0060AD52046AFF3008006E0D4E925
:10037000012130209047206A401C2062381EA7F1DE
:100380000107F4DC07E0D4E9012118F805009047E3
:10039000206A401C2062281EA5F10105F3DC2046DE
:1003A000AFF300802078000602D50220BDE8F08778
:1003B0000120FBE770472DE9FF4F0C461E464FF02A
:1003C000FF378BB0D2E90001DDF860800A908A46E1
:1003D000C1F30A5505B93D46002108464FF000001B
:1003E000BAF1000F00F4400005DA00EB80004FF492
:1003F000400101EA50004FEA9059B9F1010F00DDC8
:10040000B9460A9850EA4A000ED044F61050A5F2B8
:10041000FF3545432F14B8F1000F1ED07542291E39
:100420001EDDC9F100021CE0B8F1010F4FF0000021
:1004300001D0302103E0F24305E02154401CB042DA
:10044000FBDB30460022002121540B99C1F80880C3
:10045000C1E900200FB0BDE8F08FBD1B6D1CDEE7C9
:100460004A4600DA694206A800F06CFA06AB93E847
:10047000070003AB83E8070050460A9900F04AFBE7
:100480008DE80700A0F500501F3800900398002D5C
:100490000ADD42F21F014A460844002303A90390E3
:1004A000684600F0B3FD09E0A0F500504A461F3849
:1004B000002303A90390684600F0BDFD8DE8070006
:1004C0000004000C03D04FF0FF30410800E010465C
:1004D000B8F1000F03D00022009215461EE0751EF1
:1004E00005D400F091F9303262556D1EF9D5B3464E
:1004F0000122084302D000227F1C04E0207830282B
:1005000001D100227F1E002A099784D01DE0112D01
:1005100007DA00F079F9303262556D1C50EA0102B9
:10052000F5D1084302D00098C8B10EE00021681E42
:1005300005E0235C625C63542254401E491C8142E6
:10054000F7DBAB46A81B401E0990002004F80B0007
:100550000B98099AC0F80880C0E9002B7AE71126A9
:100560004FF0000857E72DE9F04F88460446D21DAA
:1005700022F0070191B0D1E90001CDE90A0101F0B3
:1005800057FD02460B98C00F01D02D2007E02068D0
:10059000810701D52B2002E0202101EAC000032AB7
:1005A000099001D0072A05DB03464146204600F0AA
:1005B00089F90BE12078800601D5E06900E006208A
:1005C000B8F1650F814606D0B8F1660F18D0B8F1C2
:1005D000670F70D131E00020B9F1110F009001DBFD
:1005E000112301E009F101030AAA01A90CA8FFF7F0
:1005F000E2FEDDE90C70002609F10105834647E0C3
:1006000001204B4600904FF000470AAA01A90CA810
:10061000FFF7D1FEDDE90DB00C995D46002610B95B
:1006200009F101000D18B9EB050003D4C0F1FF3644
:1006300009F10105A5EB09002BE0B9F1010F01DA81
:100640004FF001090020B9F1110F0090484601DD7B
:10065000112300E003460AAA01A90CA8FFF7ABFE8C
:10066000DDE90C704D4600268346207800070AD449
:10067000AB4500DA5D4601A8012D04DD411911F8F2
:10068000011C302907D04F4502DA17F1040F04DAB4
:10069000012082460FE06D1EEEE7002F02DCED1B0D
:1006A0003E4403E0781CA84200DD7D1CB81B00F12D
:1006B000010A4FF000472078000703D4AA4501DB68
:1006C0004FF0FF3A0021B7F1004F0DF143088DF8CC
:1006D000431024D002202B23002F01DA7F422D2348
:1006E0000A21021EA0F1010000DC5FB197FBF1FCC2
:1006F00097FBF1F201FB1C7C17460CF1300C08F85B
:1007000001CDEEE7A8F1010003702188090501D5AC
:10071000452100E06521A0F1010800F8011C0998BD
:100720000FA9A1EB0807FF1D00B10120411901EB42
:10073000EA70A1693844081A401EA0612078C006FA
:1007400002D42046AFF30080099828B1D4E90121F2
:100750009047206A401C20622078C00622D520469F
:10076000AFF300801EE0002E04DBB34502DD01A8DC
:10077000805D00E03020D4E901219047206A401CD0
:100780002062761CAAF101005FEA000A0AD100F09B
:1007900033F8C0680168405CD4E901219047206AC1
:1007A000401C2062281EA5F10105DCDC07E0D4E92D
:1007B000012118F8010B9047206A401C2062381E66
:1007C000A7F10107F3DC2046AFF30080032011B04E
:1007D00041E60000074B70B50D467B4400F05FF822
:1007E0000446284600F020F910B14FF0FF3070BDEC
:1007F000204670BDEF1C0000004870470801002033
:1008000000487047E800002030B5B0F10A024FEA16
:10081000900E71F100034EEA817EB0EB0E0061EBA9
:1008200091014FEA101E4EEA017E10EB0E0041EBE3
:1008300011114FEA102E4EEA016E10EB0E0041EB43
:1008400011214FEA104E4EEA014E10EB0E0041EB23
:100850001141401841F100014FEAD00040EA4170D7
:100860004FEAD10110EB80054FEA810444EA90740D
:1008700044EB01046D1944EB0404521BA3414FF0F7
:10088000000348BF0A3200D530BD401C41F10001D1
:1008900030BD000001694A1C02610878704700B54C
:1008A0008FB0CDE901310021059105497944CDE9A9
:1008B000031011466846FFF7A5FC0FB000BD00000D
:1008C000E5FFFFFF2DE9F0411F46044603260168BE
:1008D000072A01F4006004DB08B116A505E016A59F
:1008E00003E008B115A500E015A521F01000206077
:1008F000A069C01EA0610FB1401EA0612046AFF3E9
:1009000000804FB1D4E9012138469047206A401C4D
:100910002062C01C206206E0206AFAE7D4E90121C7
:1009200015F8010B9047761EF8D22046AFF30080F1
:10093000BDE8F0814E414E006E616E00494E4600AA
:10094000696E66002DE9F047814616468AB0354843
:1009500078440DC88DE80D0032487844801C03AC03
:100960000DC884E80D0041F69B300844372190FB08
:10097000F1F290FBF1F5A5F1800501FB12041B3C9F
:1009800002D56442012000E00020DFF898A08046F4
:100990000027FA44AAF1BE0A0EE0E0070AD0324668
:1009A000684607EB470101230AEB810100F043FB96
:1009B0008DE8070064107F1C002CEED1194F7F4496
:1009C000AE3F19E0E80715D007EB04100DF1180A47
:1009D00090E80E008AE80E00C068F04201D1981934
:1009E00008903246012306A903A800F024FB03ABBC
:1009F00083E807006D10641C002DE3D14FF0010364
:100A000032466946B8F1000F03A802D000F0FEFAA2
:100A100001E000F010FBC9E90001C9F808200AB0A4
:100A2000BDE8F087004E0000007B00F080007047BA
:100A300000487047E80000207546FFF7F9FFAE4612
:100A400005006946534620F00700854618B020B5DA
:100A5000FFF7B8FBBDE820404FF000064FF000075D
:100A60004FF000084FF0000B21F00701AC46ACE856
:100A7000C009ACE8C009ACE8C009ACE8C0098D46C3
:100A8000704710B50446AFF300802046BDE8104023
:100A9000FFF783BB4FF0013C50F8042B51F8043BA7
:100AA0009A4221D1A2EB0C03934313EACC1317D142
:100AB00050F8042B51F8043B9A4215D1A2EB0C03D9
:100AC000934313EACC130BD150F8042B51F8043B99
:100AD0009A4209D1A2EB0C03934313EACC13DBD067
:100AE0004FF00000704700BFD01A01BAB1FA81F18F
:100AF00001F0180122FA01F0CB40C1F12001DBB274
:100B0000C0B2C01A2CFA01F3D11A914311EAC311F1
:100B1000E6D170475FEA400C08BF91F0000F4FEA42
:100B20008C234FEAC12243EA51514FEA1C5018BFAF
:100B300000F5F0404FEA300018BF41F000415FEA95
:100B40006C5C00F02980BCF1FF3F08BF40F08040A2
:100B50007047130C06BF12044FF0100C4FF0000C3E
:100B6000130E04BF12020CF1080C130F04BF120184
:100B70000CF1040C930F04BF92000CF1020CD30F84
:100B800004BF52000CF1010C11464FF00002A0F11D
:100B90001F00A0EB0C00704711F0004F08BF70471A
:100BA00031F000413FF4D5AF0B0C06BF09044FF004
:100BB000100C4FF0000C0B0E04BF09020CF1080CD6
:100BC0000B0F04BF09010CF1040C8B0F04BF89004B
:100BD0000CF1020CCB0F04BF49000CF1010CCCF15D
:100BE0002003A0EB0C0022FA03F302FA0CF241EA14
:100BF000030100F10100704720F07F4C80EA030000
:100C000023F07F47ACEB070303F57C5300F0004073
:100C100003F1FF032DE980494FEA154B09B44FEA70
:100C2000144325EA0B4E24EA03480FF2042606EB90
:100C3000132749083E785FEA320203FB0667C7F5CF
:100C4000000707FB06F64FEA54374FEAD64606F18F
:100C5000020607FB066CCCF1005C4FEA1C472CEA4D
:100C6000074C07FB06F40CFB06F504EB15464FEAB0
:100C7000961634BF00204FF000404FEAD13706FBF4
:100C800007FC4FEA1C4C0CFB0BF7D21B03FB0CF7C9
:100C900061EB07010CFB0EF7B0EB074072EB17425C
:100CA0000CFB08F734BFA2EB0742B2EB074261EB43
:100CB00017414FEA0C444FEA910706FB07FC4FEA45
:100CC0001C4C0CFB0BF7B0EBC74072EB573203FB2D
:100CD0000CF734BFA2EBC742B2EBC74261EB57310E
:100CE0000CFB0EF7B0EBC70072EB57720CFB08F76A
:100CF00034BFA2EBC702B2EBC70261EB5771039F8F
:100D00004FEA816141EA921104EBCC044FEAD137FA
:100D10004FEA826206FB07FC42EA90124FEA8060CB
:100D20004FEA1C4C0CFB0BF7D21B03FB0CF761EBDF
:100D300007010CFB0EF7B0EB074072EB17420CFB00
:100D400008F734BFA2EB0742B2EB074261EB174151
:100D50004FEA8C554FEA910704EB9C2406FB07FCF5
:100D60004FEA1C4C0CFB0BF7B0EBC74072EB573251
:100D700003FB0CF734BFA2EBC742B2EBC74261EBF7
:100D800057310CFB0EF7B0EBC70072EB57720CFB40
:100D900008F734BFA2EBC702B2EBC70261EB577191
:100DA00015EB4C254FEA816141EA92114FEA8262CC
:100DB0004FEAD13742EA901206FB07FC44F10004E7
:100DC0004FEA80604FEA1C4C0CFB0BF7D21B03FB75
:100DD0000CF761EB07010CFB0EF7B0EB074072EB71
:100DE00017420CFB08F734BFA2EB0742B2EB0742F5
:100DF00061EB174115EB1C154FEA813141EA924135
:100E00004FEA823242EA90424FEA80304FEA0C7653
:100E100044F1000448EA03434EEA0B484FF0000E49
:100E2000B2EB080C71EB030724BF624639464EEB68
:100E30000E0E4FF0000B0018524149414BEB0B0BCB
:100E4000B2EB080C71EB03077BF1000B24BF624689
:100E500039464EEB0E0E4FF0000B0018524149413F
:100E60004BEB0B0BB2EB080C71EB03077BF1000BA8
:100E700024BF624639464EEB0E0E51EA020718BFF8
:100E800046F0010616EB0E7655F1000254F1000112
:100E900003D5BDE88901BDE80088BDE88901BDE84A
:100EA0000048B619524141EB0101A3F1010370471B
:100EB00080807F7E7D7C7B7A797877767675747397
:100EC000727171706F6E6E6D6C6C6B6A6A69686856
:100ED000676666656464636362616160605F5F5EEC
:100EE0005E5D5D5C5C5B5B5A5A5959585857575662
:100EF00056555555545453535252525151505050C7
:100F00004F4F4F4E4E4D4D4D4C4C4C4B4B4B4A4A18
:100F10004A4949494848484747474746464645455C
:100F20004544444444434343434242424241414195
:100F3000002B9C4630D477002BD01CB54FEA3707E6
:100F400003B44FF010004FF01001BAF1000F06D0BB
:100F5000BCF1000FDCBF40F0080040F008014FF08A
:100F600000000FBCBDE810400BF1010BBBF1010FFD
:100F700008BF5FEA170722BF12F1010211F1010158
:100F80004FF0004143F1000300F0004043EA00004D
:100F90007047F9D35708D0E746EA064613F1400FE9
:100FA0004FEA16461FDD13F1200FDFBF16430A4636
:100FB000002120335B42BED0C3F1200746EA06463B
:100FC00002FA07F74FEA164646EA0706C3F120077A
:100FD00022FA03F201FA07F721FA03F14FF00003B6
:100FE00042EA0702A7E746EA020646EA06464FEA51
:100FF000164646EA0106BCBF46EA0646360C4FF0E6
:1010000000034FF000024FF0000194E72DE9804CFF
:101010009A46934670B491E8380007C831EA400C0C
:1010200048BF34EA430C03D5FFF7E6FDFFF780FF26
:10103000F0BCBDE8008C2DE9804C9A46934670B414
:1010400091E8380007C810F0804F08BF13F0804FB8
:1010500003D100F005F8FFF76BFFF0BCBDE8008C92
:1010600020F07F4780EA030023F07F4C07EB0C035E
:10107000A3F57C5300F00040A3F1FE0392F0000FB3
:1010800000F0B38095F0000F00F077802DE9014962
:101090004FEA11404FEA144621EA004800FB06FCE3
:1010A00024EA064708FB06F607FB08F800FB07F7EB
:1010B00018EB06484CEB164C4FEA124B18EB07485E
:1010C0004FEA15464CEB174022EA0B4E0BFB06FC91
:1010D00025EA06470EFB06F607FB0EFE0BFB07F79D
:1010E0001EEB064E4CEB164C4FF000061EEB074E67
:1010F0004CEB174B18EB0B0840F1000018EB0E0BF4
:1011000058EB000840F100008F1A4FF000013CBF7F
:10111000C943661B14BFB5EB040C00213CBFC94397
:10112000F61B4FEA17444EEA8E0E27EA04454FEAB3
:101130001C4704FB07622CEA074C05FB07F70CFB76
:1011400005F604FB0CFC16EB074642EB174216EBC8
:101150000C4642EB1C421BEB060658EB02024141D7
:1011600046EA9E0601D5BDE80189B619524141EB18
:101170000101A3F10103BDE801894FEA14454FEADB
:10118000114724EA054621EA074C05FB07F406FB54
:1011900007F70CFB06F105FB0CFC11EB074144EBD8
:1011A00017444FEA124711EB0C4144EB1C4422EA6E
:1011B000074C05FB07F206FB07F70CFB06F605FBE1
:1011C0000CFC16EB074642EB174216EB0C4642EBC3
:1011D0001C456A1854F1000148BF7047B6195241C6
:1011E00041EB0101A3F10103704795F0000F37D0E7
:1011F0004FEA11424FEA144721EA024624EA074C1B
:1012000002FB07F106FB07F70CFB06F402FB0CFCE4
:1012100014EB074441EB17414FEA154714EB0C441C
:1012200041EB1C4125EA074C02FB07F506FB07F7DB
:101230000CFB06F602FB0CFC16EB074645EB1745CC
:1012400016EB0C4645EB1C42121951F1000148BF48
:101250007047B619524141EB0101A3F101037047F8
:101260004FEA14454FEA114724EA054621EA074CA4
:1012700005FB07F106FB07F70CFB06F24FF0000633
:1012800005FB0CFC12EB074241EB174112EB0C4241
:1012900051EB1C4148BF7047921841EB0101A3F18B
:1012A000010370470448006800F0010010B10120FC
:1012B00001490860704700001404014004480068B8
:1012C00000F0020010B102200149086070470000E0
:1012D0001404014010B50C48006800F0040090B1FF
:1012E0000321002001F000F928B108480068401EE1
:1012F0000649086004E005480068401C034908608E
:1013000004200149086010BD1404014018000020A9
:101310000448006800F0080010B108200149086086
:10132000704700001404014010B50C48006800F03C
:10133000100090B10521002001F0D6F828B108482E
:101340000068401C0649086004E005480068401E2B
:101350000349086010200149086010BD14040140D1
:101360001C0000201548006800F0200010B120206B
:10137000124908601148006800F0400010B1402098
:101380000E4908600D48006800F0800010B1802010
:101390000A4908600948006800F4807018B14FF4E9
:1013A0008070064908600548006800F4007018B1B4
:1013B0004FF40070014908607047000014040140B8
:1013C00010B502220A21012001F0A0F802220B210F
:1013D000012001F09BF801220B21104601F068F971
:1013E00001220A21104601F063F910BD10B5012257
:1013F0000B21104601F05CF901220A21104601F090
:1014000057F900220A21012001F052F910BD70B5F0
:10141000002501220B21104601F04AF9002412E0B8
:1014200001220A21104601F043F90B21012001F0AD
:101430005BF810B180202041054300220A210120E1
:1014400001F036F9641C082CEADB284670BD10B5A3
:1014500000220B21012001F02BF901220A21104664
:1014600001F026F900220A21012001F021F910BD26
:1014700070B50546002419E080202041284028B19D
:1014800001220B21104601F013F904E000220B2188
:10149000012001F00DF901220A21104601F008F99E
:1014A00000220A21012001F003F9641C082CE3DB6F
:1014B00070BD10B501220B21104601F0F9F8012290
:1014C0000A21104601F0F4F800220B21012001F05E
:1014D000EFF800220A21012001F0EAF810BD10B552
:1014E00000220B21012001F0E3F801220A2110461D
:1014F00001F0DEF801220B21104601F0D9F810BDF1
:1015000010B5002401220B21104601F0D1F8012270
:101510000A21104601F0CCF80B21012000F0E4FF75
:10152000044600220A21012001F0C2F8204610BD25
:101530002DE9F0473F2000F053F8824602F03AFED2
:1015400006460022074B02F097FC04460022064B99
:1015500002F080FE804602F0A1FB04490860BDE86D
:10156000F08700000000E040008066400C00002092
:1015700010B5322000F0E8FD4BF28851692000F0F0
:1015800053F8142000F0E0FD0821022000F04CF890
:101590000621032000F048F804211F2000F044F841
:1015A0000021084600F040F8642000F0CDFD2E2018
:1015B00000F016F8C4B224B9214604A0FEF716FEC6
:1015C00003E0214604A0FEF711FE10BD65766572AA
:1015D0003A25640D0A0000007665723A2564000021
:1015E00070B50446FFF765FFA020FFF741FFFFF746
:1015F00087FF2046FFF73CFFFFF782FFFFF759FF09
:10160000A120FFF735FFFFF77BFFFFF700FF05463F
:10161000FFF71DFFFFF7FBFE0646FFF7E7FEFFF7AC
:101620005EFF45EA062070BD70B505460C46FFF723
:1016300040FF5020FFF71CFFFFF762FF2846FFF72F
:1016400017FFFFF75DFFE0B2FFF712FFFFF758FF4C
:101650002012FFF70DFFFFF753FFFFF740FF70BDAC
:10166000014607238B431A02054B18684FF6FF0308
:1016700018401043034B1843014B1860704700009B
:101680000CED00E00000FA0570B505460C4604209C
:10169000FFF7E6FF0E48005D00F0010646EA051080
:1016A000C1B20B4801552046E21704EBD262521139
:1016B000A4EB421301229A402146E31704EBD363C3
:1016C0005B119B0003F1E023C3F8002170BD000013
:1016D00000E400E070B500240EE00021204600F098
:1016E000D1F8002504E0002000F0DDF9681CC5B247
:1016F000802DF8DB601CC4B2082CEEDB70BD10B589
:1017000002220821012000F001FF0222092101200C
:1017100000F0FCFE01220821104600F0C9FF012262
:101720000921104600F0C4FF10BD70B50546002425
:1017300013E08020204100EA05020921012000F089
:10174000B7FF01220821104600F0B2FF0022082155
:10175000012000F0ADFF601CC4B2082CE9DB0122BF
:101760000821104600F0A4FF00220821012000F00B
:101770009FFF70BD10B501220921104600F098FFAF
:1017800001220821104600F093FF002209210120C8
:1017900000F08EFF00220821012000F089FF10BD1B
:1017A00010B500220921012000F082FF012208214A
:1017B000104600F07DFF01220921104600F078FF5D
:1017C00010BD70B5002406E0002500E06D1CB5F5E5
:1017D0007A7FFBD3641CB4F57A7FF5D3FFF78FFFD4
:1017E000AE2000F050F9D52000F04DF9802000F037
:1017F0004AF9A82000F047F93F2000F044F9D3202F
:1018000000F041F9002000F03EF9402000F03BF9E3
:10181000A12000F038F9C82000F035F9DA2000F0F6
:1018200032F9122000F02FF9812000F02CF9CF209E
:1018300000F029F9D92000F026F9F12000F023F971
:10184000DB2000F020F9302000F01DF9A42000F08A
:101850001AF9A62000F017F98D2000F014F91420D1
:1018600000F011F9AF2000F00EF9FFF733FF70BD63
:1018700010B50246012000E050430B1EA1F101010A
:10188000FAD110BD70B505460C4645F0B00000F029
:10189000FAF8102141EA141000F0F5F804F00F00F6
:1018A00000F0F1F870BD00002DE9F04105460E464C
:1018B0001746721ED206110E6A1E5206100EFFF750
:1018C000E1FF002409E0A7F12001134A02EB011116
:1018D000085D00F0E8F8601CC4B2082CF3DB721E4F
:1018E000D206110E6A1E012303EB4202D0B2FFF7AB
:1018F000C9FF00240BE0A7F12001074A02EB011207
:1019000004F10801505C00F0CEF8601CC4B2082C51
:10191000F1DBBDE8F0810000525000082DE9FF4FD7
:1019200087B00C4691469A46DDF850B0484603F021
:10193000FDF80590584602F03DFC07463A460B4636
:1019400000201A4901F072F905460E46059803F089
:1019500029F98046494603F082FA074602F08AFFD9
:101960002A463346CDE9000102F074FCCDE90201BC
:1019700002F0DAFB049053462146059A079800F0DE
:101980003BF804EB0A00401CC1B209A2079800F022
:1019900066F804EB0A00801CC1B25B46049A079803
:1019A00000F008F80BB0BDE8F08F00000000244004
:1019B0002E0000002DE9F04780460E4617461D46D2
:1019C000002415E0281B411E0A20FFF751FFB7FB3A
:1019D000F0F00A21B0FBF1F201FB120000F1300936
:1019E0003019C1B24A464046FFF75EFF601CC4B2E0
:1019F000AC42E7DBBDE8F0872DE9F0478146884639
:101A000015461E46002D06DB2B2241464846FFF7B1
:101A10004BFF2F4605E02D2241464846FFF744FF85
:101A20006F42002417E0301B411E0A20FFF720FF01
:101A3000B7FBF0F00A21B0FBF1F201FB120000F15C
:101A4000300A08EB0400401CC1B252464846FFF77A
:101A50002BFF601CC4B2B442E5DBBDE8F0872DE982
:101A6000F04107460E461546002407E02A5D30196E
:101A7000C1B23846FFF718FF601CC4B2285D0028C9
:101A8000F4D1BDE8F08110B50446FFF773FE78206D
:101A9000FFF74BFE0020FFF748FE2046FFF745FE0C
:101AA000FFF77EFE10BD10B50446FFF763FE7820F9
:101AB000FFF73BFE4020FFF738FE2046FFF735FEDC
:101AC000FFF76EFE10BD10B500F002F810BD00006B
:101AD0000CB50020019000903348006840F480303D
:101AE0003149086000BF3048006800F400300090C1
:101AF0000198401C0190009818B90198B0F5A06FAA
:101B0000F1D12948006800F4003010B101200090A4
:101B100001E0002000900098012843D1234800688C
:101B200040F01000214908600846006820F00300DA
:101B300008600846006840F0020008601A484068E3
:101B4000194948600846406848600846406840F4C3
:101B5000806048600846406820F47C104860084671
:101B6000406840F4E81048600846006840F0807023
:101B7000086000BF0C48006800F000700028F9D031
:101B80000948406820F0030007494860084640685B
:101B900040F00200486000BF0348406800F00C00BD
:101BA0000828F9D10CBD00000010024000200240BE
:101BB00010B51348006840F001001149086008465C
:101BC0004068104908400E494860084600680E49C0
:101BD00008400B4908600846006820F4802008602F
:101BE0000846406820F4FE0048604FF41F008860FB
:101BF000FFF769FF4FF000600449086010BD000066
:101C0000001002400000FFF8FFFFF6FE08ED00E0C4
:101C100038B54FF08040008A00F0010038B3FFF77C
:101C200087FC13491348006802F0BEFE04461249BF
:101C300003F018F811490860612201210846FFF7F6
:101C400033FE3D2202210120FFF72EFE02200090EC
:101C50000B480223032142680120FFF75FFE4FF08B
:101C60008040008A20F001004FF08041088238BD9A
:101C70000012004708000020000034430C00002040
:101C80004C00002070B59748008800F00100002843
:101C90007DD0FFF74DFC612201210846FFF704FECD
:101CA0003D2202210120FFF7FFFD8F49486802F025
:101CB0003DFF04460223224603210120FFF77AFE5E
:101CC000622201210220FFF7EFFD3D22022108469A
:101CD000FFF7EAFD8549486802F028FF0446022321
:101CE000224603211846FFF765FE012000F04FFA57
:101CF000D8B1022000F04BFAB8B1032000F047FA47
:101D000098B1042000F043FA78B1052000F03FFAC2
:101D100058B1082000F03BFA38B1072000F037FA3C
:101D200018B1062000F033FA28B900207049086085
:101D300000F080FECFE0012000F029FA002850D00A
:101D4000022000F024FA00284BD0032000F01FFAF4
:101D5000002846D0042000F01AFAE0B3052000F075
:101D600016FAC0B3082000F012FAA0B3072000F062
:101D70000EFA80B3062000F00AFA60B35D495E48AF
:101D8000006803F077F8064602F074FD00E0A8E072
:101D900021F0004104460022584B02F01FFA20D2E5
:101DA00057480068B8B901220621002000F080FCE5
:101DB00001220721002000F07BFC012200211046B7
:101DC00000F076FC01221146104600F071FC012063
:101DD0004B49086000E004E04FF4FA7000F0B4F9F9
:101DE00079E0012000F0D3F9F0B3022000F0CFF940
:101DF000D0B3032000F0CBF9B0B3042000F0C7F952
:101E000090B3052000F0C3F970B3082000F0BFF9CB
:101E100050B3072000F0BBF930B3062000F0B7F94B
:101E200010B300213448006803F024F8064602F09D
:101E300021FD21F0004104460022324B02F0CEF990
:101E400010D32C492C48006803F014F8064602F021
:101E500011FD21F00041044600224FF0804302F0C2
:101E6000BDF907D2012000E004E02149086000F03C
:101E7000E1FD30E01E48006858B92148006801289B
:101E800007D16FF0930000F027FE0F2000F05CF9FF
:101E900021E0012000F07BF9E8B1022000F077F9A1
:101EA000C8B1032000F073F9A8B1042000F06FF965
:101EB00088B1052000F06BF968B1082000F067F9DF
:101EC00048B1072000F063F928B1062000F05FF95F
:101ED00008B100F0AFFD0348008820F0010001497F
:101EE000088070BD100400404C00002080000020DD
:101EF00000000020000014C30C000020000044403B
:101F0000040000200000144038B52F48008800F07D
:101F10000100002856D02D49486802F0ABFC044669
:101F200022460B462AA0FEF761F9612201210846EC
:101F3000FFF7BAFC3D2202210120FFF7B5FC022089
:101F4000009022480223032142680120FFF7E6FCAB
:101F50002148006801282FD100F019F9D8B10220DA
:101F600000F015F9B8B1032000F011F998B1042080
:101F700000F00DF978B1052000F009F958B10820FA
:101F800000F005F938B1072000F001F918B106207A
:101F900000F0FDF880B900200F49086000220621FA
:101FA000012000F085FB4FF4FA7000F0CDF801221B
:101FB0000621104600F07CFB0348008820F0010059
:101FC0000149088038BD0000100800404C00002086
:101FD00025660D0A0000000010000020054800885A
:101FE00000F0200028B10348008820F020000149BB
:101FF00008807047003801400548008800F0200044
:1020000028B10348008820F020000149088070476B
:10201000004400400548008800F0200028B1034833
:10202000008820F0200001490880704700480040E7
:10203000490050EAC12018BF04204A0D18BF40F0E3
:10204000010040F2FF72B2EB515F08BF40F00200A6
:10205000012808BF052070472DE9F0414F1E00EB15
:10206000C7010446D1E9000115461E4637F00602B5
:102070000DD02A46334602F0EDF87F1E04EBC7036D
:10208000D3E9002301F03CFE37F00602F1D1022F24
:1020900025D0042F13D0062F18BFBDE8F0812A46A3
:1020A000334602F0D7F8D4E90A2301F029FE2A4684
:1020B000334602F0CFF8D4E9082301F021FE2A4686
:1020C000334602F0C7F8D4E9062301F019FE2A4688
:1020D000334602F0BFF8D4E9042301F011FE2A468A
:1020E000334602F0B7F8D4E9022301F009FE2A468C
:1020F000334602F0AFF8D4E90023BDE8F04101F027
:10210000FFBD0000002213461046014901F0B4BE95
:102110000000F03F01F0F4BD0022134610461146C6
:1021200001F0AABE40F2013200204FF0E04102F07F
:102130004ABF0000024A0020110702F044BF00001D
:1021400001FDFFFF00BF704700B5034603E04FF4F9
:102150007A7000F005F8181EA3F10103F7D100BD55
:1021600000EBC001C9004FF0E022516100219161F4
:102170000521116100BF4FF0E021096901F48031B0
:102180000029F8D004214FF0E0221161704770B5AA
:1021900004460025092C56D2DFE804F055050F1936
:1021A000232D37414B000C21012000F09DF901281F
:1021B00001D1012500E0002545E00D21012000F0BE
:1021C00093F9012801D1012500E000253BE00E2113
:1021D000012000F089F9012801D1012500E0002546
:1021E00031E00F21012000F07FF9012801D1012504
:1021F00000E0002527E00821002000F075F9012803
:1022000001D1012500E000251DE00D21022000F094
:102210006BF9012801D1012500E0002513E00E2112
:10222000022000F061F9012801D1012500E000251C
:1022300009E00F21022000F057F9012801D1012502
:1022400000E0002500BF00BF284670BD10B5002289
:102250000121062000F010F801220321002000F0E7
:1022600055F9002201210C2000F006F80122052179
:10227000002000F04BF910BD2DE9F04704460E4652
:102280001746032194FBF1F0C11700EB91718910FF
:10229000A0EB810189064FEA1168032194FBF1F05C
:1022A000C11700EB9171C1F38705204600F06AF871
:1022B0003148806940F001002F4988614FEAB13010
:1022C00050F825000F2101FA08F188432B4941F805
:1022D0002500032094FBF0F100FB114088B103209E
:1022E00094FBF0F100FB1140401E012101FA00F0C7
:1022F00000FA08F0214951F8251001431F4840F821
:102300002510032094FBF0F1012088401C49096846
:1023100008431B49086066B9032094FBF0F10120D3
:102320008840174908310968084315490831086091
:102330000BE0032094FBF0F10120884010490C31A0
:10234000096808430E490C310860032094FBF0F043
:1023500004280ADC032094FBF0F0801D00F0FF0944
:1023600049463846FFF790F903E017213846FFF752
:102370008BF9BDE8F0870000001002400800014022
:102380000004014010B50446182C12D2DFE804F016
:102390000C12181E242A30363C42484E545A6066AD
:1023A0006C72787E848A909601220021084600F0A3
:1023B000ADF889E001220021104600F0A7F883E083
:1023C00001220021022000F0A1F87DE00122114647
:1023D000002000F09BF877E001221146104600F043
:1023E00095F871E001221146022000F08FF86BE0B1
:1023F00001220221002000F089F865E0012202217B
:10240000104600F083F85FE001220221084600F048
:102410007DF859E001220321002000F077F853E015
:1024200001220321104600F071F84DE00122032142
:10243000022000F06BF847E001220421002000F0A8
:1024400065F841E001220421104600F05FF83BE00E
:1024500001220421022000F059F835E00122052173
:10246000002000F053F82FE001220521104600F073
:102470004DF829E001220521022000F047F823E071
:1024800001220621002000F041F81DE00122062172
:10249000104600F03BF817E001220621022000F070
:1024A00035F811E001220721002000F02FF80BE0A1
:1024B00001220721104600F029F805E0012207213A
:1024C000022000F023F800BF00BF10BD00BF054A86
:1024D000128802F04002002AF9D0C2B2014B1B1D43
:1024E0001A8070470038014010B50246064850F87F
:1024F0002200806801248C4000EA04030BB1012013
:1025000010BD0020FCE700002400002070B5654CE1
:10251000A469042585402C43624DAC6108295DDA2D
:10252000614C54F8204024688E000F25B540AC4320
:102530005D4D55F820502C601AB1032A01D0022AB3
:102540000FD10124944044F003048D00AC40564D5B
:1025500055F820502D682C43534D55F820502C60D1
:102560009FE0012A01D0042A2AD14F4C54F8204080
:1025700024688E000825B5402C434B4D55F820505B
:102580002C60012A0ED1484C54F82040E468012503
:102590008D4024EA050301248C401C43424D55F82C
:1025A0002050EC60042A7CD13F4C54F82040E56870
:1025B00001248C40A5433C4C54F82040E56070E079
:1025C000042494408D00AC40374D55F820502D68C0
:1025D0002C43354D55F820502C6062E0324C54F8B5
:1025E00020406468A1F10805AE000F25B540AC435A
:1025F0002D4D55F820506C601AB1032A01D0022AE3
:1026000011D10124944044F00304A1F10805AD0068
:10261000AC40254D55F820506D682C43224D55F89F
:1026200020506C603DE0012A01D0042A2AD11E4CC2
:1026300054F820406468A1F10805AE000825B540B3
:102640002C43194D55F820506C60012A0CD1174CC1
:10265000256801248C4025EA040301248C401C4396
:10266000114D55F82050EC60042A1AD10E4C54F844
:102670002040E46801258D40AC430B4D55F82050B7
:10268000EC600EE004249440A1F10805AD00AC40DC
:10269000054D55F820506D682C43034D55F82050DA
:1026A0006C6070BD00100240240000200C08014046
:1026B00030B57AB10D4C54F82040E46801258D40C6
:1026C00024EA050301248C401C43084D55F8205092
:1026D000EC600AE0054C54F82040E46801258D4088
:1026E000AC43024D55F82050EC6030BD2400002072
:1026F00010B501220C211046FFF708FF01220D2121
:102700001046FFF703FF01220E211046FFF7FEFEE1
:1027100001220F211046FFF7F9FE012208210020B7
:10272000FFF7F4FE01220D210220FFF7EFFE012248
:102730000E210220FFF7EAFE01220F210220FFF7FF
:10274000E5FE10BD08B500BF00F0BEF8FFF77EFD46
:1027500000224FF4E131104601F02CFA3148324B9F
:10276000324A00210090324800F044FA2D482E4BA6
:102770002E4A002100902F4800F03CFA4FF07C5088
:102780002D4BDA02002100902C4800F033FAFFF7BD
:1027900018F8FEF79FFFFFF7ABFFFEF711FEFEF7FD
:1027A000E7FE3EE06420FFF7CFFC792201210846D6
:1027B000FFF77AF8612202210120FFF775F87722EE
:1027C00003210120FFF770F83D2204210120FFF7CB
:1027D0006BF80220032300901948012102680220AF
:1027E000FFF79CF83F20FEF7FBFE824601F0E2FC7B
:1027F00006460022134B01F03FFB04460022124B19
:1028000001F028FD804601F049FA0D4908600846AC
:10281000006802F02FF8044622460B460BA0FDF795
:10282000E5FCBFE70000A04000002A430000A041F3
:102830004C0000208000002000004843B40000202D
:102840000C0000200000E040008066407961773A8B
:1028500025660D0A0000000010B50446A2B2002152
:10286000084600F0DDFF0948027806210020FFF746
:102870001FFF0648007808B9012000E0002002464A
:1028800007210020FFF714FF10BD000014000020F6
:1028900010B50446A2B20121002000F0C1FF094892
:1028A000027800210120FFF703FF0648007808B9ED
:1028B000012000E00020024601210846FFF7F8FE53
:1028C00010BD00001500002010B54FF47A720021F1
:1028D000084600F097FE002206211046FFF716FE7C
:1028E000002207211046FFF711FE4FF47A720121F2
:1028F000002000F087FE002211460120FFF706FEAF
:10290000002201210846FFF701FE10BD70B5054603
:102910000C46002D08DB012011490870284602F002
:1029200041F91049086007E000200D49087068422D
:1029300002F038F90B490860002C08DB01200A4935
:102940000870204602F02EF90849086007E00020D0
:1029500005490870604202F025F90449086070BD1D
:10296000140000204C0000201500002080000020F2
:102970002DE9F0410446D4E9000102F07BFAA060A1
:10298000206B01282DD1D4E9020102F073FA05462B
:10299000616902F067F92062A168A06902F062F93A
:1029A000A0624FF08040E16802F05CF90746A16840
:1029B00002F055FA0646216901F088FF0546E169F3
:1029C00002F050F96062A16A206A01F07FFF0646BA
:1029D000616A01F07BFF0546E16A01F077FFE06282
:1029E00021E0206BF8B9A168606902F03BF9206230
:1029F000A168A06902F036F90546A16A01F066FFF8
:102A0000A062D4E9020102F035FA0546E16902F05C
:102A100029F96062A16A206A01F058FF0546616ADF
:102A200001F054FFE062E1682161A168E160BDE866
:102A3000F081000010B500F0A3FF2148007830B10C
:102A40002048006802F0AEF81F49486006E01D48C3
:102A50000068404202F0A6F81B4948601B48007815
:102A600030B11B48006802F09DF81A49486006E042
:102A700017480068404202F095F816494860002067
:102A800010490860124908600F48FFF771FF1148AC
:102A9000FFF76EFF0C4800F0B5F80E4800F0B2F8F2
:102AA0000949C86A02F042F80446FFF7D5FE094911
:102AB000C86A02F03BF80446FFF7EAFE10BD0000CA
:102AC00014000020180000204C00002015000020F9
:102AD0001C000020800000202DE9F0410446204623
:102AE00002F060F83A4908603A48006848600846D1
:102AF000FFF73EFF3649C86A01F0BCFE21F00041F5
:102B000005460022344B01F0A3FC0ED23049C86ABE
:102B1000002102F073F804D24FF040402C49C86203
:102B200003E04FF080402A49C8622949C86A01F091
:102B3000FDFF07462648C06A80F00046304601F097
:102B4000F5FF05463946FFF7E1FE2448007830B12D
:102B50002348006802F026F82249486006E0204831
:102B60000068404202F01EF81E4948601E48007886
:102B700030B11E48006802F015F81D49486006E0B3
:102B80001A480068404202F00DF8194948600020D8
:102B900013490860154908601248FFF7E9FE144818
:102BA000FFF7E6FE0F4800F02DF8114800F02AF874
:102BB0000C49C86A01F0BAFF0546FFF74DFE0C4903
:102BC000C86A01F0B3FF0546FFF762FEBDE8F08179
:102BD000B40000200C00002000001440140000206D
:102BE000180000204C000020150000201C000020D0
:102BF0008000002010B5029C016342618361C461C2
:102C000010BD000010B504460749E06A02F0F6F86E
:102C100001D80548E0620021E06A01F0EFFF01D829
:102C20000020E06210BD0000005043472DE9F04D48
:102C30001D460C4698B0174621F0004123F0004392
:102C4000002814BF4FF0010C4FF0000C0CEB440CAB
:102C5000FE4A0CEB02064FEA620C66452BD33E009F
:102C600018BF012606EB45061644F94A964222D3C0
:102C7000F84A53EA070C02D0944205D148B918B07B
:102C800000201146BDE8F08D002808BF4FF0000C71
:102C900001D04FF0010C0CEB440212F5001F0AD8D2
:102CA000002F14BF4FF0010C4FF0000C0CEB45024D
:102CB00012F5001F07D918B03A462B462146BDE849
:102CC000F04DFFF727BA0022DFF88CA3002CB8BF25
:102CD000534526DADFF884C36345A8BF022220DA11
:102CE000DFF870C39C451CDCDFF874C30CEB235C7D
:102CF000BCF1140F08DDCCF1340627FA06FC0CFAFF
:102D000006F6BE420DD108E05FB9CCF1140623FAF5
:102D100006FC0CFA06F69E4203D10CF00102C2F149
:102D2000020251EA000C19D1002D17DA002C18BF4D
:102D3000022A01D0012A07D00220FDF7DCFA18B0E0
:102D4000BDE8F04DFFF7DEB90220FDF7D4FAFFF73A
:102D5000D9F918B081F00041BDE8F08DB7F1000C51
:102D60006CD1534525D104F1804212F5801201BF88
:102D700000280020B74918B008BFBDE8F08DB5485D
:102D8000884207DC002DA1BF6046294618B0BDE887
:102D9000F08D07E0281E05DA80F0004118B060468B
:102DA000BDE8F08DAF497944D1E9000118B0BDE824
:102DB000F08DDFF8A0C2634525D1002D1FDA19B1CF
:102DC000514512D1D8B909E0002840F0EC82A24A5E
:102DD000214618B062F31E01BDE8F08D00202146A7
:102DE00018B060F31E01BDE8F08D08DA18B0234674
:102DF000BDE8F04D02460020614601F03DB818B034
:102E00002146BDE8F08D514518DAB5F1804F0DD05F
:102E1000A5F1005CBCF1FF5C10D1B4F1000C0DDB3E
:102E200018B06146BDE8F04D00F084BD234618B0EF
:102E30000246BDE8F04D194601F00CBA060024F038
:102E4000004C3BD1D9B1514533D1002C06DD002DCA
:102E5000A1BF0020514618B0BDE8F08D002C01DD67
:102E6000002D1BDB002C13DA002D11DB012A4FF0A3
:102E7000000014BF78497C4918B0BDE8F08D022AE3
:102E800018BF002C0AD0012A08D1002C06DA0AE06B
:102E9000002CB8BF002D11DA012A04D0002018B090
:102EA0000146BDE8F08D18B000204FF00041BDE8AC
:102EB000F08DA1F14050B0F17F601AD0012000EBFD
:102EC000E47050EA020421D0624C521E4FF0000B15
:102ED000104304BF4FF0000B644C654883427CDD17
:102EE000644A654893421FDD884217DB002D25DBCD
:102EF00037E0002C00DA4AB1022A0CBF01204FF063
:102F0000FF3018B0BDE8F04D01F03DB90120FDF7EC
:102F1000F2F918B0BDE8F04DFFF7FEB84D4A8A420D
:102F200002DC002D0ADC1CE0814202DA002D18DAF6
:102F300004E0484B994220DD002D12DD0220FDF710
:102F4000DAF9FFF7EFF805460E46002253465846D9
:102F5000214601F07FF918B066F31E012846BDE84E
:102F6000F08D0220FDF7C7F9FFF7E4F80A46214685
:102F700018B062F31E01BDE8F08D002230466146B4
:102F800001F08EFB80460E466FF0010202F01BF846
:102F90004FF05532394B01F091FA4246334601F079
:102FA00059F90022364B01F089FA824642463346EF
:102FB00004911046194601F04DF95246049B01F068
:102FC00049F98A4600904FF0C0422E4B40463146A8
:102FD00001F040F92C4A2B4B00E027E0CDE9060137
:102FE0005146009801F036F982460191274A284B54
:102FF0004046314601F02EF95246019B01F050FB4C
:1030000082460B4602460591DDE9060100F078FE96
:10301000DDE9062300268846304601F041FB524692
:10302000059B01F04BFA024600F07EB90020B1F595
:10303000801F07DA35223046614601F0C4FF06469C
:103040006FF0340000EB215024E00000FFFF1F0070
:10305000FFFF0F000000F03F0000F07F0000404342
:1030600001FCFFFF262900000000F0FF0000F0BF78
:103070000000E0410000F043FFFFEF3F5555D53F12
:103080000000E03F4715F73FFE822B6544DF5DF807
:103090000BAE543EA0F2FF300190C1F3130040F09C
:1030A0007F6141F040510291FE498842D8BF002023
:1030B00004DDFD498142C8BF012001DD0D9008E01B
:1030C00000200D900198401C01900298A0F58010FE
:1030D00002900299F54878440B910D9900EBC100DC
:1030E000D0E900230F9330460A920B9901F0D8FAE9
:1030F000CDE90601DDE90A2130460F9B00F000FE14
:1031000002460B460020EA4900F0B6FE0591024651
:103110000B460090DDE9060101F09CF81490E548AB
:103120008A464FF0000878440299006812904FF0E8
:10313000005040EA61010D980F9B01EB804000F5C3
:10314000002109910A9A129801F0AAFA32460B9BC3
:1031500001F0B4F94246534601F07CF8064602916C
:1031600040465146099B129A01F074F8DDE90623A6
:1031700001F0A4F93246029B01F092FA059B009AF5
:1031800001F068F80091149A0490534610461946CD
:1031900001F060F806460246C7480B460291062138
:1031A0007844FEF759FFCDE90510029B32461046E0
:1031B000194601F04FF8DDE9053201F04BF80591B1
:1031C0000646534640461946149A00F099FD009B66
:1031D000049A01F03FF83246059B00F091FDCDE9DD
:1031E0000510424653461046194601F033F80022B6
:1031F000B24B02910A9000F083FDDDE9053200F048
:103200007FFD0E464246AD4B404601F049FA029B17
:103210000A9A01F045FADDE9053201F04FF942461C
:1032200002910A9033461046514601F013F8CDE959
:1032300006015346149A02990A9801F00BF88A463F
:103240000290334642460099049801F003F8534631
:10325000029A00F055FD82460B4602460591DDE9D3
:10326000060100F04DFDDDE90623002088460646F4
:1032700001F016FA5246059B01F020F982460991A9
:103280004FF060428E4B3046414600F0E3FF049021
:1032900006918C4A8A4B5046099900F0DBFF824622
:1032A0000291894A894B3046414600F0D3FF52468D
:1032B000029B00F025FD864B7B440D9A03EBC20375
:1032C000D3E9002300F01CFD0E900791019800F057
:1032D0005AFF0591DDE9061382460E9A049800F024
:1032E0000FFD7C4A7A440D9B02EBC303D3E9002314
:1032F0000093029200F004FD5246059B00F000FD91
:103300000026884652463046059B01F0C9F9009BCD
:10331000029A01F0C5F9069B049A01F0C1F9079BD6
:103320000E9A01F0CBF8024600200B460290384678
:10333000294600F08FFF824601912B4638461946F8
:10334000029A01F0ADF93246434600F083FF52463F
:10335000019B00F0D5FC07468A4632464346294683
:10336000029800F077FF05460E463A46534600F0B5
:10337000C7FC594A8846914221DBA8EB020353EA75
:10338000000210D12A46334601F08AF9CDE9040142
:10339000524A534B3846514600F0B2FCDDE9042353
:1033A00001F056F821D20220FCF7A5FFFEF7BAFE85
:1033B0000A46214618B062F31E01BDE8F08D494B64
:1033C00028F000429A4210D3474A08EB020353EA1E
:1033D00000027FF4C6AD2A46334601F061F93A4651
:1033E000534601F035F87FF6BCAD0022019228F07B
:1033F00000403E493E4A01EB2051824223DA481CFC
:103400004FF4801121FA00F040443A4AC0F30A51C7
:103410007A44394BA1F2FF31CB4020EA0303C0F3D9
:10342000130040F48010C1F11401C84012680190EB
:10343000B8F1000FBCBF404201902846314601F070
:103440002FF905460E462A4633463846514600F0C7
:1034500057FC4FF000084246284B4046059100F0CB
:10346000F9FECDE90601264A264B4046059900F0B3
:10347000F1FE009102902A4633464046059901F03C
:103480000FF93A46534601F019F81F4A1F4B00F056
:10349000E1FE009B029A00F033FC07468846024694
:1034A0000B4635E08E9803007AB60B006E250000BF
:1034B0000000F03FA6250000D424000000000840D2
:1034C00009C7EE3FFD033ADCF5015B14E02F3EBE79
:1034D000AC2300007023000000009040FE822B65AA
:1034E0004715973C00CC904000346F3F01FCFFFF34
:1034F0000000E03FBC220000FFFF0F00432EE63F2C
:10350000396CA80C615C20BEEF39FAFE422EE63F12
:10351000DDE9060100F0F4FBDDE9062305460E4671
:1035200001F0BEF83A46434600F0C8FF0F462A466F
:10353000334600901046194600F08CFE8246024643
:103540002E4888460B4605217844FEF785FD5246F5
:10355000434600F07FFE2A46334600F0AFFF804628
:103560008A463B4628463146009A00F073FE3B46A9
:10357000009A00F0C5FB0691009000224FF08043B6
:103580004046514601F08CF80F460C904246534697
:103590002846314600F05EFE3B460C9A00F06CFC7B
:1035A000069B009A01F07CF82A46334601F078F831
:1035B0000022134B00F082FF054601980E4601EBF6
:1035C00000510815002810DC28463146019A01F008
:1035D000FAFCFEF72DFD042808BFFEF7ABFD2846D8
:1035E0003146019A01F0EFFC05460B4618B02A4619
:1035F00058462146BDE8F04D00F02CBE5C2100008D
:103600000000F03F2DE9F04104460D4616462846DD
:10361000E91705EB91718910A5EB8101491CCFB227
:103620005148C0690121A14008434F49C8614F4832
:1036300090FBF6F0401E4E4951F824108885472033
:103640004B4951F824100885284600F093F8012FC3
:1036500006D0022F1ED0032F36D0042F69D14DE0A3
:10366000434850F82400008B40F06000404951F876
:10367000241008833E4850F82400008B40F00800D6
:103680003B4951F8241008830020394951F824108F
:1036900088864EE0364850F82400008B40F4C04045
:1036A000334951F824100883314850F82400008B26
:1036B00040F400602E4951F82410088300202C4962
:1036C00051F82410088734E0294850F82400808BF2
:1036D00040F06000264951F824108883244850F8AF
:1036E0002400808B40F00800214951F82410888381
:1036F00000201F4951F8241088871AE01C4850F810
:103700002400808B40F4C040194951F8241088836C
:10371000174850F82400808B40F40060144951F899
:10372000241088830020124951F82410A1F8400089
:1037300000BF00BF0E4850F82400008C791E8A009C
:103740000121914008430A4951F82410088408488F
:1037500050F82400008840F08100054951F82410F9
:103760000880BDE8F08100000010024040420F00D8
:103770003000002010B504460C2C4FD2DFE804F0D6
:10378000060C12181E242A30363C4248032200211F
:103790000846FEF7BBFE41E0032201210020FEF7B0
:1037A000B5FE3BE0032202210020FEF7AFFE35E02C
:1037B000032211460020FEF7A9FE2FE00322062176
:1037C0000020FEF7A3FE29E0032207210020FEF7D8
:1037D0009DFE23E0032200210120FEF797FE1DE05D
:1037E000032201210846FEF791FE17E0032206217D
:1037F0000120FEF78BFE11E0032207210120FEF7D6
:1038000085FE0BE0032208210120FEF77FFE05E084
:10381000032209210120FEF779FE00BF00BF10BD81
:103820002DE9F84F04460D4617462846E91705EBE3
:1038300091718910A5EB8101491C01F0FF084CF240
:103840005030874200DB0746384850F82400868D08
:10385000B8F1010F09D0B8F1020F1DD0B8F1030F74
:1038600031D0B8F1040F5DD144E0701C01F09AF939
:103870008346384601F0AEF92D49009001F094F8E6
:103880008246594601F0EEF9814601F06BF927496D
:1038900051F82410888645E0701C01F083F90090EF
:1038A000384601F097F98346214901F07DF88246B8
:1038B000009901F0D7F9814601F054F91B4951F8FC
:1038C000241008872EE0701C01F06CF90090384637
:1038D00001F080F98346164901F066F882460099A6
:1038E00001F0C0F9814601F03DF9104951F824106A
:1038F000888717E0701C01F055F90090384601F0F8
:1039000069F983460A4901F04FF88246009901F0AF
:10391000A9F9814601F026F9044951F82410A1F8CB
:10392000400000BF00BFBDE8F88F0000300000205D
:10393000005043472DE9F04106460F4600F0CAFD0E
:10394000041E0D4618BF0120284320F00040C0F19E
:103950007F6000F1E040C00F0ED0301C18BF012086
:10396000384320F00040C0F17F6000F1E040C00F1C
:1039700004BF0120FCF7BFFC20462946BDE8F081CA
:1039800010B50420FEF703FC40B90520FEF7FFFB4D
:1039900020B904210846FEF7B9FFB9E00420FEF77C
:1039A000F6FB40B90520FEF7F2FB20B1042103200D
:1039B000FEF7ACFFACE00420FEF7E9FB40B10520C8
:1039C000FEF7E5FB20B903210420FEF79FFF9FE0EF
:1039D0000320FEF7DCFB40B10420FEF7D8FB20B942
:1039E00004210320FEF792FF92E00520FEF7CFFBB3
:1039F00040B90820FEF7CBFB20B904210520FEF7D3
:103A000085FF85E00320FEF7C2FB40B90420FEF7E6
:103A1000BEFB20B104210220FEF778FF78E00520EC
:103A2000FEF7B5FB40B10820FEF7B1FB20B903213A
:103A30000420FEF76BFF6BE00220FEF7A8FB40B905
:103A40000320FEF7A4FB20B905210220FEF75EFF4C
:103A50005EE00820FEF79BFB40B90720FEF797FBCE
:103A600020B902210420FEF751FF51E00220FEF7A9
:103A70008EFB40B90320FEF78AFB20B1042102200F
:103A8000FEF744FF44E00820FEF781FB40B1072029
:103A9000FEF77DFB20B902210520FEF737FF37E056
:103AA0000120FEF774FB40B90220FEF770FB20B93D
:103AB00005210220FEF72AFF2AE00720FEF767FB18
:103AC00040B90620FEF763FB20B902210520FEF76E
:103AD0001DFF1DE00120FEF75AFB40B90220FEF752
:103AE00056FB20B105210220FEF710FF10E0072051
:103AF000FEF74DFB40B10620FEF749FB20B902213D
:103B00000520FEF703FF03E004210846FEF7FEFE52
:103B100010BD00002DE9F04F89B081468A46B9F109
:103B2000000F01D11F4C00E01F4C4FEA0A1094FB1C
:103B3000F0FB584600F03EFBCDE90401504600F092
:103B400022FB07460022194B00F084FB05460E4677
:103B5000204601F027F8074600F08CFE2A4633463F
:103B6000CDE9000100F088F9CDE90201DDE9042387
:103B700000F096FDCDE9060100F090F808904FF0B6
:103B80008341089801F06EF80890089800F0EAFF69
:103B900000EB0B10064951F82910088109B0BDE867
:103BA000F08F000000A24A040051250200003040BE
:103BB0003C00002070B504460E46154634B9144842
:103BC000806940F480401249886108E01048C0696B
:103BD00004F1100101228A4010430D49C8612046BA
:103BE00000F01AF831462046FFF794FF094850F8D4
:103BF0002400808942F22C010843064951F8241020
:103C0000888104F12500C1B22846FDF73DFD70BD55
:103C1000001002403C00002010B5044624B1012CE5
:103C20000DD0022C21D115E0032209210020FEF73E
:103C30006DFC04220A210020FEF768FC15E0032237
:103C400002210020FEF762FC042203210020FEF77F
:103C50005DFC0AE003220A210120FEF757FC042242
:103C60000B210120FEF752FC00BF00BF10BD000079
:103C700010B500290AD00878002807D005487844F4
:103C8000FCF708FF002801D0002010BD024878444E
:103C900010BD00000E1B0000061B000021F00042BA
:103CA000A2F16052B2F5801F01F0004328BFD2F1AB
:103CB0007F6C0BD95FEA001C43EAC20242EB5070F2
:103CC00018BF704728BF20F001007047B2F5801F71
:103CD000BCBF184670474FEA410C1CF5001F02D2CA
:103CE000084601F086B870B500F05EFB0000008960
:103CF000FFF7F6BF4FF00040A0F5800070470000CE
:103D000010B591EA030F48BF83F0004300F1D0845F
:103D1000841A71EB030C05D2121943EB0C03001B40
:103D200061EB0C01DFF824E14FEA1154A4EB135CC2
:103D30001EEA430F18BF9EEA445F73D023EA0E03C6
:103D4000DCF1200E21EA045143F4801332D322FA2D
:103D50000CFE10EB0E0023FA0CFE41EB0E01CCF131
:103D6000200E03FA0EFE10EB0E0051F10001B1F52A
:103D7000801FCCF1200E32D201EB045112FA0EF268
:103D8000BDE8104058BF7047401C38BF5FEA420290
:103D900018BF7047002814BF20F0010041F1000156
:103DA0004FEA410313F5001F38BF7047A1F1C0412E
:103DB00000F048BB012A43EB0302ACF1200CDCF11C
:103DC0001F0E32BF4FF0000E23FA0CF310EB03006E
:103DD00041EB0451B4EB115FD0D0A1EB045101F5DC
:103DE000801149085FEA300001EB04510ED350F115
:103DF000000038BF12FA0EFE08D1BDE81040C9E736
:103E0000401C38BF5FEA4202CAD1C3E7BDE8104098
:103E10004FEA410313F5001F38BF7047A1F1C041BD
:103E200000F010BB9EEA445F08D011EA5E0FBDE8C7
:103E3000104004BF01F0004100207047BDE8104071
:103E400070B500F0B1FA00BF64FBBE3E0000E0FFB9
:103E500002494FF0000001F084B800BF0000F87F75
:103E6000491058BFC1F140415B1058BFC3F14043F6
:103E70008B42EFF3008070472DE9C04130B4DFF88A
:103E8000A0C23CEA111418BF3CEA131400F0EC8005
:103E900081EA03051CEA111444EAD57418BF1CEA30
:103EA000131500F0C780A4EB05044FF0004545EA68
:103EB000C12145EAC32341EA505143EA525304F178
:103EC0007F74994204F500344FEAC0204FEAC222C1
:103ED00008BF904200F09C804FEA13650FF2401635
:103EE000765D4FEA134506FB05F7C7F1807706FBC1
:103EF00007F74FEAD737A7FB03687642C8F5803843
:103F0000A7FB06CE38BFA8F1010807FB08E64FF073
:103F1000000EA6FB028CE6FB03CEDCF1000CCEF11A
:103F2000004E38BFAEF1010EA6FB0C584FF0000753
:103F30004FF00005E6FB0E87A1FB08C6A0FB07CEED
:103F400016EB0E0645F10005E1FB076515F1E04EA5
:103F50007EBFA4F580345FEA46066D4116F1800706
:103F600045F100054FEA17274FEA066647EA05675D
:103F7000A6F1DE46B6F1805F4FEA15251FD9384617
:103F800024F0010C05EBC471BCF1FE6F01EB0C11C8
:103F900002D8F0BCBDE8008124425CBF01F5801E60
:103FA0009EEAC47F02D4F0BCBDE80081244238D42C
:103FB000F0BCA1F1C041BDE8004100F043BA4FEAB6
:103FC000D22242EA43524FEAD323A7FB02864FEAAA
:103FD000D02040EA415007FB03661EEA0E0F4FEA6D
:103FE000D12105FB026658BFA6EB0056B6EB005682
:103FF0004FEA520E4EEAC37E18EB0E0E56EB530EEE
:10400000BDD518EB02085E417F1C55F10005B6E7EF
:104010004FF480154FF000074FF000064FF00008F6
:10402000ADE7F0BC4FF0000001F1C04101F00041EC
:10403000BDE8008111EA0C1F0CEA131500D00CE05A
:1040400013EA0C1F00F025804FF00000F0BC81EA5D
:10405000030101F00041BDE80081F0BCBDE8004172
:1040600081EA030100F0EEB9F0BCBDE8004170B593
:1040700000F09AF9097EFC3E00F007B881EA0301DE
:104080004FF0000001F00041704781EA030100F0A9
:10409000D9B9F0BCBDE800414FF00000214970479C
:1040A000FFFDFBF9F7F5F4F2F0EEEDEBE9E8E6E4FD
:1040B000E3E1E0DEDDDBDAD8D7D5D4D3D1D0CFCD84
:1040C000CCCBCAC8C7C6C5C4C2C1C0BFBEBDBCBBBD
:1040D000BAB9B8B7B6B5B4B3B2B1B0AFAEADACABB8
:1040E000AAA9A8A8A7A6A5A4A3A3A2A1A09F9F9E92
:1040F0009D9C9C9B9A999998979796959594939344
:10410000929191908F8F8E8E8D8C8C8B8B8A8989DA
:10411000888887878685858484838382828181805D
:104120000000FF070000F87F4FEA41034FEA5353B6
:10413000A3F58063D3F11E03C8BFD3F1210C0CDDBE
:104140004FF0004242EAC12242EA505232FA03FCE6
:104150008CEAE17CACEBE1707047102BC4BF00200F
:10416000704703F5787CBCF1FF3F04D06FF000424C
:1041700082EA2100704770B500F016F94992248058
:1041800000207047F2E710F0004248BF4042B0FA0A
:1041900080F310FA03F10AD0C3F11D0303F5806325
:1041A0004FEA415002EB035202EBD12170474FF02E
:1041B00000007047B0FA80F310FA03F10AD0C3F19F
:1041C0001D0303F580634FEA41504FEA035202EBAF
:1041D000D12170474FF000007047000051EA030CF6
:1041E00017D41CF5801F58BFBCF5801F00F1068056
:1041F000994218BF704708BF9042704707D711F522
:10420000801F58BF13F5801F19D499427047894207
:1042100070471CF5801F08D5BCF5801FF7D58B4271
:1042200018BF704708BF824270474FF4001C1CEB58
:10423000410F38BF1CEB430F01D28B42704770B562
:1042400000F0B2F8922449004FF000514FF0805333
:10425000FFF706BEDFF848C170B51CEA111E1EBF8D
:104260001CEA13159EEA0C0F95EA0C0F00F06F8004
:1042700081EA030423EA4C134EEAD47E21EA4C116E
:1042800041F4801143F48013AE44A1FB024CA0FB27
:104290000365AEF17F7E361955EB0C05A1FB034C8F
:1042A0004CF10003A0FB021C16EB0C06654153F118
:1042B0000003094218BF46F0010613F4007F0BD13A
:1042C0004FEA03314FEA0530340341EA155140EA21
:1042D00016506FF003020AE04FEAC3214FEAC520EF
:1042E000F40241EA555140EA56506FF0020202EBE7
:1042F0002E4201EB025585EACE710AD05FEA440CEA
:1043000018BF24F0004450F1000041F1000120EA00
:10431000D47040F2FE7C624500D270BDA84214BF4A
:104320004FF080444FF04044002E08BF0024BEF1FF
:10433000806FA8BFA1F1C041BDE8704080F28280CB
:104340004FF0000001F1C04101F0004170479EEACA
:104350000C0F0CEA131518BF95EA0C0F06D04FF09E
:10436000000081EA030E0EF0004170BD00F01CF861
:104370008900013E00F007B800F009B84FEA430C8D
:104380005FEA5C5C08D081EA030100F05BB84FEAA9
:10439000410C5FEA5C5CF6D14FF0000001497047C8
:1043A0000000FF070000F87F0EF1020E2EF0030E52
:1043B0005EF8046B364205D4012A43EB030515F57C
:1043C000001F12D8012841EB010C1CF5001F0CD86E
:1043D0000ED14FEAD17C15F5001F0CEB4C0C0CF103
:1043E000020C08BF4CEBD37C04E04FF0080C01E05A
:1043F0004FEAD37C0CEB4C0526FA05F606F00706CF
:10440000B6F1040C06D20EEB860CBDE870404CF001
:10441000010C6047DFE80CF0090B02024FF000418D
:104420004FF00000A1F5002170BD1946104601288B
:1044300051EB010418BFD4F5001484BF002001F033
:10444000004170BD0808A0F500114FEA3101704726
:1044500053EA010C17D41CF5801F58BFBCF5801F10
:1044600000F106808B4218BF704708BF8242704738
:1044700007D713F5801F58BF11F5801F19D48B4241
:1044800070479B4270471CF5801F08D5BCF5801F04
:10449000F7D5994218BF704708BF904270474FF454
:1044A000001C1CEB430F38BF1CEB410F01D299429B
:1044B00070470FB40CBC03BCFFF7C1BE91EA030FF9
:1044C00010B581F000413FF523AC83F0004300F0CC
:1044D000EFB800002DE9F04101F5801CBCF5001F8C
:1044E000C0F2C3804FEA115C21EA0C510CF1FD0CC3
:1044F00041F480115FEA5C0C0CF5C07C01D34000F4
:1045000049413DA4890241EA905187028E0E0A0C6E
:10451000A45D04FB04F602FB06F6C6F14046A4FBCC
:104520000662F60D46EA422606FB06F4A4FB0123CA
:104530005242C3F1404338BF5B1EA6FB0242002437
:10454000E6FB0324D20B42EA4446A6FB0623A1FB6A
:1045500002E2A3FB07E4A4184FF0000252F10002AC
:10456000E3FB01426442C2F1404E38BFAEF1010E9E
:10457000A6FB04234FF00002E6FB0E32A2FB03462B
:104580004FF00004B61954F10004E2FB0264A1FBF1
:1045900006E6A4FB07E816EB08064FF0000858F102
:1045A0000008E4FB01687642C8F1405838BFA8F122
:1045B0000108A2FB06E4A3FB08E52D194FF0000457
:1045C00054F10004E2FB0854A1FB05E6A7FB04E854
:1045D00018EB06084FF0000656F10006E1FB0486D2
:1045E00018F1200556F10006A809A8F11B08B10929
:1045F00008F03F08B8F10A0F40EA86601CD901EBC9
:104600000C51BDE8F08100BFFCF5EEE8E2DDD8D347
:10461000CFCBC7C3C0BDB9B6B4B1AEACA9A7A5A333
:10462000A19F9D9B9A9896959392908F8D8C8B8944
:104630008887868584838281A0FB006800FB01F265
:1046400008EB4208B8EB872807D5341858EB01046B
:10465000D5D5401C51F10001D1E7341A78EB0104A3
:10466000CDD4401E71F10001C9E75FEA4C0C5FEA4E
:104670009C5C0DD105D34FF0000001F00041BDE876
:10468000F081BDE8F04170B5FFF78EFE6DDBFFBE37
:10469000BDE8F0414FF00000004970470000F87F8E
:1046A00010B591EA030F48BF83F000433FF530ABEC
:1046B000841A71EB030C07D212198CF0004C43EBF7
:1046C0000C03001B61EB0C01DFF8A4E14FEA11546D
:1046D000A4EB135C1EEA430F18BF9EEA445F00F090
:1046E000B08023EA6E03524221EA0451C3EB6E0309
:1046F00038BF5B1EDCF1200E25D322FA0CFE10EB36
:104700000E0043FA0CFE41EB0E01CCF1200E03FA31
:104710000EFE10EB0E0051F10001CCF1200E29D459
:1047200012FA0EF201EB0451BDE8104058BF704779
:10473000401C1CBFB2F1004F704700280CBF491C41
:1047400020F00100704712EB020E43EB030218BF8A
:104750004FF0010E4EEA4202ACF1200CDCF11E0ECD
:1047600054D943FA0CFE10EB0E0051F1FF31CCF19D
:104770001E0ED5D50EF1010E12FA0EFE404141EB90
:10478000010101EB445C5FEA5C5C10D910EBDE7068
:1047900001EB045138BFBEF1004FBDE8104018BF17
:1047A000704700280CBF491C20F00100704730D230
:1047B0004FEAD42C11F5001124F400641BD0B1FA97
:1047C00081F20B3AA41AA41ED2F12003914030FAD0
:1047D00003F31943904001EBCC71002C01EB045121
:1047E000BDE81040A8BF704701F1C0414FF0000084
:1047F00001F000417047B0FA80F310FA03F100D1E4
:1048000010BDE41A173C4805C90AE4E701EB04515E
:1048100010BD491001EB0451BDE810404FEA3000D3
:1048200002E04FF0000170474A0008BF0042F8D094
:10483000B2F5001F28BF704701F000414FF00000A3
:1048400070479EEA445F07D011EA5E0FBDE8104052
:1048500004BF002100207047BDE8104070B5FFF78D
:10486000A3FD00BF40DFF63E83F0004110467047D5
:104870000000E0FF43004FEAD30C4FEA3C0C4340FA
:104880001FBF40070CF1605113F0FE4F70471CF042
:10489000006F03D100200CF0004170470CF0004382
:1048A00043EA507010B540EACC0000F05CFA00BF5B
:1048B000000000924FEA0001FFF7C4BD4FF0004135
:1048C0004FF00000A1F500217047000090EA010FB1
:1048D00048BF81F0004100F1D482421A3CBF801AE7
:1048E00089184FEAD0524FF07F4C1CEA410FA2EBDF
:1048F000D15318BF9CEA026F00F03B804FF0004C90
:104900004CEA00204CEA012121FA03FC10EB0C0CCC
:104910001ED202F1FF325FEA1C2040EBC25038BFCA
:1049200070471CF07F0F4FEA400C18BFBCF17F4F5F
:1049300038BF7047C3F12003994008BF20F0010041
:10494000BCF17F4F38BF7047A0F1C04000F051BAB2
:104950004FEA3C00000A40EBC25028BF1CF0FF0F9A
:104960004FEA400CE6D018BFBCF17F4F38BF70470C
:10497000EAE79CEA026F05D010EA5C0F08BF00F07E
:104980000040704710B500F0EEF900BF64FBBE3E7A
:10499000401058BFC0F14040491058BFC1F14041DC
:1049A0008142EFF3008070474FF47F0C1CEAD01275
:1049B0001EBF1CEAD11392EA0C0F93EA0C0F00F011
:1049C000858090EA010F48BF42F4807240F4000CE9
:1049D00041F400002CF07F4120F07F4000B581427F
:1049E000A2EB03020FF2081CACEB504EC0F100002A
:1049F0009EF800E04FEA4E0E00FB0EFC38BF490067
:104A00004FEA2C1C02F5FA020CFB0EF34FEACE1E05
:104A10004FEA112C4FEAC1210EEB635E42EB2242BA
:104A20000EFB0CFC4FEA1C5300FB03114FEA112C48
:104A30004FEA01310EFB0CFC4FEADC4C00FB0C1181
:104A4000C14228BF09184CEB03335DF804EB10EBAF
:104A5000410143EBC250B2F57C0F38BF704729D5F6
:104A600012F0F00F1CBF00F1C04000F00040704792
:104A7000008182838485868788898B8C8D8E8F9137
:104A80009293959697999A9C9D9FA0A2A3A5A7A85B
:104A9000AAACAEB0B2B3B5B7B9BCBEC0C2C5C7C987
:104AA000CCCED1D4D7D9DCDFE2E6E9ECF0F3F7FAEB
:104AB000FE0000004FEA400C0CF1807CBCF17E4F00
:104AC00028BF7047B0F1C04000F093B990EA010FE1
:104AD0000CEAD11348BF42F48072624538BF634587
:104AE00007D213F47F0F16D080EA010000F00040D7
:104AF000704710B500F037F9097EFC3E00F005B8AC
:104B000080EA010000F00040704780EA010000F0F8
:104B1000004000F06EB912F47F0F04BF02487047E6
:104B200080EA010000F065B90000C07F41000B0E73
:104B3000D3F19E0208D950F400034FEA032323FA6D
:104B400002F048BF4042704710B500F00CF900BFBA
:104B500049922480002070476FF0004282EA2000D2
:104B600070470000C10DD1F19E0206DB4FEA002321
:104B700043F0004323FA02F07047004207D54FEAA2
:104B80004001B1F1FE4F02D24FF00000704710B566
:104B900000F0E9F849922480002070476FEA200075
:104BA0007047000010F0004148BF4042B0FA80F367
:104BB00010FA03F2C3F19D030BD051EAC35101EB8C
:104BC0001220530638BF704700F1010008BF20F0E3
:104BD00001007047B0FA80F310FA03F2C3F19D03AD
:104BE0000AD0D90501EB1220530638BF704700F1F7
:104BF000010008BF20F001007047000050EA010CDE
:104C000000F113801CF5000F58BFBCF5000F01D454
:104C10008842704707D710F5000F58BF11F5000FF5
:104C200015D488427047894270471CF5000F04D59F
:104C3000BCF5000FF7D5814270474FF0807C1CEB2C
:104C4000400F38BF1CEB410F01D28142704710B5B5
:104C500000F089F8922449004FF000504FF0805145
:104C6000FFF796BE4FF47F0C1CEAD0121EBF1CEA61
:104C7000D11392EA0C0F93EA0C0F00F0478090EAF0
:104C8000010F48BF42F480724FF0004C4CEA002004
:104C90004CEA012102EB0302A0FB0113A2F5000282
:104CA000002918BF43F001035B0028BF4FEA33031C
:104CB00042EB22425FEA132C4CEBC2502EBFBCEBFE
:104CC000436FB2F57C0F70474FEA036CBCF1004FA5
:104CD00008BF20F00100B2F57C0F38BF70470BD53C
:104CE00082F0FF0212F5803FC8BF704700F1C0405C
:104CF000D8BF00F00040704700F5000C5FEA4C0C94
:104D000048BF7047B0F1C04000F073B890EA010F9F
:104D10000CEAD11348BF42F48072624538BF634544
:104D200004D280EA010000F00040704710B500F0A6
:104D30001AF800BF8900013E00F007B800F009B87A
:104D40005FEA410C5FEA1C6C08D080EA010000F0C9
:104D500050B85FEA400C5FEA1C6CF6D14FF000409F
:104D6000A0F5800070470EF1020E2EF0030E5EF8E3
:104D7000044B244204D44FEA4102B2F17F4F11D8D0
:104D80004FEA4003B3F17F4F0CD80ED14FEAD07CED
:104D9000B2F17F4F0CEB4C0C0CF1020C08BF4CEB4A
:104DA000D17C04E04FF0080C01E04FEAD17C0CEB21
:104DB0004C0324FA03F404F00704B4F1040C06D203
:104DC0000EEB840CBDE810404CF0010C6047DFE8AE
:104DD0000CF0070802024FF00040A0F5800010BD63
:104DE0000846420018BFD2F1807288BF00F0004030
:104DF00010BDFF2141EAD050C005704751EA000CB8
:104E000000F113801CF5000F58BFBCF5000F01D452
:104E10008142704707D711F5000F58BF10F5000FFA
:104E200015D481427047894270471CF5000F04D5A4
:104E3000BCF5000FF7D5884270474FF0807C1CEB23
:104E4000410F38BF1CEB400F01D28842704780EA07
:104E5000010081EA000180EA0100FFF7F8BE80F05E
:104E6000004090EA010F7FF538AD81F0004100F07D
:104E700008B8000090EA010F48BF81F000413FF5FB
:104E80002CAD421A04D882F00042A0EB020011447B
:104E90004FEAD0524FF07F4C1CEA410FA2EBD153A6
:104EA00018BF9CEA026F4AD04FF0004C4CEA002039
:104EB0004CEA012121FA03FCB0EB0C0C0FD412F0E8
:104EC000FE0F36D05FEA4C001DD5001240EBC250F9
:104ED00038BF70471CF03F0F18BF70470BE0A2F1BE
:104EE00001025FEA1C2040EBC25038BF70471CF043
:104EF0007F0F18BF7047C3F12003994014BF401EB5
:104F000020F00100704780084FEA122308BF704765
:104F1000B0FA80FCA2EB0C02CCF1280C60FA0CF089
:104F200093EA122F04BF00EBC25070474FEAC370E0
:104F30007047130A5FEADC1008BF7047F6E79CEA87
:104F4000026F04D010EA5C0F08BF0020704710B554
:104F5000FFF709FF40DFF63E81F000407047FBF7A6
:104F600002BB0CF00F03092B08BF082000F059808A
:104F70000A2B0BD0082B18BF704708BF1CF0400F3E
:104F80000AD04FF000004FF0000170471CF0400FB6
:104F900018BF4FF0004070471CF0100F08D020F0F1
:104FA000704300F07F4242EAD3014FEA43707047FA
:104FB00000F0604021F07F4242EA000201F07F40B1
:104FC00040EA727070474FF0FF0C4CF4E06C1CEA42
:104FD00011531CBF9CEA030C9445C2BFDA4201EB9B
:104FE00002517047002B0DD0BCF1000F0FD0002AEA
:104FF00001F00041A4BF41F0E04141F07F614FF07A
:105000000000704701F000414FF00000704750EA87
:1050100001334FF09B0C18BF4CF0806C7EF418AF3E
:1050200070471CF4801F11D01CF4E02F03D06FEAEE
:10503000CC31490070474FF04050EFF3008222F02E
:10504000704242EA000282F3008870474FF000008D
:105050007047000000000000000000000000000099
:105060000000000000F800000000000000333000E5
:10507000000000100C06100C0600000000000000EC
:10508000000040C07840C0784000043F04043F0462
:105090000400007088FC08300000001820FF211E6A
:1050A0000000F008F000E018000000211C031E21A1
:1050B0001E0000F00888700000001E21232419271C
:1050C000211010160E00000000000000000000007B
:1050D0000000000000E01804020000000007182093
:1050E000400000020418E000000000402018070003
:1050F0000000404080F0804040000202010F0102A9
:105100000200000000F0000000000101011F010189
:105110000100000000000000000080B070000000EE
:10512000000000000000000000000001010101017A
:10513000010100000000000000000030300000000D
:1051400000000000000080601804006018060100E4
:10515000000000E010080810E000000F10202010F0
:105160000F00001010F8000000000020203F202059
:1051700000000070080808887000003028242221F0
:1051800030000030088888483000001820202011A6
:105190000E000000C02010F8000000070424243F87
:1051A000240000F808888808080000192120201130
:1051B0000E0000E0108888180000000F1120201158
:1051C0000E0000380808C83808000000003F000042
:1051D00000000070880808887000001C222121222D
:1051E0001C0000E010080810E0000000312222112D
:1051F0000F00000000C0C0000000000000303000C0
:10520000000000000080000000000000806000003E
:105210000000000080402010080000010204081077
:105220002000404040404040400004040404040486
:105230000400000810204080000000201008040234
:105240000100007048080808F00000000030360136
:105250000000C030C828E810E000071827242314F5
:105260000B000000C038E0000000203C23020227B1
:10527000382008F8888888700000203F20202011FE
:105280000E00C03008080808380007182020201039
:10529000080008F808080810E000203F202020102F
:1052A0000F0008F88888E8081000203F20202320FD
:1052B000180008F88888E8081000203F2000030044
:1052C0000000C03008080838000007182020221EFF
:1052D000020008F808000008F808203F2101012119
:1052E0003F20000808F8080800000020203F202088
:1052F000000000000808F8080800C08080807F00D7
:10530000000008F888C028180800203F200126382F
:10531000200008F8080000000000203F2020202086
:10532000300008F8F800F8F80800203F003F003F80
:10533000200008F830C00008F808203F20000718B7
:105340003F00E01008080810E0000F102020201097
:105350000F0008F808080808F000203F21010101AB
:105360000000E01008080810E0000F18242438504E
:105370004F0008F8888888887000203F2000030CC0
:1053800030200070880808083800003820212122C9
:105390001C00180808F8080818000000203F20002A
:1053A000000008F808000008F808001F202020204E
:1053B0001F000878880000C83808000007380E0170
:1053C0000000F80800F80008F800033C0700073C5C
:1053D0000300081868808068180820302C03032C0C
:1053E00030200838C800C83808000000203F2000DE
:1053F000000010080808C83808002038262120209E
:105400001800000000FE020202000000007F404081
:105410004000000C30C00000000000000001063811
:10542000C00000020202FE000000004040407F0079
:10543000000000000402020204000000000000005E
:10544000000000000000000000008080808080805C
:105450008080000202040000000000000000000044
:105460000000000080808080000000192422222299
:105470003F2008F8008080000000003F112020112C
:105480000E000000008080800000000E112020200F
:105490001100000000808088F800000E112020100C
:1054A0003F200000808080800000001F22222222F6
:1054B0001300008080F0888888180020203F20207A
:1054C00000000000808080808000006B94949493A2
:1054D000600008F8008080800000203F210000204C
:1054E0003F2000809898000000000020203F2020EE
:1054F0000000000000809898000000C08080807F3D
:10550000000008F8000080808000203F24022D3039
:105510002000000808F8000000000020203F2020A4
:1055200000008080808080808000203F20003F201D
:10553000003F8080008080800000203F210000200C
:105540003F200000808080800000001F202020205D
:105550001F00808000808000000080FFA1202011BB
:105560000E000000008080808000000E112020A02E
:10557000FF80808080008080800020203F212000EC
:1055800001000000808080808000003324242424D7
:105590001900008080E0808000000000001F2020B3
:1055A00000008080000000808000001F202020106C
:1055B0003F20808080000080808000010E3008063F
:1055C000010080800080008080800F300C030C3050
:1055D0000F0000808000808080000020312E0E317E
:1055E0002000808080000080808080818E7018067E
:1055F000010000808080808080000021302C2221EA
:10560000300000000000807C020200000000003F2B
:10561000404000000000FF00000000000000FF000C
:1056200000000002027C800000000040403F0000BB
:105630000000000601010202040400000000000056
:105640000000000000000000000000000000F03F2B
:10565000000000000000F83F000000000000000013
:105660000000004003B8E23F00000000000000001E
:1056700006D0CF43EBFD4C3E033333333333E33FAC
:10568000FFAB6FDBB66DDB3F4D268F515555D53FD8
:1056900001411DA96074D13F65DBC9934A86CD3FA6
:1056A000EF4E454A287ECA3F3E5555555555C53F94
:1056B00093BDBE166CC166BF2CDE25AF6A56113F86
:1056C000F16BD2C541BDBBBED0A4BE726937663E88
:1056D000000000000000000002400000000000A0E8
:1056E0000000000005400000000000C800000000AD
:1056F0000C4000000000409C000000001940000029
:105700000020BCBE0000000034400000BFC91B8E5A
:1057100000000004B5400000504BCFD06607E2CF38
:10572000010000006C4100003E8251AADFEEA73468
:1057300001000000D9420000DCB5A0E23A301F971A
:10574000FFFFFFFFB4450000FD25A0C8E9A3C14F3E
:10575000FFFFFFFFFF3F000000000080000000008F
:10576000FF3F00000000008000000000A857000874
:10577000000000204C00000028010008F457000839
:105780004C000020FC060000440100081C00000042
:1057900043000000F8FFFFFF0C0000000E000000B7
:1057A0000F0000002E0000000000000000000000BC
:1057B00000000000000000000000000001010000E7
:1057C0000000000000000000000000000008014090
:1057D000000C0140001001400000004000040040A7
:1057E00000080040003801400044004000480040EC
:0457F00000000000B5
:04000005080000ED02
:00000001FF
