:020000040800F2
:1000000058070020890100089101000893010008A9
:100010009501000897010008990100080000000000
:100020000000000000000000000000009B0100082C
:100030009D010008000000009F010008A1010008C8
:10004000A3010008A3010008A3010008A301000800
:10005000A3010008A3010008650200087D02000852
:1000600095020008D1020008E9020008A301000877
:10007000A3010008A3010008A3010008A3010008D0
:10008000A3010008A3010008A3010008A3010008C0
:10009000A3010008A3010008A3010008250300082C
:1000A000A3010008A3010008A3010008A3010008A0
:1000B000350D0008E510000869120008A3010008CA
:1000C000A3010008A3010008A3010008A301000880
:1000D000A30100087512000891120008AD12000873
:1000E000A3010008A3010008A301000800F002F822
:1000F00000F03AF80AA090E8000C82448344AAF188
:100100000107DA4501D100F02FF8AFF2090EBAE885
:100110000F0013F0010F18BFFB1A43F0010318473B
:100120005048000070480000103A24BF78C878C1D9
:10013000FAD8520724BF30C830C144BF04680C60ED
:10014000704700000023002400250026103A28BF35
:1001500078C1FBD8520728BF30C148BF0B60704739
:100160001FB51FBD10B510BD00F046F81146FFF7D2
:10017000F7FF01F025FC00F064F803B4FFF7F2FF8D
:1001800003BC01F02BF900000948804709480047EB
:10019000FEE7FEE7FEE7FEE7FEE7FEE7FEE7FEE737
:1001A000FEE7FEE704480549054A064B7047000094
:1001B000D50C0008ED000008580100205807002069
:1001C000580300205803002070477047704770475D
:1001D000704710B500F008F8006810BD10B504466F
:1001E00000F002F8046010BD00487047F8000020DD
:1001F00000487047F80000207546FFF7F9FFAE464B
:1002000005006946534620F00700854618B020B522
:10021000FFF7C8FFBDE820404FF000064FF0000791
:100220004FF000084FF0000B21F00701AC46ACE89E
:10023000C009ACE8C009ACE8C009ACE8C0098D460B
:10024000704710B50446AFF300802046BDE810406B
:10025000FFF793BFC10000BF0A1EA1F10101FBD14E
:10026000704700000448006800F0010010B1012050
:100270000149086070470000140401400448006808
:1002800000F0020010B10220014908607047000030
:100290001404014010B50C48006800F0040090B14F
:1002A0000321002001F05EFA28B108480068401ED2
:1002B0000649086004E005480068401C03490860DE
:1002C00004200149086010BD140401401C000020F6
:1002D0000448006800F0080010B1082001490860D7
:1002E000704700001404014010B50C48006800F08D
:1002F000100090B10521002001F034FA28B108481F
:100300000068401C0649086004E005480068401E7B
:100310000349086010200149086010BD1404014021
:10032000200000201548006800F0200010B12020B7
:10033000124908601148006800F0400010B14020E8
:100340000E4908600D48006800F0800010B1802060
:100350000A4908600948006800F4807018B14FF439
:100360008070064908600548006800F4007018B104
:100370004FF4007001490860704700001404014008
:1003800010B502220A21012001F0FEF902220B2100
:10039000012001F0F9F90948006820F4704007498C
:1003A00008600846006840F4405008600120044995
:1003B00008600449C1F8A80110BD0000040C014008
:1003C000AC8121420080214200B500200F49086025
:1003D0000F48006820F470400D4908600846006826
:1003E00040F44050086001200A49C1F8AC010520E2
:1003F000FFF730FF0120054908600520FFF72AFFBD
:1004000000200449C1F8A80100BD0000A8812142D4
:10041000040C01400080214270B5054600241748B5
:10042000006820F47040154908600846006840F4F0
:1004300000400860002616E00020114908600520F1
:10044000FFF708FF01200F49C1F8A8016006040E5C
:100450000B487C38006808B1601CC4B20520FFF767
:10046000F9FE701CC6B2082EE6DB15B100F00CF8E0
:1004700001E0FFF7A9FF204670BD0000040C014019
:10048000A88121420080214200B500200F49086068
:100490000F48006820F470400D4908600846006865
:1004A00040F44050086000200A49C1F8AC01052022
:1004B000FFF7D0FE0120054908600520FFF7CAFEBE
:1004C00000200449C1F8A80100BD0000A881214214
:1004D000040C01400080214230B5044615480068F4
:1004E00020F47040134908600846006840F440500A
:1004F0000860002010490860002517E0E0090E4957
:10050000091D08606006040E0220FFF7A3FE01200B
:100510000A49C1F8A8010520FFF79CFE0020064902
:1005200008600320FFF796FE681CC5B2082DE5DBC6
:1005300030BD0000040C0140A8812142008021420E
:1005400000B50F48006820F470400D490860084667
:10055000006840F44050086001200A4908600A49D8
:10056000C1F8A8010520FFF775FE002005490860C5
:100570000520FFF76FFE00200349C1F8A80100BD68
:10058000040C0140AC8121420080214200B50F489B
:10059000006820F470400D4908600846006840F487
:1005A0004050086000200A4908600A49C1F8AC01BF
:1005B0000520FFF74FFE0120054908600549C1F8F5
:1005C000AC010520FFF746FE00BD0000040C014011
:1005D000A88121420080214210B5002417480068FC
:1005E00020F47040154908600846006840F4004057
:1005F00008600120124908600520FFF72BFE0AE081
:10060000601CC4B2322C03DDFFF7C0FF012010BD17
:100610000520FFF71FFE0A48803800680028EFD148
:1006200001200749091F08600520FFF713FE00207D
:100630000449C1F8A80100BFE9E70000040C01402B
:10064000AC812142008021422DE9F0471C4800681E
:100650001C4908603F2000F061F8824602F0F8FE75
:1006600006460022184B02F055FD04460022174BA7
:1006700002F03EFF804602F05FFC1149086011481D
:1006800001680F48006803F043FD064603F040FA96
:1006900021F00041044602F04FFC0D490860084675
:1006A000006803F035FA04460A4A0B4B02F0E4FEF8
:1006B00003D30348006809490860BDE8F0870000DB
:1006C00008000020540000200000E0400080664048
:1006D00058000020FCA9F1D24D62803F0C000020A0
:1006E00070B5642000F07CFE00240FE0641C3F2005
:1006F00000F014F8064603F0BBFB0546054903F07D
:10070000FFFB05490860642000F06AFE0A2CEDDB5F
:1007100070BD00000000B43B5000002070B50646DC
:10072000FFF70EFFA020FFF7D7FEFFF755FF00B140
:100730001EE03046FFF7D0FEFFF74EFF00B117E096
:10074000FFF7FEFEA120FFF7C7FEFFF745FF00B150
:100750000EE00120FFF760FE04460020FFF75CFE7C
:100760000546FFF731FEFFF711FF44EA052070BD93
:10077000FFF70CFF0248006803F042FB80B2F6E787
:100780000C000020014607238B431A02054B186812
:100790004FF6FF0318401043034B1843014B1860FA
:1007A000704700000CED00E00000FA0570B505464A
:1007B0000C460420FFF7E6FF0E48005D00F001063E
:1007C00046EA0510C1B20B4801552046E21704EB7A
:1007D000D2625211A4EB421301229A402146E31740
:1007E00004EBD3635B119B0003F1E023C3F800210A
:1007F00070BD000000E400E070B500240EE00021B0
:10080000204600F0D1F8002504E0002000F0DDF9DA
:10081000681CC5B2802DF8DB601CC4B2082CEEDB6E
:1008200070BD10B502220821012000F0ADFF0222A8
:100830000921012000F0A8FF01220821104601F043
:1008400075F801220921104601F070F810BD70B54D
:100850000546002413E08020204100EA050209211A
:10086000012001F063F801220821104601F05EF832
:1008700000220821012001F059F8601CC4B2082CA4
:10088000E9DB01220821104601F050F8002208217E
:10089000012001F04BF870BD10B50122092110466E
:1008A00001F044F801220821104601F03FF800222F
:1008B0000921012001F03AF800220821012001F06D
:1008C00035F810BD10B500220921012001F02EF8E5
:1008D00001220821104601F029F8012209211046C1
:1008E00001F024F810BD70B5002406E0002500E0FA
:1008F0006D1CB5F57A7FFBD3641CB4F57A7FF5D314
:10090000FFF78FFFAE2000F050F9D52000F04DF931
:10091000802000F04AF9A82000F047F93F2000F0BD
:1009200044F9D32000F041F9002000F03EF94020C6
:1009300000F03BF9A12000F038F9C82000F035F9AB
:10094000DA2000F032F9122000F02FF9812000F0B7
:100950002CF9CF2000F029F9D92000F026F9F12058
:1009600000F023F9DB2000F020F9302000F01DF921
:10097000A42000F01AF9A62000F017F98D2000F04D
:1009800014F9142000F011F9AF2000F00EF9FFF770
:1009900033FF70BD10B50246012000E050430B1E2E
:1009A000A1F10101FAD110BD70B505460C4645F024
:1009B000B00000F0FAF8102141EA141000F0F5F848
:1009C00004F00F0000F0F1F870BD00002DE9F041D7
:1009D00005460E461746721ED206110E6A1E5206B4
:1009E000100EFFF7E1FF002409E0A7F12001134AF0
:1009F00002EB0111085D00F0E8F8601CC4B2082C9D
:100A0000F3DB721ED206110E6A1E012303EB4202B3
:100A1000D0B2FFF7C9FF00240BE0A7F12001074A7D
:100A200002EB011204F10801505C00F0CEF8601CEA
:100A3000C4B2082CF1DBBDE8F0810000EA420008F6
:100A40002DE9FF4F87B00C4691469A46DDF850B02D
:100A5000484603F0B9F90590584602F0F9FC0746FC
:100A60003A460B4600201A4901F0FCF905460E46AD
:100A7000059803F0E5F98046494603F03EFB07463A
:100A800003F046F82A463346CDE9000102F030FD76
:100A9000CDE9020102F096FC049053462146059AE6
:100AA000079800F03BF804EB0A00401CC1B209A211
:100AB000079800F066F804EB0A00801CC1B25B46A0
:100AC000049A079800F008F80BB0BDE8F08F00001A
:100AD000000024402E0000002DE9F04780460E461D
:100AE00017461D46002415E0281B411E0A20FFF76B
:100AF00051FFB7FBF0F00A21B0FBF1F201FB12004D
:100B000000F130093019C1B24A464046FFF75EFF96
:100B1000601CC4B2AC42E7DBBDE8F0872DE9F047CA
:100B20008146884615461E46002D06DB2B2241468F
:100B30004846FFF74BFF2F4605E02D224146484629
:100B4000FFF744FF6F42002417E0301B411E0A20CC
:100B5000FFF720FFB7FBF0F00A21B0FBF1F201FB39
:100B6000120000F1300A08EB0400401CC1B25246EA
:100B70004846FFF72BFF601CC4B2B442E5DBBDE87A
:100B8000F0872DE9F04107460E461546002407E0A0
:100B90002A5D3019C1B23846FFF718FF601CC4B295
:100BA000285D0028F4D1BDE8F08110B50446FFF7B8
:100BB00073FE7820FFF74BFE0020FFF748FE20462B
:100BC000FFF745FEFFF77EFE10BD10B50446FFF7A8
:100BD00063FE7820FFF73BFE4020FFF738FE2046FB
:100BE000FFF735FEFFF76EFE10BD10B500F002F8FE
:100BF00010BD00000CB50020019000903348006843
:100C000040F480303149086000BF3048006800F48B
:100C1000003000900198401C0190009818B901988C
:100C2000B0F5A06FF1D12948006800F4003010B190
:100C30000120009001E0002000900098012843D19D
:100C40002348006840F01000214908600846006809
:100C500020F0030008600846006840F002000860C9
:100C60001A48406819494860084640684860084684
:100C7000406840F4806048600846406820F47C107A
:100C800048600846406840F4E8104860084600683C
:100C900040F08070086000BF0C48006800F00070F1
:100CA0000028F9D00948406820F00300074948604F
:100CB0000846406840F00200486000BF03484068B2
:100CC00000F00C000828F9D10CBD00000010024013
:100CD0000020024010B51348006840F0010011499F
:100CE000086008464068104908400E4948600846B8
:100CF00000680E4908400B4908600846006820F467
:100D0000802008600846406820F4FE0048604FF4E8
:100D10001F008860FFF769FF4FF00060044908601A
:100D200010BD0000001002400000FFF8FFFFF6FEBB
:100D300008ED00E02DE9F0414FF08040008A00F01E
:100D4000010000287ED0DD480068032824DC012053
:100D500000F069FBD8B1022000F065FBB8B10320B8
:100D600000F061FB98B1042000F05DFB78B1052034
:100D700000F059FB58B1082000F055FB38B10720AE
:100D800000F051FB18B1062000F04DFB28B90020FF
:100D9000CB49086000F05EFF6EE1012000F043FBEC
:100DA000002856D0022000F03EFB002851D003203E
:100DB00000F039FB00284CD0042000F034FB002860
:100DC00047D0052000F02FFBE8B3082000F02BFBF4
:100DD000C8B3072000F027FBA8B3062000F023FBD0
:100DE00088B3B648006870BBB6480168B64800686A
:100DF00003F08EF90746B54903F08AF9044602F07C
:100E000087FE21F00041054600224FF0804302F0AA
:100E100033FB15D3AC480168AA48006803F078F9A1
:100E20000746AB4903F074F9044602F071FE21F065
:100E30000041054600224FF0804302F01DFB08D21E
:100E4000012001E038E104E09D49086000F002FF64
:100E500012E1012000F0E7FA002854D0022000F04F
:100E6000E2FA00284FD0032000F0DDFAF0B30420AE
:100E700000F0D9FAD0B3052000F0D5FAB0B30820BD
:100E800000F0D1FA90B3072000F0CDFA70B306203D
:100E900000F0C9FA50B389480068022833D1894864
:100EA00001688948006803F033F90746894903F06F
:100EB0002FF9044602F02CFE21F0004105460022E5
:100EC0004FF0804302F0D8FA17D37F4801687D487D
:100ED000006803F01DF907467F4903F019F904463D
:100EE00002F016FE21F00041054600E00BE0002272
:100EF0004FF0804302F0C0FA05D20120704908602B
:100F000000F0A8FEB8E06E480068D0BB6B480068EF
:100F1000B8BB012000F087FA98B3022000F083FAF2
:100F200078B3032000F07FFA58B3042000F07BFA76
:100F300038B3052000F077FA18B3082000F073FAF0
:100F4000F8B1072000F06FFAD8B1062000F06BFA74
:100F5000B8B162495C48006803F09EF812D260495B
:100F60005948006802F098FF0CD25849564800686A
:100F700003F0CEF8054602F027FF044600F0D0FE4D
:100F80007AE00BE052495048006802F0EDFD05465A
:100F900002F01AFF044600F0C3FE6DE04848006806
:100FA000D8BB46480068022844D1012000F03BFA33
:100FB00098B3022000F037FA78B3032000F033FA38
:100FC00058B3042000F02FFA38B3052000F02BFAB4
:100FD00018B3082000F027FAF8B1072000F023FA30
:100FE000D8B1062000F01FFAB8B13C493648006875
:100FF00003F052F812D23A493348006802F04CFF2D
:101000000CD234493048006803F082F8054602F0FB
:10101000DBFE044600F084FE2EE00BE02E492A4859
:10102000006802F0A1FD054602F0CEFE044600F085
:1010300077FE21E0012000F0F6F9E8B1022000F08F
:10104000F2F9C8B1032000F0EEF9A8B1042000F0D5
:10105000EAF988B1052000F0E6F968B1082000F04F
:10106000E2F948B1072000F0DEF928B1062000F0CF
:10107000DAF908B100F0EEFD10480068032813DD2E
:1010800001220621002000F051FC0122072100204E
:1010900000F04CFC01220021104600F047FC012228
:1010A0001146104600F042FC4FF08040008A20F0CC
:1010B00001004FF080410882BDE8F081100000205F
:1010C000000000200C0000205000002000001C4206
:1010D0000080A04300001043000058430000AA43D2
:1010E0000000B44308B55B48008800F00100002808
:1010F0007DD0792201210846FFF768FC6122022198
:101100000120FFF763FC772203210120FFF75EFC3B
:101110003D2204210120FFF759FC02200323009007
:101120004D48012102680220FFF78AFC02200323B8
:1011300000904A48082102680220FFF781FC012044
:1011400000F071F9D8B1022000F06DF9B8B10320B8
:1011500000F069F998B1042000F065F978B1052034
:1011600000F061F958B1082000F05DF938B10720AE
:1011700000F059F918B1062000F055F910B93848B7
:10118000006818B3012000F04EF988B3022000F087
:101190004AF968B3032000F046F948B3042000F090
:1011A00042F928B3052000F03EF908B3082000F00A
:1011B0003AF9E8B1072000F036F9C8B1062000F08E
:1011C00032F9A8B126480068012814D125480068E2
:1011D000401C2449086000220621012000F0A6FBE3
:1011E000142000F0FDF801220621104601E02FE056
:1011F00001E000F09BFB012000F015F9D8B10220BE
:1012000000F011F9B8B1032000F00DF998B10420F5
:1012100000F009F978B1052000F005F958B108206F
:1012200000F001F938B1072000F0FDF818B10620F0
:1012300000F0F9F818B901200949086002E000201F
:10124000074908600348008820F001000149088030
:1012500008BD000010040040500000200C000020D9
:101260001400002010000020014800887047000092
:10127000100800400548008800F0200028B103480D
:10128000008820F0200001490880704700380140A4
:101290000548008800F0200028B10348008820F0AD
:1012A000200001490880704700440040054800883C
:1012B00000F0200028B10348008820F020000149F8
:1012C0000880704700480040490050EAC12018BF1C
:1012D00004204A0D18BF40F0010040F2FF72B2EB4B
:1012E000515F08BF40F00200012808BF0520704789
:1012F0002DE9F0414F1E00EBC7010446D1E9000182
:1013000015461E4637F006020DD02A46334602F037
:10131000EFF87F1E04EBC703D3E9002301F03EFE84
:1013200037F00602F1D1022F25D0042F13D0062F5B
:1013300018BFBDE8F0812A46334602F0D9F8D4E957
:101340000A2301F02BFE2A46334602F0D1F8D4E9F5
:10135000082301F023FE2A46334602F0C9F8D4E9F7
:10136000062301F01BFE2A46334602F0C1F8D4E9F9
:10137000042301F013FE2A46334602F0B9F8D4E9FB
:10138000022301F00BFE2A46334602F0B1F8D4E9FD
:101390000023BDE8F04101F001BE00000022134629
:1013A0001046014901F0B6BE0000F03F01F0F6BD65
:1013B000002213461046114601F0ACBE40F2013245
:1013C00000204FF0E04102F04ABF0000024A002036
:1013D000110702F044BF000001FDFFFF00BF70478E
:1013E00000B5034603E04FF47A7000F005F8181ECC
:1013F000A3F10103F7D100BD00EBC001C9004FF01C
:10140000E0225161002191610521116100BF4FF07F
:10141000E021096901F480310029F8D004214FF05E
:10142000E0221161704770B504460025092C56D2A0
:10143000DFE804F055050F19232D37414B000C212F
:10144000012000F08FF9012801D1012500E00025DD
:1014500045E00D21012000F085F9012801D1012589
:1014600000E000253BE00E21012000F07BF901287F
:1014700001D1012500E0002531E00F21012000F01D
:1014800071F9012801D1012500E0002527E008219C
:10149000002000F067F9012801D1012500E00025B6
:1014A0001DE00D21022000F05DF9012801D1012588
:1014B00000E0002513E00E21022000F053F901287E
:1014C00001D1012500E0002509E00F21022000F0F4
:1014D00049F9012801D1012500E0002500BF00BF26
:1014E000284670BD10B500220121062000F010F83A
:1014F00001220321002000F047F9002201210C20E5
:1015000000F006F801220521002000F03DF910BD91
:101510002DE9F04704460E461746032194FBF1F0EF
:10152000C11700EB91718910A0EB810189064FEA88
:101530001168032194FBF1F0C11700EB9171C1F325
:101540008705204600F06AF83148806940F00100C4
:101550002F4988614FEAB13050F825000F2101FA78
:1015600008F188432B4941F82500032094FBF0F152
:1015700000FB114088B1032094FBF0F100FB114007
:10158000401E012101FA00F000FA08F0214951F84B
:10159000251001431F4840F82510032094FBF0F16B
:1015A000012088401C49096808431B49086066B946
:1015B000032094FBF0F101208840174908310968A5
:1015C00008431549083108600BE0032094FBF0F153
:1015D0000120884010490C31096808430E490C313C
:1015E0000860032094FBF0F004280ADC032094FB3D
:1015F000F0F0801D00F0FF0949463846FFF7D6F8A5
:1016000003E017213846FFF7D1F8BDE8F087000066
:1016100000100240080001400004014010B50446DB
:10162000182C12D2DFE804F00C12181E242A3036CF
:101630003C42484E545A60666C72787E848A90961A
:1016400001220021084600F09FF889E001220021D4
:10165000104600F099F883E001220021022000F0FA
:1016600093F87DE001221146002000F08DF877E02C
:1016700001221146104600F087F871E00122114660
:10168000022000F081F86BE001220221002000F02E
:101690007BF865E001220221104600F075F85FE05A
:1016A00001220221084600F06FF859E001220321CF
:1016B000002000F069F853E001220321104600F0F9
:1016C00063F84DE001220321022000F05DF847E0BD
:1016D00001220421002000F057F841E001220421FA
:1016E000104600F051F83BE001220421022000F0F6
:1016F0004BF835E001220521002000F045F82FE0ED
:1017000001220521104600F03FF829E001220521C1
:10171000022000F039F823E001220621002000F029
:1017200033F81DE001220621104600F02DF817E0E5
:1017300001220621022000F027F811E001220721F2
:10174000002000F021F80BE001220721104600F0F4
:101750001BF805E001220721022000F015F800BF68
:1017600000BF10BD10B50246064850F82200806840
:1017700001248C4000EA04030BB1012010BD0020BD
:10178000FCE700002800002070B5654CA469042522
:1017900085402C43624DAC6108295DDA614C54F8F8
:1017A000204024688E000F25B540AC435D4D55F8B0
:1017B00020502C601AB1032A01D0022A0FD1012433
:1017C000944044F003048D00AC40564D55F8205031
:1017D0002D682C43534D55F820502C609FE0012A72
:1017E00001D0042A2AD14F4C54F8204024688E009E
:1017F0000825B5402C434B4D55F820502C60012A4C
:101800000ED1484C54F82040E46801258D4024EA6C
:10181000050301248C401C43424D55F82050EC60D8
:10182000042A7CD13F4C54F82040E56801248C40C8
:10183000A5433C4C54F82040E56070E004249440FB
:101840008D00AC40374D55F820502D682C43354D58
:1018500055F820502C6062E0324C54F82040646807
:10186000A1F10805AE000F25B540AC432D4D55F84C
:1018700020506C601AB1032A01D0022A11D1012430
:10188000944044F00304A1F10805AD00AC40254D9F
:1018900055F820506D682C43224D55F820506C604F
:1018A0003DE0012A01D0042A2AD11E4C54F82040E0
:1018B0006468A1F10805AE000825B5402C43194D18
:1018C00055F820506C60012A0CD1174C2568012472
:1018D0008C4025EA040301248C401C43114D55F82B
:1018E0002050EC60042A1AD10E4C54F82040E468D1
:1018F00001258D40AC430B4D55F82050EC600EE0B7
:1019000004249440A1F10805AD00AC40054D55F804
:1019100020506D682C43034D55F820506C6070BD0D
:1019200000100240280000200C08014030B57AB1B8
:101930000D4C54F82040E46801258D4024EA05034D
:1019400001248C401C43084D55F82050EC600AE0FF
:10195000054C54F82040E46801258D40AC43024D0D
:1019600055F82050EC6030BD2800002010B5012251
:101970000C211046FFF708FF01220D211046FFF74A
:1019800003FF01220E211046FFF7FEFE01220F2168
:101990001046FFF7F9FE012208210020FFF7F4FEB0
:1019A00001220D210220FFF7EFFE01220E2102206D
:1019B000FFF7EAFE01220F210220FFF7E5FE10BD2E
:1019C00008B500F091F8FFF78DFD00224FF4E131EA
:1019D000104601F053FA2248224B234A012100907D
:1019E000224800F00FFA1E481E4B1F4A01210090AA
:1019F0001F4800F007FA4FF07E5000234FF080425E
:101A0000194600901B4800F0FDF9FEF76CFFFEF749
:101A1000F3FEFFF7ABFF002206210120FFF7B4FE23
:101A2000012206211046FFF781FF04220521012033
:101A3000FFF7AAFEFEF7A4FCFEF752FE0022962155
:101A4000012001F0B9F801220F21002001F0B4F8C3
:101A500004E0FEF7F9FD0A20FFF7C2FCF9E70000F9
:101A60000000A04000004041000020415C00002038
:101A700090000020C400002010B50446A2B200214E
:101A8000084600F0E9FF0948027806210020FFF728
:101A90004DFF0648007808B9012000E0002002460A
:101AA00007210020FFF742FF10BD000018000020B2
:101AB00010B50446A2B20121002000F0CDFF094874
:101AC000027800210120FFF731FF0648007808B9AD
:101AD000012000E00020024601210846FFF726FF12
:101AE00010BD00001900002010B54FF47A720021DB
:101AF000084600F0A3FE002206211046FFF744FE30
:101B0000002207211046FFF73FFE4FF47A720121B1
:101B1000002000F093FE002211460120FFF734FE62
:101B2000002201210846FFF72FFE10BD70B50546C3
:101B30000C46002D08DB012011490870284602F0F0
:101B40007FF91049086007E000200D4908706842DD
:101B500002F076F90B490860002C08DB01200A49E5
:101B60000870204602F06CF90849086007E0002080
:101B700005490870604202F063F90449086070BDCD
:101B8000180000205C0000201900002090000020B8
:101B90002DE9F0410446D4E9000102F0B9FAA06051
:101BA000206B01282DD1D4E9020102F0B1FA0546DB
:101BB000616902F0A5F92062A168A06902F0A0F9AC
:101BC000A0624FF08040E16802F09AF90746A168F0
:101BD00002F093FA0646216901F0C6FF0546E16965
:101BE00002F08EF96062A16A206A01F0BDFF06462C
:101BF000616A01F0B9FF0546E16A01F0B5FFE062F4
:101C000021E0206BF8B9A168606902F079F92062DF
:101C1000A168A06902F074F90546A16A01F0A4FF69
:101C2000A062D4E9020102F073FA0546E16902F00C
:101C300067F96062A16A206A01F096FF0546616A51
:101C400001F092FFE062E1682161A168E160BDE816
:101C5000F081000010B500F0E7FF702201210320A1
:101C6000FEF7B4FE692202210320FEF7AFFE6422D4
:101C700003210846FEF7AAFE212204210320FEF7D5
:101C8000A5FE2148007830B12048006802F0D8F85D
:101C90001F49486006E01D480068404202F0D0F845
:101CA0001B4948601B48007830B11B48006802F0AF
:101CB000C7F81A49486006E017480068404202F039
:101CC000BFF81649486000201049086012490860B2
:101CD0000F48FFF75DFF1148FFF75AFF0C4800F06F
:101CE00099F80E4800F096F80949C86A02F06CF8B5
:101CF0000446FFF7C1FE0949C86A02F065F80446C8
:101D0000FFF7D6FE10BD0000180000201C000020C8
:101D10005C0000201900002020000020900000201E
:101D20002DE9F0410446204602F08AF82D4908606A
:101D30002D48006848600846FFF72AFF2949C86A0D
:101D400002F042F807462748C06A80F00046304655
:101D500002F03AF805463946FFF7E8FE23480078D6
:101D600030B12348006802F06BF82249486006E071
:101D70001F480068404202F063F81E4948601E4850
:101D8000007830B11D48006802F05AF81C494860DC
:101D900006E01A480068404202F052F818494860CC
:101DA000002013490860154908601248FFF7F0FE4B
:101DB0001348FFF7EDFE0F4800F040F8104800F020
:101DC0003DF80C49C86A01F0FFFF0546FFF754FED5
:101DD0000B49C86A01F0F8FF0546FFF769FEBDE848
:101DE000F0810000C40000200C000020180000203A
:101DF0001C0000205C0000201900002020000020B2
:101E00009000002010B5029C016342618361C461AF
:101E100010BD000010B504460749E06A02F03CF925
:101E200001D80548E0620021E06A02F035F801D8E7
:101E30000020E06210BD00000050434710B504468A
:101E40000749E06A02F028F901D80548E06200215C
:101E5000E06A02F021F801D80020E06210BD000025
:101E600000204B462DE9F04D1D460C4698B0174614
:101E700021F0004123F00043002814BF4FF0010C73
:101E80004FF0000C0CEB440CFE4A0CEB02064FEA40
:101E9000620C66452BD33E0018BF012606EB4506B3
:101EA0001644F94A964222D3F84A53EA070C02D064
:101EB000944205D148B918B000201146BDE8F08D14
:101EC000002808BF4FF0000C01D04FF0010C0CEBC4
:101ED000440212F5001F0AD8002F14BF4FF0010C66
:101EE0004FF0000C0CEB450212F5001F07D918B09B
:101EF0003A462B462146BDE8F04DFFF757BA00227F
:101F0000DFF88CA3002CB8BF534526DADFF884C372
:101F10006345A8BF022220DADFF870C39C451CDCB1
:101F2000DFF874C30CEB235CBCF1140F08DDCCF1BB
:101F3000340627FA06FC0CFA06F6BE420DD108E07C
:101F40005FB9CCF1140623FA06FC0CFA06F69E42A1
:101F500003D10CF00102C2F1020251EA000C19D1C6
:101F6000002D17DA002C18BF022A01D0012A07D051
:101F70000220FEF733F918B0BDE8F04DFFF70EBAB6
:101F80000220FEF72BF9FFF709FA18B081F00041A3
:101F9000BDE8F08DB7F1000C6CD1534525D104F1AB
:101FA000804212F5801201BF00280020B74918B006
:101FB00008BFBDE8F08DB548884207DC002DA1BF01
:101FC0006046294618B0BDE8F08D07E0281E05DA06
:101FD00080F0004118B06046BDE8F08DAF4979440B
:101FE000D1E9000118B0BDE8F08DDFF8A0C263456B
:101FF00025D1002D1FDA19B1514512D1D8B909E008
:10200000002840F0EC82A24A214618B062F31E017B
:10201000BDE8F08D0020214618B060F31E01BDE838
:10202000F08D08DA18B02346BDE8F04D02460020D6
:10203000614601F06FB818B02146BDE8F08D5145FA
:1020400018DAB5F1804F0DD0A5F1005CBCF1FF5C52
:1020500010D1B4F1000C0DDB18B06146BDE8F04DB5
:1020600000F084BD234618B00246BDE8F04D194685
:1020700001F03EBA060024F0004C3BD1D9B15145E5
:1020800033D1002C06DD002DA1BF0020514618B031
:10209000BDE8F08D002C01DD002D1BDB002C13DAD8
:1020A000002D11DB012A4FF0000014BF78497C4954
:1020B00018B0BDE8F08D022A18BF002C0AD0012A02
:1020C00008D1002C06DA0AE0002CB8BF002D11DA86
:1020D000012A04D0002018B00146BDE8F08D18B0E8
:1020E00000204FF00041BDE8F08DA1F14050B0F16B
:1020F0007F601AD0012000EBE47050EA020421D086
:10210000624C521E4FF0000B104304BF4FF0000B07
:10211000644C654883427CDD644A654893421FDD18
:10212000884217DB002D25DB37E0002C00DA4AB1AE
:10213000022A0CBF01204FF0FF3018B0BDE8F04D6F
:1021400001F06FB90120FEF749F818B0BDE8F04D75
:10215000FFF72EB94D4A8A4202DC002D0ADC1CE052
:10216000814202DA002D18DA04E0484B994220DD62
:10217000002D12DD0220FEF731F8FFF71FF90546AA
:102180000E46002253465846214601F0B1F918B0D8
:1021900066F31E012846BDE8F08D0220FEF71EF80A
:1021A000FFF714F90A46214618B062F31E01BDE894
:1021B000F08D00223046614601F0C0FB80460E469D
:1021C0006FF0010202F04BF84FF05532394B01F03D
:1021D000C3FA4246334601F08BF90022364B01F038
:1021E000BBFA82464246334604911046194601F036
:1021F0007FF95246049B01F07BF98A4600904FF02C
:10220000C0422E4B4046314601F072F92C4A2B4B0E
:1022100000E027E0CDE906015146009801F068F999
:1022200082460191274A284B4046314601F060F929
:102230005246019B01F082FB82460B460246059105
:10224000DDE9060100F0AAFEDDE906230026884646
:10225000304601F073FB5246059B01F07DFA0246C1
:1022600000F07EB90020B1F5801F07DA3522304634
:10227000614601F0F4FF06466FF0340000EB215098
:1022800024E00000FFFF1F00FFFF0F000000F03FF1
:102290000000F07F0000404301FCFFFF86290000A2
:1022A0000000F0FF0000F0BF0000E0410000F0433C
:1022B000FFFFEF3F5555D53F0000E03F4715F73F83
:1022C000FE822B6544DF5DF80BAE543EA0F2FF307A
:1022D0000190C1F3130040F07F6141F04051029141
:1022E000FE498842D8BF002004DDFD498142C8BFB5
:1022F000012001DD0D9008E000200D900198401CA8
:1023000001900298A0F5801002900299F548784457
:102310000B910D9900EBC100D0E900230F933046DB
:102320000A920B9901F00AFBCDE90601DDE90A21C9
:1023300030460F9B00F032FE02460B460020EA4971
:1023400000F0E8FE059102460B460090DDE906012B
:1023500001F0CEF81490E5488A464FF00008784422
:102360000299006812904FF0005040EA61010D9808
:102370000F9B01EB804000F5002109910A9A129809
:1023800001F0DCFA32460B9B01F0E6F94246534677
:1023900001F0AEF80646029140465146099B129A5A
:1023A00001F0A6F8DDE9062301F0D6F93246029BDA
:1023B00001F0C4FA059B009A01F09AF80091149A72
:1023C000049053461046194601F092F8064602461C
:1023D000C7480B46029106217844FEF789FFCDE9F4
:1023E0000510029B32461046194601F081F8DDE9DE
:1023F000053201F07DF805910646534640461946E0
:10240000149A00F0CBFD009B049A01F071F832465B
:10241000059B00F0C3FDCDE905104246534610462A
:10242000194601F065F80022B24B02910A9000F0C3
:10243000B5FDDDE9053200F0B1FD0E464246AD4B7B
:10244000404601F07BFA029B0A9A01F077FADDE937
:10245000053201F081F9424602910A903346104656
:10246000514601F045F8CDE906015346149A029908
:102470000A9801F03DF88A46029033464246009998
:10248000049801F035F85346029A00F087FD824621
:102490000B4602460591DDE9060100F07FFDDDE90E
:1024A000062300208846064601F048FA5246059B5E
:1024B00001F052F9824609914FF060428E4B30464E
:1024C000414601F015F8049006918C4A8A4B50461B
:1024D000099901F00DF882460291894A894B3046EC
:1024E000414601F005F85246029B00F057FD864B2D
:1024F0007B440D9A03EBC203D3E9002300F04EFDA9
:102500000E900791019800F08CFF0591DDE906130C
:1025100082460E9A049800F041FD7C4A7A440D9B55
:1025200002EBC303D3E900230093029200F036FDCF
:102530005246059B00F032FD002688465246304642
:10254000059B01F0FBF9009B029A01F0F7F9069B4D
:10255000049A01F0F3F9079B0E9A01F0FDF8024688
:1025600000200B4602903846294600F0C1FF824603
:1025700001912B4638461946029A01F0DFF932469E
:10258000434600F0B5FF5246019B00F007FD0746A9
:102590008A46324643462946029800F0A9FF05467E
:1025A0000E463A46534600F0F9FC594A8846914295
:1025B00021DBA8EB020353EA000210D12A4633467E
:1025C00001F0BCF9CDE90401524A534B384651465B
:1025D00000F0E4FCDDE9042301F088F821D20220B8
:1025E000FDF7FCFDFEF7EAFE0A46214618B062F34D
:1025F0001E01BDE8F08D494B28F000429A4210D3ED
:10260000474A08EB020353EA00027FF4C6AD2A46AC
:10261000334601F093F93A46534601F067F87FF6E6
:10262000BCAD0022019228F000403E493E4A01EB39
:102630002051824223DA481C4FF4801121FA00F025
:1026400040443A4AC0F30A517A44394BA1F2FF316F
:10265000CB4020EA0303C0F3130040F48010C1F123
:102660001401C84012680190B8F1000FBCBF40428D
:1026700001902846314601F061F905460E462A468A
:1026800033463846514600F089FC4FF00008424678
:10269000284B4046059100F02BFFCDE90601264A64
:1026A000264B4046059900F023FF009102902A46F0
:1026B00033464046059901F041F93A46534601F048
:1026C0004BF81F4A1F4B00F013FF009B029A00F0CB
:1026D00065FC0746884602460B4635E08E980300A7
:1026E0007AB60B00CE2500000000F03F0626000061
:1026F000342500000000084009C7EE3FFD033ADC26
:10270000F5015B14E02F3EBE0C240000D023000036
:1027100000009040FE822B654715973C00CC90400E
:1027200000346F3F01FCFFFF0000E03F1C2300006E
:10273000FFFF0F00432EE63F396CA80C615C20BE02
:10274000EF39FAFE422EE63FDDE9060100F026FCF5
:10275000DDE9062305460E4601F0F0F83A46434609
:1027600000F0FAFF0F462A463346009010461946FD
:1027700000F0BEFE824602462E4888460B460521E2
:102780007844FEF7B5FD5246434600F0B1FE2A46B6
:10279000334600F0E1FF80468A463B4628463146F4
:1027A000009A00F0A5FE3B46009A00F0F7FB069168
:1027B000009000224FF080434046514601F0BEF8A1
:1027C0000F460C90424653462846314600F090FE94
:1027D0003B460C9A00F09EFC069B009A01F0AEF876
:1027E0002A46334601F0AAF80022134B00F0B4FF4A
:1027F000054601980E4601EB00510815002810DC33
:1028000028463146019A01F02AFDFEF75DFD0428B5
:1028100008BFFEF7DBFD28463146019A01F01FFD97
:1028200005460B4618B02A4658462146BDE8F04DED
:1028300000F05EBEBC2100000000F03F2DE9F04139
:1028400004460D4616462846E91705EB9171891096
:10285000A5EB8101491CCFB25148C0690121A140BB
:1028600008434F49C8614F4890FBF6F0401E4E495F
:1028700051F82410888547204B4951F824100885C9
:10288000284600F093F8012F06D0022F1ED0032F08
:1028900036D0042F69D14DE0434850F82400008B16
:1028A00040F06000404951F8241008833E4850F839
:1028B0002400008B40F008003B4951F824100883A5
:1028C0000020394951F8241088864EE0364850F8E7
:1028D0002400008B40F4C040334951F82410088391
:1028E000314850F82400008B40F400602E4951F824
:1028F0002410088300202C4951F82410088734E064
:10290000294850F82400808B40F06000264951F897
:1029100024108883244850F82400808B40F008005D
:10292000214951F82410888300201F4951F82410B0
:1029300088871AE01C4850F82400808B40F4C0407F
:10294000194951F824108883174850F82400808BC7
:1029500040F40060144951F8241088830020124983
:1029600051F82410A1F8400000BF00BF0E4850F8F5
:102970002400008C791E8A000121914008430A49F5
:1029800051F824100884084850F82400008840F0CA
:102990008100054951F824100880BDE8F08100004D
:1029A0000010024040420F003400002010B50446E1
:1029B0000C2C4FD2DFE804F0060C12181E242A302B
:1029C000363C4248032200210846FEF7DDFE41E086
:1029D000032201210020FEF7D7FE3BE00322022163
:1029E0000020FEF7D1FE35E0032211460020FEF75D
:1029F000CBFE2FE0032206210020FEF7C5FE29E0D2
:102A0000032207210020FEF7BFFE23E0032200215E
:102A10000120FEF7B9FE1DE0032201210846FEF762
:102A2000B3FE17E0032206210120FEF7ADFE11E000
:102A3000032207210120FEF7A7FE0BE00322082155
:102A40000120FEF7A1FE05E0032209210120FEF787
:102A50009BFE00BF00BF10BD2DE9F84F04460D4698
:102A600017462846E91705EB91718910A5EB8101FE
:102A7000491C01F0FF084CF25030874200DB07464A
:102A8000384850F82400868DB8F1010F09D0B8F10C
:102A9000020F1DD0B8F1030F31D0B8F1040F5DD192
:102AA00044E0701C01F0CCF98346384601F0E0F9AF
:102AB0002D49009001F0C6F88246594601F020FAEF
:102AC000814601F09DF9274951F82410888645E098
:102AD000701C01F0B5F90090384601F0C9F9834641
:102AE000214901F0AFF88246009901F009FA8146C8
:102AF00001F086F91B4951F8241008872EE0701C5C
:102B000001F09EF90090384601F0B2F9834616496B
:102B100001F098F88246009901F0F2F9814601F03F
:102B20006FF9104951F82410888717E0701C01F0E4
:102B300087F90090384601F09BF983460A4901F075
:102B400081F88246009901F0DBF9814601F058F9DD
:102B5000044951F82410A1F8400000BF00BFBDE8AF
:102B6000F88F000034000020005043472DE9F04169
:102B700006460F4600F0FCFD041E0D4618BF01205E
:102B8000284320F00040C0F17F6000F1E040C00F1A
:102B90000ED0301C18BF0120384320F00040C0F197
:102BA0007F6000F1E040C00F04BF0120FDF716FB7D
:102BB00020462946BDE8F08170B504460D4616460C
:102BC0001748C0690121A14008431549C86105EBB8
:102BD00085004000401E134951F82410888541F6B5
:102BE0001F40104951F8241008850E4850F8240061
:102BF000008840F001000B4951F824100880094872
:102C000050F82400808940F00100064951F8241052
:102C1000888104F11C00C1B23046FDF7C7FD70BDCC
:102C2000001002403400002010B50420FEF7FBFB2A
:102C300048B90520FEF7F7FB28B94FF4A9710846FB
:102C4000FEF774FFC9E00420FEF7EDFB48B905204C
:102C5000FEF7E9FB28B14FF48771E120FEF766FF2C
:102C6000BBE00420FEF7DFFB48B10520FEF7DBFBED
:102C700028B9E1214FF48770FEF758FFADE003203B
:102C8000FEF7D1FB48B10420FEF7CDFB28B940F296
:102C90002511CB20FEF74AFF9FE00520FEF7C3FB7E
:102CA00048B90820FEF7BFFB28B9CB2140F2251018
:102CB000FEF73CFF91E00320FEF7B5FB48B9042086
:102CC000FEF7B1FB28B140F22511CB20FEF72EFF15
:102CD00083E00520FEF7A7FB48B10820FEF7A3FB21
:102CE00028B9CB2140F22510FEF720FF75E0022025
:102CF000FEF799FB48B90320FEF795FB28B94FF47E
:102D0000A971B420FEF712FF67E00820FEF78BFBE5
:102D100048B90720FEF787FB28B9B4214FF4A97002
:102D2000FEF704FF59E00220FEF77DFB48B90320BF
:102D3000FEF779FB28B14FF4A9719620FEF7F6FE55
:102D40004BE00820FEF76FFB48B10720FEF76BFB56
:102D500028B9B4214FF4A970FEF7E8FE3DE0012048
:102D6000FEF761FB48B90220FEF75DFB28B94FF47E
:102D7000E1713220FEF7DAFE2FE00720FEF753FB69
:102D800048B90620FEF74FFB28B95A214FF4E170ED
:102D9000FEF7CCFE21E00120FEF745FB50B90220F2
:102DA000FEF741FB30B14FF4FA716FF02700FEF7E8
:102DB000BDFE12E00720FEF736FB48B10620FEF705
:102DC00032FB28B900214FF4FA70FEF7AFFE04E0A1
:102DD0004FF4A9710846FEF7A9FE10BD2DE9F04F8A
:102DE00089B081468A46B9F1000F01D11F4C00E03D
:102DF0001F4C4FEA0A1094FBF0FB584600F028FBEA
:102E0000CDE90401504600F00CFB07460022194BA7
:102E100000F06EFB05460E46204601F011F807460D
:102E200000F076FE2A463346CDE9000100F072F943
:102E3000CDE90201DDE9042300F080FDCDE90601C2
:102E400000F07AF808904FF08341089801F058F8A4
:102E50000890089800F0D4FF00EB0B10064951F8D9
:102E60002910088109B0BDE8F08F000000A24A04D3
:102E700000512502000030404000002070B504469B
:102E80000E46154634B91448806940F48040124912
:102E9000886108E01048C06904F1100101228A40ED
:102EA00010430D49C861204600F01AF8314620460B
:102EB000FFF794FF094850F82400808942F22C0162
:102EC0000843064951F82410888104F12500C1B255
:102ED0002846FDF76BFC70BD00100240400000204A
:102EE00010B5044624B1012C0DD0022C21D115E0DF
:102EF000032209210020FEF747FC04220A210020BA
:102F0000FEF742FC15E0032202210020FEF73CFC04
:102F1000042203210020FEF737FC0AE003220A21E5
:102F20000120FEF731FC04220B210120FEF72CFCCE
:102F300000BF00BF10BD000021F00042A2F16052AE
:102F4000B2F5801F01F0004328BFD2F17F6C0BD98E
:102F50005FEA001C43EAC20242EB507018BF7047A0
:102F600028BF20F001007047B2F5801FBCBF184693
:102F700070474FEA410C1CF5001F02D2084601F0D1
:102F800086B870B500F05EFB00000089FFF7F6BF61
:102F90004FF00040A0F580007047000010B591EAA6
:102FA000030F48BF83F0004300F1D084841A71EB13
:102FB000030C05D2121943EB0C03001B61EB0C014F
:102FC000DFF824E14FEA1154A4EB135C1EEA430F2F
:102FD00018BF9EEA445F73D023EA0E03DCF1200E93
:102FE00021EA045143F4801332D322FA0CFE10EB91
:102FF0000E0023FA0CFE41EB0E01CCF1200E03FA79
:103000000EFE10EB0E0051F10001B1F5801FCCF166
:10301000200E32D201EB045112FA0EF2BDE810403C
:1030200058BF7047401C38BF5FEA420218BF704764
:10303000002814BF20F0010041F100014FEA4103D4
:1030400013F5001F38BF7047A1F1C04100F048BB25
:10305000012A43EB0302ACF1200CDCF11F0E32BF5E
:103060004FF0000E23FA0CF310EB030041EB045178
:10307000B4EB115FD0D0A1EB045101F580114908E8
:103080005FEA300001EB04510ED350F1000038BF6D
:1030900012FA0EFE08D1BDE81040C9E7401C38BF47
:1030A0005FEA4202CAD1C3E7BDE810404FEA4103DC
:1030B00013F5001F38BF7047A1F1C04100F010BBED
:1030C0009EEA445F08D011EA5E0FBDE8104004BFDD
:1030D00001F0004100207047BDE8104070B500F0DD
:1030E000B1FA00BF64FBBE3E0000E0FF02494FF0B2
:1030F000000001F082B800BF0000F87F491058BFFF
:10310000C1F140415B1058BFC3F140438B42EFF324
:10311000008070472DE9C04130B4DFF8A0C23CEA1E
:10312000111418BF3CEA131400F0EC8081EA030587
:103130001CEA111444EAD57418BF1CEA131500F0F8
:10314000C780A4EB05044FF0004545EAC12145EADC
:10315000C32341EA505143EA525304F17F74994228
:1031600004F500344FEAC0204FEAC22208BF904263
:1031700000F09C804FEA13650FF24016765D4FEA2F
:10318000134506FB05F7C7F1807706FB07F74FEA03
:10319000D737A7FB03687642C8F58038A7FB06CE71
:1031A00038BFA8F1010807FB08E64FF0000EA6FBA8
:1031B000028CE6FB03CEDCF1000CCEF1004E38BFF2
:1031C000AEF1010EA6FB0C584FF000074FF00005C2
:1031D000E6FB0E87A1FB08C6A0FB07CE16EB0E068A
:1031E00045F10005E1FB076515F1E04E7EBFA4F552
:1031F00080345FEA46066D4116F1800745F100050F
:103200004FEA17274FEA066647EA0567A6F1DE464A
:10321000B6F1805F4FEA15251FD9384624F0010C1E
:1032200005EBC471BCF1FE6F01EB0C1102D8F0BCD0
:10323000BDE8008124425CBF01F5801E9EEAC47F88
:1032400002D4F0BCBDE80081244238D4F0BCA1F126
:10325000C041BDE8004100F043BA4FEAD22242EA41
:1032600043524FEAD323A7FB02864FEAD02040EA1D
:10327000415007FB03661EEA0E0F4FEAD12105FB02
:10328000026658BFA6EB0056B6EB00564FEA520E48
:103290004EEAC37E18EB0E0E56EB530EBDD518EB5F
:1032A00002085E417F1C55F10005B6E74FF480151A
:1032B0004FF000074FF000064FF00008ADE7F0BCFC
:1032C0004FF0000001F1C04101F00041BDE8008174
:1032D00011EA0C1F0CEA131500D00CE013EA0C1FC6
:1032E00000F025804FF00000F0BC81EA030101F0FE
:1032F0000041BDE80081F0BCBDE8004181EA030166
:1033000000F0EEB9F0BCBDE8004170B500F09AF9EC
:10331000097EFC3E00F007B881EA03014FF000008F
:1033200001F00041704781EA030100F0D9B9F0BC17
:10333000BDE800414FF0000021497047FFFDFBF957
:10334000F7F5F4F2F0EEEDEBE9E8E6E4E3E1E0DED8
:10335000DDDBDAD8D7D5D4D3D1D0CFCDCCCBCAC84A
:10336000C7C6C5C4C2C1C0BFBEBDBCBBBAB9B8B771
:10337000B6B5B4B3B2B1B0AFAEADACABAAA9A8A864
:10338000A7A6A5A4A3A3A2A1A09F9F9E9D9C9C9B32
:103390009A999998979796959594939392919190DD
:1033A0008F8F8E8E8D8C8C8B8B8A8989888887876E
:1033B0008685858484838382828181800000FF07E3
:1033C0000000F87F4FEA41034FEA5353A3F58063AF
:1033D000D3F11E03C8BFD3F1210C0CDD4FF0004226
:1033E00042EAC12242EA505232FA03FC8CEAE17C02
:1033F000ACEBE1707047102BC4BF0020704703F5A1
:10340000787CBCF1FF3F04D06FF0004282EA2100DB
:10341000704770B500F016F949922480002070477B
:10342000F2E710F0004248BF4042B0FA80F310FAD1
:1034300003F10AD0C3F11D0303F580634FEA415045
:1034400002EB035202EBD12170474FF000007047AE
:10345000B0FA80F310FA03F10AD0C3F11D0303F5AB
:1034600080634FEA41504FEA035202EBD12170478B
:103470004FF000007047000051EA030C17D41CF510
:10348000801F58BFBCF5801F00F10680994218BF0D
:10349000704708BF9042704707D711F5801F58BF8B
:1034A00013F5801F19D499427047894270471CF563
:1034B000801F08D5BCF5801FF7D58B4218BF704719
:1034C00008BF824270474FF4001C1CEB410F38BF0D
:1034D0001CEB430F01D28B42704770B500F0B2F87D
:1034E000922449004FF000514FF08053FFF706BE81
:1034F000DFF848C170B51CEA111E1EBF1CEA131587
:103500009EEA0C0F95EA0C0F00F06F8081EA03042D
:1035100023EA4C134EEAD47E21EA4C1141F4801187
:1035200043F48013AE44A1FB024CA0FB0365AEF153
:103530007F7E361955EB0C05A1FB034C4CF10003C3
:10354000A0FB021C16EB0C06654153F10003094277
:1035500018BF46F0010613F4007F0BD14FEA033188
:103560004FEA0530340341EA155140EA16506FF036
:1035700003020AE04FEAC3214FEAC520F40241EA00
:10358000555140EA56506FF0020202EB2E4201EB19
:10359000025585EACE710AD05FEA440C18BF24F0C8
:1035A000004450F1000041F1000120EAD47040F2E3
:1035B000FE7C624500D270BDA84214BF4FF080442B
:1035C0004FF04044002E08BF0024BEF1806FA8BF1A
:1035D000A1F1C041BDE8704080F282804FF0000050
:1035E00001F1C04101F0004170479EEA0C0F0CEA66
:1035F000131518BF95EA0C0F06D04FF0000081EAB2
:10360000030E0EF0004170BD00F01CF88900013E71
:1036100000F007B800F009B84FEA430C5FEA5C5CC1
:1036200008D081EA030100F05BB84FEA410C5FEA81
:103630005C5CF6D14FF00000014970470000FF07C5
:103640000000F87F0EF1020E2EF0030E5EF8046B00
:10365000364205D4012A43EB030515F5001F12D8A5
:10366000012841EB010C1CF5001F0CD80ED14FEACC
:10367000D17C15F5001F0CEB4C0C0CF1020C08BFB3
:103680004CEBD37C04E04FF0080C01E04FEAD37C14
:103690000CEB4C0526FA05F606F00706B6F1040C0D
:1036A00006D20EEB860CBDE870404CF0010C604772
:1036B000DFE80CF0090B02024FF000414FF0000070
:1036C000A1F5002170BD19461046012851EB0104F7
:1036D00018BFD4F5001484BF002001F0004170BD74
:1036E0000808A0F500114FEA3101704753EA010CB8
:1036F00017D41CF5801F58BFBCF5801F00F1068051
:103700008B4218BF704708BF8242704707D713F536
:10371000801F58BF11F5801F19D48B4270479B4200
:1037200070471CF5801F08D5BCF5801FF7D599425E
:1037300018BF704708BF904270474FF4001C1CEB45
:10374000430F38BF1CEB410F01D2994270470FB4B1
:103750000CBC03BCFFF7C1BE91EA030F10B581F0AA
:1037600000413FF523AC83F0004300F0EFB80000C8
:103770002DE9F04101F5801CBCF5001FC0F2C380AB
:103780004FEA115C21EA0C510CF1FD0C41F480115F
:103790005FEA5C0C0CF5C07C01D3400049413DA4BC
:1037A000890241EA905187028E0E0A0CA45D04FB47
:1037B00004F602FB06F6C6F14046A4FB0662F60DCF
:1037C00046EA422606FB06F4A4FB01235242C3F15B
:1037D000404338BF5B1EA6FB02420024E6FB0324E5
:1037E000D20B42EA4446A6FB0623A1FB02E2A3FB5E
:1037F00007E4A4184FF0000252F10002E3FB01427B
:103800006442C2F1404E38BFAEF1010EA6FB042364
:103810004FF00002E6FB0E32A2FB03464FF000041D
:10382000B61954F10004E2FB0264A1FB06E6A4FB16
:1038300007E816EB08064FF0000858F10008E4FB13
:1038400001687642C8F1405838BFA8F10108A2FBD0
:1038500006E4A3FB08E52D194FF0000454F1000421
:10386000E2FB0854A1FB05E6A7FB04E818EB0608F9
:103870004FF0000656F10006E1FB048618F1200522
:1038800056F10006A809A8F11B08B10908F03F0885
:10389000B8F10A0F40EA86601CD901EB0C51BDE873
:1038A000F08100BFFCF5EEE8E2DDD8D3CFCBC7C393
:1038B000C0BDB9B6B4B1AEACA9A7A5A3A19F9D9B4D
:1038C0009A9896959392908F8D8C8B898887868510
:1038D00084838281A0FB006800FB01F208EB4208B0
:1038E000B8EB872807D5341858EB0104D5D5401C10
:1038F00051F10001D1E7341A78EB0104CDD4401E18
:1039000071F10001C9E75FEA4C0C5FEA9C5C0DD1E4
:1039100005D34FF0000001F00041BDE8F081BDE8A3
:10392000F04170B5FFF78EFE6DDBFFBEBDE8F041E4
:103930004FF00000004970470000F87F10B591EA91
:10394000030F48BF83F000433FF530AB841A71EB9F
:10395000030C07D212198CF0004C43EB0C03001B34
:1039600061EB0C01DFF8A4E14FEA1154A4EB135C06
:103970001EEA430F18BF9EEA445F00F0B08023EABE
:103980006E03524221EA0451C3EB6E0338BF5B1E43
:10399000DCF1200E25D322FA0CFE10EB0E0043FAC8
:1039A0000CFE41EB0E01CCF1200E03FA0EFE10EBE3
:1039B0000E0051F10001CCF1200E29D412FA0EF2C2
:1039C00001EB0451BDE8104058BF7047401C1CBFBC
:1039D000B2F1004F704700280CBF491C20F00100D5
:1039E000704712EB020E43EB030218BF4FF0010EBB
:1039F0004EEA4202ACF1200CDCF11E0E54D943FA1F
:103A00000CFE10EB0E0051F1FF31CCF11E0ED5D59E
:103A10000EF1010E12FA0EFE404141EB010101EBE5
:103A2000445C5FEA5C5C10D910EBDE7001EB045182
:103A300038BFBEF1004FBDE8104018BF70470028E6
:103A40000CBF491C20F00100704730D24FEAD42C43
:103A500011F5001124F400641BD0B1FA81F20B3A85
:103A6000A41AA41ED2F12003914030FA03F31943A3
:103A7000904001EBCC71002C01EB0451BDE81040EB
:103A8000A8BF704701F1C0414FF0000001F00041B4
:103A90007047B0FA80F310FA03F100D110BDE41AB8
:103AA000173C4805C90AE4E701EB045110BD491071
:103AB00001EB0451BDE810404FEA300002E04FF046
:103AC000000170474A0008BF0042F8D0B2F5001F5D
:103AD00028BF704701F000414FF0000070479EEA98
:103AE000445F07D011EA5E0FBDE8104004BF00211B
:103AF00000207047BDE8104070B5FFF7A3FD00BF80
:103B000040DFF63E83F00041104670470000E0FFC2
:103B100043004FEAD30C4FEA3C0C43401FBF400721
:103B20000CF1605113F0FE4F70471CF0006F03D191
:103B300000200CF0004170470CF0004343EA507045
:103B400010B540EACC0000F05CFA00BF0000009223
:103B50004FEA0001FFF7C4BD4FF000414FF00000F5
:103B6000A1F500217047000090EA010F48BF81F0E5
:103B7000004100F1D482421A3CBF801A89184FEAF2
:103B8000D0524FF07F4C1CEA410FA2EBD15318BF2B
:103B90009CEA026F00F03B804FF0004C4CEA0020A2
:103BA0004CEA012121FA03FC10EB0C0C1ED202F1AD
:103BB000FF325FEA1C2040EBC25038BF70471CF058
:103BC0007F0F4FEA400C18BFBCF17F4F38BF7047E2
:103BD000C3F12003994008BF20F00100BCF17F4FE2
:103BE00038BF7047A0F1C04000F051BA4FEA3C0026
:103BF000000A40EBC25028BF1CF0FF0F4FEA400CF8
:103C0000E6D018BFBCF17F4F38BF7047EAE79CEAA7
:103C1000026F05D010EA5C0F08BF00F0004070474B
:103C200010B500F0EEF900BF64FBBE3E401058BF77
:103C3000C0F14040491058BFC1F140418142EFF30B
:103C4000008070474FF47F0C1CEAD0121EBF1CEAA4
:103C5000D11392EA0C0F93EA0C0F00F0858090EAE2
:103C6000010F48BF42F4807240F4000C41F40000A0
:103C70002CF07F4120F07F4000B58142A2EB03028F
:103C80000FF2081CACEB504EC0F100009EF800E0B3
:103C90004FEA4E0E00FB0EFC38BF49004FEA2C1CC9
:103CA00002F5FA020CFB0EF34FEACE1E4FEA112C7E
:103CB0004FEAC1210EEB635E42EB22420EFB0CFC8D
:103CC0004FEA1C5300FB03114FEA112C4FEA01315C
:103CD0000EFB0CFC4FEADC4C00FB0C11C14228BF70
:103CE00009184CEB03335DF804EB10EB410143EB97
:103CF000C250B2F57C0F38BF704729D512F0F00FD3
:103D00001CBF00F1C04000F000407047008182837A
:103D10008485868788898B8C8D8E8F9192939596DA
:103D200097999A9C9D9FA0A2A3A5A7A8AAACAEB064
:103D3000B2B3B5B7B9BCBEC0C2C5C7C9CCCED1D469
:103D4000D7D9DCDFE2E6E9ECF0F3F7FAFE00000099
:103D50004FEA400C0CF1807CBCF17E4F28BF7047CD
:103D6000B0F1C04000F093B990EA010F0CEAD11312
:103D700048BF42F48072624538BF634507D213F4EE
:103D80007F0F16D080EA010000F00040704710B5A8
:103D900000F037F9097EFC3E00F005B880EA01002A
:103DA00000F00040704780EA010000F0004000F0A1
:103DB0006EB912F47F0F04BF0248704780EA010019
:103DC00000F065B90000C07F41000B0ED3F19E02E8
:103DD00008D950F400034FEA032323FA02F048BF46
:103DE0004042704710B500F00CF900BF49922480A2
:103DF000002070476FF0004282EA20007047000008
:103E0000C10DD1F19E0206DB4FEA002343F00043CF
:103E100023FA02F07047004207D54FEA4001B1F1A2
:103E2000FE4F02D24FF00000704710B500F0E9F8E5
:103E300049922480002070476FEA200070470000FC
:103E400010F0004148BF4042B0FA80F310FA03F28C
:103E5000C3F19D030BD051EAC35101EB122053066D
:103E600038BF704700F1010008BF20F00100704723
:103E7000B0FA80F310FA03F2C3F19D030AD0D9051A
:103E800001EB1220530638BF704700F1010008BF54
:103E900020F001007047000050EA010C00F113808F
:103EA0001CF5000F58BFBCF5000F01D488427047C5
:103EB00007D710F5000F58BF11F5000F15D4884231
:103EC0007047894270471CF5000F04D5BCF5000F00
:103ED000F7D5814270474FF0807C1CEB400F38BF14
:103EE0001CEB410F01D28142704710B500F089F8F8
:103EF000922449004FF000504FF08051FFF796BEDA
:103F00004FF47F0C1CEAD0121EBF1CEAD11392EAB8
:103F10000C0F93EA0C0F00F0478090EA010F48BFA6
:103F200042F480724FF0004C4CEA00204CEA012130
:103F300002EB0302A0FB0113A2F50002002918BF47
:103F400043F001035B0028BF4FEA330342EB2242F8
:103F50005FEA132C4CEBC2502EBFBCEB436FB2F5A3
:103F60007C0F70474FEA036CBCF1004F08BF20F094
:103F70000100B2F57C0F38BF70470BD582F0FF020D
:103F800012F5803FC8BF704700F1C040D8BF00F0B5
:103F90000040704700F5000C5FEA4C0C48BF7047CA
:103FA000B0F1C04000F073B890EA010F0CEAD113F1
:103FB00048BF42F48072624538BF634504D280EA4C
:103FC000010000F00040704710B500F01AF800BF83
:103FD0008900013E00F007B800F009B85FEA410C23
:103FE0005FEA1C6C08D080EA010000F050B85FEA7C
:103FF000400C5FEA1C6CF6D14FF00040A0F5800049
:1040000070470EF1020E2EF0030E5EF8044B2442B0
:1040100004D44FEA4102B2F17F4F11D84FEA400376
:10402000B3F17F4F0CD80ED14FEAD07CB2F17F4F65
:104030000CEB4C0C0CF1020C08BF4CEBD17C04E0F7
:104040004FF0080C01E04FEAD17C0CEB4C0324FA52
:1040500003F404F00704B4F1040C06D20EEB840C54
:10406000BDE810404CF0010C6047DFE80CF0070899
:1040700002024FF00040A0F5800010BD084642004B
:1040800018BFD2F1807288BF00F0004010BDFF2140
:1040900041EAD050C005704751EA000C00F113808E
:1040A0001CF5000F58BFBCF5000F01D481427047CA
:1040B00007D711F5000F58BF10F5000F15D4814236
:1040C0007047894270471CF5000F04D5BCF5000FFE
:1040D000F7D5884270474FF0807C1CEB410F38BF0A
:1040E0001CEB400F01D28842704780EA010081EA50
:1040F000000180EA0100FFF7F8BE80F0004090EA7E
:10410000010F7FF538AD81F0004100F008B80000E4
:1041100090EA010F48BF81F000413FF52CAD421AF3
:1041200004D882F00042A0EB020011444FEAD052C2
:104130004FF07F4C1CEA410FA2EBD15318BF9CEA11
:10414000026F4AD04FF0004C4CEA00204CEA0121AB
:1041500021FA03FCB0EB0C0C0FD412F0FE0F36D09A
:104160005FEA4C001DD5001240EBC25038BF7047CB
:104170001CF03F0F18BF70470BE0A2F101025FEA8D
:104180001C2040EBC25038BF70471CF07F0F18BF97
:104190007047C3F12003994014BF401E20F0010076
:1041A000704780084FEA122308BF7047B0FA80FCBE
:1041B000A2EB0C02CCF1280C60FA0CF093EA122F5F
:1041C00004BF00EBC25070474FEAC3707047130A38
:1041D0005FEADC1008BF7047F6E79CEA026F04D084
:1041E00010EA5C0F08BF0020704710B5FFF709FF09
:1041F00040DFF63E81F0004070470CF00F03092BC2
:1042000008BF082000F059800A2B0BD0082B18BFDC
:10421000704708BF1CF0400F0AD04FF000004FF06D
:10422000000170471CF0400F18BF4FF0004070476E
:104230001CF0100F08D020F0704300F07F4242EADB
:10424000D3014FEA4370704700F0604021F07F4295
:1042500042EA000201F07F4040EA727070474FF07E
:10426000FF0C4CF4E06C1CEA11531CBF9CEA030CDD
:104270009445C2BFDA4201EB02517047002B0DD0CA
:10428000BCF1000F0FD0002A01F00041A4BF41F0A3
:10429000E04141F07F614FF00000704701F00041C4
:1042A0004FF00000704750EA01334FF09B0C18BFED
:1042B0004CF0806C7EF41AAF70471CF4801F11D054
:1042C0001CF4E02F03D06FEACC31490070474FF067
:1042D0004050EFF3008222F0704242EA000282F383
:1042E000008870474FF00000704700000000000099
:1042F00000000000000000000000000000F80000C6
:104300000000000000333000000000100C06100C0C
:104310000600000000000000000040C07840C078A7
:104320004000043F04043F040400007088FC08308F
:104330000000001820FF211E0000F008F000E01827
:10434000000000211C031E211E0000F008887000E0
:1043500000001E2123241927211010160E00000032
:1043600000000000000000000000000000E0180451
:104370000200000000071820400000020418E000BE
:1043800000000040201807000000404080F08040FE
:1043900040000202010F01020200000000F00000D4
:1043A00000000101011F01010100000000000000E8
:1043B000000080B07000000000000000000000005D
:1043C00000000001010101010101000000000000E6
:1043D000000000303000000000000000000080609D
:1043E0001804006018060100000000E01008081022
:1043F000E000000F102020100F00001010F8000047
:1044000000000020203F20200000007008080888DD
:1044100070000030282422213000003008888848AD
:1044200030000018202020110E000000C02010F8DD
:10443000000000070424243F240000F808888808AE
:1044400008000019212020110E0000E010888818B3
:104450000000000F112020110E0000380808C83895
:1044600008000000003F0000000000708808088875
:104470007000001C222121221C0000E010080810FE
:10448000E0000000312222110F00000000C0C00037
:10449000000000000030300000000000008000003C
:1044A000000000008060000000000000804020103C
:1044B0000800000102040810200040404040404035
:1044C0004000040404040404040000081020408098
:1044D00000000020100804020100007048080808CD
:1044E000F0000000003036010000C030C828E8109D
:1044F000E0000718272423140B000000C038E00058
:104500000000203C23020227382008F888888870A1
:104510000000203F202020110E00C03008080808AD
:104520003800071820202010080008F80808081094
:10453000E000203F202020100F0008F88888E808BD
:104540001000203F20202320180008F88888E80861
:104550001000203F200003000000C0300808083889
:10456000000007182020221E020008F8080000089A
:10457000F808203F210101213F20000808F8080821
:1045800000000020203F2020000000000808F8085C
:104590000800C08080807F00000008F888C02818CC
:1045A0000800203F20012638200008F808000000FD
:1045B0000000203F20202020300008F8F800F8F804
:1045C0000800203F003F003F200008F830C00008EE
:1045D000F808203F200007183F00E01008080810E6
:1045E000E0000F10202020100F0008F8080808082D
:1045F000F000203F210101010000E0100808081030
:10460000E0000F18242438504F0008F88888888864
:104610007000203F2000030C30200070880808083C
:1046200038000038202121221C00180808F808084A
:1046300018000000203F2000000008F808000008D3
:10464000F808001F202020201F000878880000C8DC
:104650003808000007380E010000F80800F80008CC
:10466000F800033C0700073C0300081868808068D6
:10467000180820302C03032C30200838C800C83814
:1046800008000000203F2000000010080808C8387B
:1046900008002038262120201800000000FE020219
:1046A00002000000007F40404000000C30C00000CD
:1046B0000000000000010638C00000020202FE00F7
:1046C0000000004040407F000000000004020202A1
:1046D00004000000000000000000000000000000D6
:1046E00000008080808080808080000202040000C2
:1046F00000000000000000000000000080808080BA
:1047000000000019242222223F2008F800808000A7
:104710000000003F112020110E000000008080806A
:104720000000000E11202020110000000080808871
:10473000F800000E112020103F20000080808080B3
:104740000000001F222222221300008080F08888AF
:1047500088180020203F20200000000080808080FA
:104760008000006B94949493600008F8008080802F
:104770000000203F210000203F200080989800008A
:1047800000000020203F20200000000000809898BA
:10479000000000C08080807F000008F8000080805A
:1047A0008000203F24022D302000000808F800007F
:1047B00000000020203F202000008080808080803A
:1047C0008000203F20003F20003F808000808080CC
:1047D0000000203F210000203F20000080808080DA
:1047E0000000001F202020201F008080008080000B
:1047F000000080FFA12020110E00000000808080BA
:104800008000000E112020A0FF808080800080802A
:10481000800020203F212000010000008080808057
:1048200080000033242424241900008080E080804C
:1048300000000000001F2020000080800000008099
:104840008000001F202020103F20808080000080FA
:10485000808000010E30080601008080008000800A
:1048600080800F300C030C300F00008080008080AF
:1048700080000020312E0E312000808080000080DA
:10488000808080818E70180601000080808080808A
:1048900080000021302C2221300000000000807CAC
:1048A000020200000000003F404000000000FF0046
:1048B000000000000000FF0000000002027C8000F9
:1048C00000000040403F000000000006010102021D
:1048D00004040000000000000000000000000000D0
:1048E000000000000000F03F000000000000F83F62
:1048F00000000000000000000000004003B8E23F9C
:10490000000000000000000006D0CF43EBFD4C3E4D
:10491000033333333333E33FFFAB6FDBB66DDB3F42
:104920004D268F515555D53F01411DA96074D13F8A
:1049300065DBC9934A86CD3FEF4E454A287ECA3F84
:104940003E5555555555C53F93BDBE166CC166BF06
:104950002CDE25AF6A56113FF16BD2C541BDBBBEFF
:10496000D0A4BE726937663E00000000000000005F
:1049700090490008000000205C00000028010008A9
:10498000EC4900085C000020FC060000440100081F
:104990000000000000000000000000000000000017
:1049A0000000000000000000010100000000000005
:1049B000000000000000000000080140000C014061
:1049C00000100140000000400004004000080040CA
:1049D0000038014000440040004800400000000052
:0C49E000000000000000000000000000CB
:04000005080000ED02
:00000001FF
